{
	"data": {
		"bytecode": {
			"linkReferences": {},
			"object": "60806040523480156200001157600080fd5b50600980546001600160a01b03199081163317909155604080516060810182526001808252735b38da6a701c568545dcfcb03fcb875f56beddc46020808401918252845180860186526008815267636974696c696e6b60c01b918101919091529383019384526003805492830181556000819052835192027fc2575a0e9e593c00f959f8c92f12db2869c3395a3b0502d05e2516446f71f85b810192835590517fc2575a0e9e593c00f959f8c92f12db2869c3395a3b0502d05e2516446f71f85c820180546001600160a01b03929092169190961617909455915190927fc2575a0e9e593c00f959f8c92f12db2869c3395a3b0502d05e2516446f71f85d01906200011d908262000627565b5050604080516060810182526002815273583031d1113ad414f02576bd6afabfb30214022560208083019182528351808501855260078152664d2e766964656f60c81b91810191909152928201928352600380546001810182556000829052835191027fc2575a0e9e593c00f959f8c92f12db2869c3395a3b0502d05e2516446f71f85b810191825591517fc2575a0e9e593c00f959f8c92f12db2869c3395a3b0502d05e2516446f71f85c830180546001600160a01b03929092166001600160a01b031990921691909117905592519193507fc2575a0e9e593c00f959f8c92f12db2869c3395a3b0502d05e2516446f71f85d01906200021f908262000627565b5050604080516060810182526001808252670de0b6b3a7640000602083019081526064838501908152600480548085018255600082815295517f8a35acfbc15ff81a39ae7d344fd709f28e8600b4aa8c65c6b64bfe7fe36bd19b60039092029182015592517f8a35acfbc15ff81a39ae7d344fd709f28e8600b4aa8c65c6b64bfe7fe36bd19c84015590517f8a35acfbc15ff81a39ae7d344fd709f28e8600b4aa8c65c6b64bfe7fe36bd19d90920191909155835160808101909452805491945083929091620002f357620002f3620006f3565b9060005260206000209060030201600001548152602001600181526020016004600081548110620003285762000328620006f3565b906000526020600020906003020160010154600262000348919062000709565b8152601460209182015282546001818101855560009485528285208451600493840290910190815584840151818301556040808601516002808401919091556060968701516003909301929092558051608081018252838152815180830183526006808252650536872696d760d41b8289015282880191825283518085018552908152652232b9b1b91760d11b978101979097529181019590955260059585019590955280549182018155909452815193027f405787fa12a823e0f2b7631cc41b3ba8828b3321ca811111fa75cd3aa3bb5ace810193845591519092917f405787fa12a823e0f2b7631cc41b3ba8828b3321ca811111fa75cd3aa3bb5acf019062000454908262000627565b50604082015160028201906200046b908262000627565b506060918201516003918201556040805160a08101825292830182815262444e5360e81b6080850152835273dd870fa1b7c4700f2bd7f44238821c26f7392148602084015260009083018190528054600181018255908052825191027f290decd9548b62a8d60345a988386fc84ba6bc95484008f6362f93160ef3e56301908190620004f8908262000627565b5060208201518160010160006101000a8154816001600160a01b0302191690836001600160a01b03160217905550604082015181600201555050600060136000806000815481106200054e576200054e620006f3565b60009182526020808320600160039093020191909101546001600160a01b0316835282019290925260400190205562000735565b634e487b7160e01b600052604160045260246000fd5b600181811c90821680620005ad57607f821691505b602082108103620005ce57634e487b7160e01b600052602260045260246000fd5b50919050565b601f8211156200062257600081815260208120601f850160051c81016020861015620005fd5750805b601f850160051c820191505b818110156200061e5782815560010162000609565b5050505b505050565b81516001600160401b0381111562000643576200064362000582565b6200065b8162000654845462000598565b84620005d4565b602080601f8311600181146200069357600084156200067a5750858301515b600019600386901b1c1916600185901b1785556200061e565b600085815260208120601f198616915b82811015620006c457888601518255948401946001909101908401620006a3565b5085821015620006e35787850151600019600388901b60f8161c191681555b5050505050600190811b01905550565b634e487b7160e01b600052603260045260246000fd5b80820281158282048414176200072f57634e487b7160e01b600052601160045260246000fd5b92915050565b613bad80620007456000396000f3fe60806040526004361061009c5760003560e01c8063d2cedf0411610064578063d2cedf041461011e578063d9bd29d414610131578063db9c557114610151578063dd26d4d914610171578063df8903d814610184578063eb277cf91461019757600080fd5b806362cc01e7146100a1578063ab166be6146100b6578063b107cbce146100c9578063bf6c0b48146100e9578063d0ccd21314610109575b600080fd5b6100b46100af36600461341b565b6101b7565b005b6100b46100c4366004613452565b61057d565b3480156100d557600080fd5b506100b46100e436600461341b565b610943565b3480156100f557600080fd5b506100b461010436600461347c565b610afe565b34801561011557600080fd5b506100b4610d0b565b6100b461012c3660046134a5565b610efc565b34801561013d57600080fd5b506100b461014c366004613561565b61104c565b34801561015d57600080fd5b506100b461016c3660046135b5565b611166565b6100b461017f36600461360f565b61182e565b6100b461019236600461363b565b611ae7565b3480156101a357600080fd5b506100b46101b23660046134a5565b6121fc565b6000805b60005481101561021b57336001600160a01b0316600082815481106101e2576101e2613670565b60009182526020909120600160039092020101546001600160a01b03160361020957600191505b806102138161369c565b9150506101bb565b506001811515146102475760405162461bcd60e51b815260040161023e906136b5565b60405180910390fd5b6006548390811061026a5760405162461bcd60e51b815260040161023e906136e3565b346006858154811061027e5761027e613670565b906000526020600020906008020160040154600180600688815481106102a6576102a6613670565b9060005260206000209060080201600301546102c29190613726565b815481106102d2576102d2613670565b9060005260206000209060040201600201546102ee9190613739565b11156103555760405162461bcd60e51b815260206004820152603060248201527f596f7520646f6e6074206861766520656e6f756768206d6f6e657920746f207060448201526f617920746f207468697320646562742160801b606482015260840161023e565b336000908152601660209081526040808320805482518185028101850190935280835291929091908301828280156103b657602002820191906000526020600020905b81546001600160a01b03168152600190910190602001808311610398575b505050505090506000600686815481106103d2576103d2613670565b600091825260209091206001600890920201015490506005600687815481106103fd576103fd613670565b600091825260209091206006600890920201015460ff16600581111561042557610425613750565b146104725760405162461bcd60e51b815260206004820181905260248201527f596f75206861766520616c726561647920706169642074686973206465627421604482015260640161023e565b81818151811061048457610484613670565b60200260200101516001600160a01b03166108fc600e549081150290604051600060405180830381858888f193505050501580156104c6573d6000803e3d6000fd5b506005600687815481106104dc576104dc613670565b60009182526020909120600660089092020101805460ff1916600183600581111561050957610509613750565b021790555081818151811061052057610520613670565b6020026020010160006001600160a01b0316815250600e546000868154811061054b5761054b613670565b9060005260206000209060030201600201600082825461056b9190613726565b90915550506000600e55505050505050565b6000805b6000548110156105e157336001600160a01b0316600082815481106105a8576105a8613670565b60009182526020909120600160039092020101546001600160a01b0316036105cf57600191505b806105d98161369c565b915050610581565b506001811515146106045760405162461bcd60e51b815260040161023e906136b5565b60006006838154811061061957610619613670565b600091825260209091206006600890920201015460ff16600581111561064157610641613750565b1461069e5760405162461bcd60e51b815260206004820152602760248201527f596f7520636f6e6669726d65642f63616e63656c65642074686973206f72646560448201526672206561726c7960c81b606482015260840161023e565b82151560010361072a5760006106b2612812565b905080600684815481106106c8576106c8613670565b9060005260206000209060080201600701819055506001600684815481106106f2576106f2613670565b60009182526020909120600660089092020101805460ff1916600183600581111561071f5761071f613750565b021790555050505050565b82151560000361093e576006828154811061074757610747613670565b90600052602060002090600802016004015460016006848154811061076e5761076e613670565b9060005260206000209060080201600301548154811061079057610790613670565b9060005260206000209060040201600201546107ac9190613739565b3410156107fb5760405162461bcd60e51b815260206004820152601a60248201527f596f7520646f6e6074206861766520656e6f756768204574682e000000000000604482015260640161023e565b60026006838154811061081057610810613670565b60009182526020909120600660089092020101805460ff1916600183600581111561083d5761083d613750565b021790555060076006838154811061085757610857613670565b9060005260206000209060080201600101548154811061087957610879613670565b6000918252602090912060039091020154600680546001600160a01b03909216916108fc9190859081106108af576108af613670565b9060005260206000209060080201600401546001600686815481106108d6576108d6613670565b906000526020600020906008020160030154815481106108f8576108f8613670565b9060005260206000209060040201600201546109149190613739565b6040518115909202916000818181858888f1935050505015801561093c573d6000803e3d6000fd5b505b505050565b6009546001600160a01b031633146109945760405162461bcd60e51b8152602060048201526014602482015273596f75206172656e607420616e206f776e65722160601b604482015260640161023e565b8115806109a15750816001145b610a135760405162461bcd60e51b815260206004820152603f60248201527f596f752077726f746520612077726f6e6720636f6e6669726d2f72656a65637460448201527f20636f6465212030202d2072656a6563742c2031202d20636f6e6669726d2100606482015260840161023e565b80600003610a4057610a3c604051806060016040528060248152602001613b5460249139612826565b5050565b610af68260058481548110610a5757610a57613670565b90600052602060002090600402016002018054610a7390613766565b80601f0160208091040260200160405190810160405280929190818152602001828054610a9f90613766565b8015610aec5780601f10610ac157610100808354040283529160200191610aec565b820191906000526020600020905b815481529060010190602001808311610acf57829003601f168201915b5050505050612869565b610a3c612c11565b60005b600354811015610b7457336001600160a01b031660038281548110610b2857610b28613670565b60009182526020909120600160039092020101546001600160a01b031603610b625760405162461bcd60e51b815260040161023e906137a0565b80610b6c8161369c565b915050610b01565b5060005b600054811015610beb57336001600160a01b031660008281548110610b9f57610b9f613670565b60009182526020909120600160039092020101546001600160a01b031603610bd95760405162461bcd60e51b815260040161023e906137a0565b80610be38161369c565b915050610b78565b50336001600160a01b03821603610c4e5760405162461bcd60e51b815260206004820152602160248201527f4572726f722120596f752063616e607420696e7669746520796f757273656c666044820152602160f81b606482015260840161023e565b6000610c5982612d8f565b9050801515600103610cbb5760405162461bcd60e51b815260206004820152602560248201527f4572726f7221205468697320757365722068617320616c726561647920696e76604482015264697465642160d81b606482015260840161023e565b610cc7620f4240612de2565b6001600160a01b038316600090815260156020526040902055610ce982612e3c565b6001600160a01b038216600090815260156020526040902054610a3c90612ea1565b6009546001600160a01b03163314610d5c5760405162461bcd60e51b8152602060048201526014602482015273596f75206172656e607420616e206f776e65722160601b604482015260640161023e565b60005b600554811015610ef957610d8a6040518060600160405280602b8152602001613acc602b9139612826565b610db760058281548110610da057610da0613670565b906000526020600020906004020160000154612ea1565b610def60058281548110610dcd57610dcd613670565b60009182526020909120600160049092020101546001600160a01b0316612ee6565b610ea460058281548110610e0557610e05613670565b90600052602060002090600402016002018054610e2190613766565b80601f0160208091040260200160405190810160405280929190818152602001828054610e4d90613766565b8015610e9a5780601f10610e6f57610100808354040283529160200191610e9a565b820191906000526020600020905b815481529060010190602001808311610e7d57829003601f168201915b5050505050612826565b610ee760058281548110610eba57610eba613670565b60009182526020909120600360049092020181015460ff1690811115610ee257610ee2613750565b612ea1565b80610ef18161369c565b915050610d5f565b50565b6000805b600054811015610f6057336001600160a01b031660008281548110610f2757610f27613670565b60009182526020909120600160039092020101546001600160a01b031603610f4e57600191505b80610f588161369c565b915050610f00565b50600181151514610f835760405162461bcd60e51b815260040161023e906136b5565b33600090815260166020526040902054610fdf5760405162461bcd60e51b815260206004820152601960248201527f596f7520646f6e6074206861766520616e792064656274732100000000000000604482015260640161023e565b60065482106110005760405162461bcd60e51b815260040161023e906136e3565b611033604051806040016040528060128152602001712cb7bab9103232b13a1039bab69032ba341d60711b815250612826565b610a3c670de0b6b3a7640000600e54610ee291906137e6565b60056040518060800160405280600c548152602001336001600160a01b0316815260200183815260200184600381111561108857611088613750565b9052815460018082018455600093845260209384902083516004909302019182559282015192810180546001600160a01b0319166001600160a01b0390941693909317909255604081015190919060028201906110e59082613848565b5060608201518160030160006101000a81548160ff0219169083600381111561111057611110613750565b021790555050506111426040518060400160405280600a81526020016928bab2b9393c9034b21d60b11b815250612826565b61114d600c54612ea1565b600c805490600061115d8361369c565b91905055505050565b60005b6003548110156111dc57336001600160a01b03166003828154811061119057611190613670565b60009182526020909120600160039092020101546001600160a01b0316036111ca5760405162461bcd60e51b815260040161023e906137a0565b806111d48161369c565b915050611169565b5060005b60005481101561125357336001600160a01b03166000828154811061120757611207613670565b60009182526020909120600160039092020101546001600160a01b0316036112415760405162461bcd60e51b815260040161023e906137a0565b8061124b8161369c565b9150506111e0565b506000836001868154811061126a5761126a613670565b9060005260206000209060040201600301546112869190613726565b10156112ef5760405162461bcd60e51b815260206004820152603260248201527f536f7272792120576520646f6e6074206861766520656e6f75676820636f756e60448201527174206f6620746869732070726f647563742160701b606482015260840161023e565b826001858154811061130357611303613670565b906000526020600020906004020160030160008282546113239190613726565b9091555050336000908152601260205260408120549081900361142a576040805160608101825233815260208101848152600092820183905260078054600181018255935281517fa66cc928b5edb82af9bd49922954155ab7b0942694bea4ce44661d9a8736c688600390940293840180546001600160a01b0319166001600160a01b039092169190911781559051919290917fa66cc928b5edb82af9bd49922954155ab7b0942694bea4ce44661d9a8736c689909101906113e59082613848565b50604091909101516002909101805460ff1916911515919091179055600d80549060006114118361369c565b9091555050600d54336000908152601260205260409020555b61143385612f2e565b600b906114409082613848565b506006604051806101000160405280600b805461145c90613766565b80601f016020809104026020016040519081016040528092919081815260200182805461148890613766565b80156114d55780601f106114aa576101008083540402835291602001916114d5565b820191906000526020600020905b8154815290600101906020018083116114b857829003601f168201915b5050505050815260200160016007805490506114f19190613726565b8152602001878152602001858152602001868152602001611512600a612de2565b8152602001600081526000602091820181905283546001810185559381522081519192600802019081906115469082613848565b506020820151816001015560408201518160020155606082015181600301556080820151816004015560a0820151816005015560c08201518160060160006101000a81548160ff021916908360058111156115a3576115a3613750565b021790555060e082015181600701555050600b600660016006805490506115ca9190613726565b815481106115da576115da613670565b906000526020600020906008020160000190816115f79190613908565b506006805461160890600190613726565b8154811061161857611618613670565b9060005260206000209060080201600401546001600660016006805490506116409190613726565b8154811061165057611650613670565b9060005260206000209060080201600301548154811061167257611672613670565b90600052602060002090600402016002015461168e9190613739565b6006546017906000906116a390600190613726565b8152602001908152602001600020819055506116d6604051806060016040528060258152602001613af760259139612826565b6006805461171291906116eb90600190613726565b815481106116fb576116fb613670565b906000526020600020906008020160050154612ea1565b6117406040518060400160405280600d81526020016c27b93232b910373ab6b132b91d60991b815250612826565b60065461175390610ee290600190613726565b6117846040518060400160405280601081526020016f2cb7bab9103a3930b1b59031b7b2329d60811b815250612826565b611794600b8054610e2190613766565b6117b5604051806060016040528060388152602001613b1c60389139612826565b6117bf6005612ea1565b6117e0604051806060016040528060328152602001613a9a60329139612826565b61182767016345785d8a000060056017600060016006805490506118049190613726565b81526020019081526020016000205461181d91906137e6565b610ee291906137e6565b5050505050565b6000805b60005481101561189257336001600160a01b03166000828154811061185957611859613670565b60009182526020909120600160039092020101546001600160a01b03160361188057600191505b8061188a8161369c565b915050611832565b506001811515146118b55760405162461bcd60e51b815260040161023e906136b5565b600083600484815481106118cb576118cb613670565b9060005260206000209060030201600201546118e79190613726565b10156119415760405162461bcd60e51b8152602060048201526024808201527f536f7272792c20776520646f6e6074206861766520656e6f7567682070726f646044820152637563747360e01b606482015260840161023e565b34836004868154811061195657611956613670565b9060005260206000209060030201600101546119729190613739565b11156119bc5760405162461bcd60e51b81526020600482015260196024820152780b2deea40c8dedcc0e840d0c2ecca40cadcdeeaced0408ae8d603b1b604482015260640161023e565b600382815481106119cf576119cf613670565b906000526020600020906003020160010160009054906101000a90046001600160a01b03166001600160a01b03166108fc8460048781548110611a1457611a14613670565b906000526020600020906003020160010154611a309190613739565b6040518115909202916000818181858888f19350505050158015611a58573d6000803e3d6000fd5b50336000908152601360205260409020546004805485919085908110611a8057611a80613670565b90600052602060002090600302016002016000828254611aa09190613726565b925050819055508360018281548110611abb57611abb613670565b90600052602060002090600402016003016000828254611adb91906139db565b90915550505050505050565b60005b600354811015611b5d57336001600160a01b031660038281548110611b1157611b11613670565b60009182526020909120600160039092020101546001600160a01b031603611b4b5760405162461bcd60e51b815260040161023e906137a0565b80611b558161369c565b915050611aea565b5060005b600054811015611bd457336001600160a01b031660008281548110611b8857611b88613670565b60009182526020909120600160039092020101546001600160a01b031603611bc25760405162461bcd60e51b815260040161023e906137a0565b80611bcc8161369c565b915050611b61565b50336001600160a01b0316600760068581548110611bf457611bf4613670565b90600052602060002090600802016001015481548110611c1657611c16613670565b60009182526020909120600390910201546001600160a01b031614611c885760405162461bcd60e51b815260206004820152602260248201527f596f7520656e74657220612077726f6e67206e756d626572206f66206f726465604482015261722160f01b606482015260840161023e565b600160068481548110611c9d57611c9d613670565b600091825260209091206006600890920201015460ff166005811115611cc557611cc5613750565b14611d385760405162461bcd60e51b815260206004820152603960248201527f54686973207075727368617265206d75737420676f7420636f6e6669726d206660448201527f726f6d2073686f70206f722046696e6973686564207965742100000000000000606482015260840161023e565b60068381548110611d4b57611d4b613670565b906000526020600020906008020160070154421015611dac5760405162461bcd60e51b815260206004820152601f60248201527f596f7572206f726465722069736e60742064656c697665726564207965742100604482015260640161023e565b81151560010361201457600060068481548110611dcb57611dcb613670565b906000526020600020906008020160040154600160068681548110611df257611df2613670565b90600052602060002090600802016003015481548110611e1457611e14613670565b906000526020600020906004020160020154611e309190613739565b90508115611f33576000611e43836130bd565b90508015611e935760405162461bcd60e51b815260206004820152601860248201527f5468697320636f646520686173206265656e2075736564210000000000000000604482015260640161023e565b336000908152601560205260408120549003611ef15760405162461bcd60e51b815260206004820152601860248201527f5468697320636f64652069736e607420666f7220796f75210000000000000000604482015260640161023e565b611efa8261310a565b600880546001810182556000919091527ff3f7a9fe364faab93b216da50a3214154f22a0a2b415b23a84c8169e8b636ee3018490559150505b34811115611f7f5760405162461bcd60e51b81526020600482015260196024820152780b2deea40c8dedcc0e840d0c2ecca40cadcdeeaced0408ae8d603b1b604482015260640161023e565b600060068581548110611f9457611f94613670565b90600052602060002090600802016002015481548110611fb657611fb6613670565b600091825260208220600160039092020101546040516001600160a01b039091169183156108fc02918491818181858888f19350505050158015611ffe573d6000803e3d6000fd5b506003600685815481106106f2576106f2613670565b81151560000361093e5760008381526017602052604090205434101561207c5760405162461bcd60e51b815260206004820152601a60248201527f596f7520646f6e6074206861766520656e6f756768204574682e000000000000604482015260640161023e565b60006006848154811061209157612091613670565b906000526020600020906008020160020154815481106120b3576120b3613670565b600091825260208083206001600390930201919091015485835260179091526040909120546001600160a01b03909116906108fc906120f4906005906137e6565b6040518115909202916000818181858888f1935050505015801561211c573d6000803e3d6000fd5b5060008381526017602052604081205560068054600291908590811061214457612144613670565b60009182526020909120600660089092020101805460ff1916600183600581111561217157612171613750565b02179055506006838154811061218957612189613670565b9060005260206000209060080201600401546001600685815481106121b0576121b0613670565b906000526020600020906008020160030154815481106121d2576121d2613670565b906000526020600020906004020160030160008282546121f291906139db565b9091555050505050565b60005b60035481101561227257336001600160a01b03166003828154811061222657612226613670565b60009182526020909120600160039092020101546001600160a01b0316036122605760405162461bcd60e51b815260040161023e906137a0565b8061226a8161369c565b9150506121ff565b5060005b6000548110156122e957336001600160a01b03166000828154811061229d5761229d613670565b60009182526020909120600160039092020101546001600160a01b0316036122d75760405162461bcd60e51b815260040161023e906137a0565b806122e18161369c565b915050612276565b506006548190811061230d5760405162461bcd60e51b815260040161023e906136e3565b6000805b60075481101561237157336001600160a01b03166007828154811061233857612338613670565b60009182526020909120600390910201546001600160a01b03160361235f57809150612371565b806123698161369c565b915050612311565b5060005b60065481101561093c57838103612800576006818154811061239957612399613670565b90600052602060002090600802016001015482146123f95760405162461bcd60e51b815260206004820152601f60248201527f596f752077726f746520612077726f6e67206f72646572206e756d6265722100604482015260640161023e565b60026006828154811061240e5761240e613670565b9060005260206000209060080201600301548154811061243057612430613670565b9060005260206000209060040201600301546006828154811061245557612455613670565b906000526020600020906008020160050154116124c95760405162461bcd60e51b815260206004820152602c60248201527f54686973206f7264657220646f6e6074206861766520616e792065787065726960448201526b65642070726f64756374732160a01b606482015260840161023e565b6003600682815481106124de576124de613670565b600091825260209091206006600890920201015460ff16600581111561250657612506613750565b146125535760405162461bcd60e51b815260206004820152601d60248201527f596f752063616e60742072657475726e206f7264657220747769636521000000604482015260640161023e565b60006006858154811061256857612568613670565b906000526020600020906008020160030154905060006006868154811061259157612591613670565b906000526020600020906008020160040154905060006001600688815481106125bc576125bc613670565b906000526020600020906008020160030154815481106125de576125de613670565b906000526020600020906004020160020154905080826125fe9190613739565b600e8190555060046006858154811061261957612619613670565b60009182526020909120600660089092020101805460ff1916600183600581111561264657612646613750565b02179055506006848154811061265e5761265e613670565b9060005260206000209060080201600401546001848154811061268357612683613670565b906000526020600020906004020160030160008282546126a391906139db565b909155505060018054849081106126bc576126bc613670565b906000526020600020906004020160030154600184815481106126e1576126e1613670565b9060005260206000209060040201600201546126fd9190613739565b6000600180868154811061271357612713613670565b90600052602060002090600402016001015461272f9190613726565b8154811061273f5761273f613670565b9060005260206000209060030201600201600082825461275f91906139db565b925050819055506016600080600180878154811061277f5761277f613670565b90600052602060002090600402016001015461279b9190613726565b815481106127ab576127ab613670565b6000918252602080832060016003909302018201546001600160a01b031684528381019490945260409092018120805492830181558152919091200180546001600160a01b031916331790555061093c915050565b8061280a8161369c565b915050612375565b6000426128208160026139db565b91505090565b610ef98160405160240161283a9190613a12565b60408051601f198184030181529190526020810180516001600160e01b031663104c13eb60e21b179052613129565b6005828154811061287c5761287c613670565b60009182526020822060016004909202010154600a80546001600160a01b0319166001600160a01b0390921691909117905560058054849081106128c2576128c2613670565b906000526020600020906004020160030160009054906101000a900460ff16905061291b600584815481106128f9576128f9613670565b60009182526020909120600160049092020101546001600160a01b0316613132565b6011805460ff1916600183600381111561293757612937613750565b021790555060115460ff16600381111561295357612953613750565b81600381111561296557612965613750565b036129c85760405162461bcd60e51b815260206004820152602d60248201527f596f752063616e6074206368616e67652066726f6d20796f757220726f6c652060448201526c6f6e20796f757220726f6c652160981b606482015260840161023e565b60028160038111156129dc576129dc613750565b03612a805760408051606081018252838152600a546001600160a01b0316602082015260009181018290528154600181018355918052805190916003027f290decd9548b62a8d60345a988386fc84ba6bc95484008f6362f93160ef3e56301908190612a489082613848565b5060208201516001820180546001600160a01b0319166001600160a01b03909216919091179055604090910151600290910155612c0d565b6001816003811115612a9457612a94613750565b03612b3057600360405180606001604052806001600380549050612ab89190613726565b8152600a546001600160a01b03908116602080840191909152604092830187905284546001808201875560009687529582902085516003909202019081559084015194810180546001600160a01b031916959092169490941790558101519091906002820190612b289082613848565b505050612c0d565b6000816003811115612b4457612b44613750565b03612c0d5760408051606081018252600a546001600160a01b03908116825260208201858152600093830184905260078054600181018255945282517fa66cc928b5edb82af9bd49922954155ab7b0942694bea4ce44661d9a8736c688600390950294850180546001600160a01b0319169190931617825551919290917fa66cc928b5edb82af9bd49922954155ab7b0942694bea4ce44661d9a8736c68990910190612bf09082613848565b50604091909101516002909101805460ff19169115159190911790555b61093e5b600260115460ff166003811115612c2a57612c2a613750565b03612c9157600a54600090612c4a906001906001600160a01b0316613267565b81548110612c5a57612c5a613670565b60009182526020822060039091020190612c7482826133cd565b506001810180546001600160a01b03191690556000600290910155565b600160115460ff166003811115612caa57612caa613750565b03612d0c57600a54600390612cca906002906001600160a01b0316613267565b81548110612cda57612cda613670565b6000918252602082206003909102018181556001810180546001600160a01b031916905590610a3c60028301826133cd565b600060115460ff166003811115612d2557612d25613750565b03612d8d57600a54600790612d45906000906001600160a01b0316613267565b81548110612d5557612d55613670565b60009182526020822060039091020180546001600160a01b031916815590612d8060018301826133cd565b50600201805460ff191690555b565b6000805b601054811015612dd9576000818152601460205260409020546001600160a01b03808516911603612dc75750600192915050565b80612dd18161369c565b915050612d93565b50600092915050565b6000814233604051602001612e1392919091825260601b6bffffffffffffffffffffffff1916602082015260340190565b6040516020818303038152906040528051906020012060001c612e369190613a45565b92915050565b6000612e4782612d8f565b9050801515600003612e915760108054600090815260146020526040812080546001600160a01b0319166001600160a01b03861617905581549190612e8b8361369c565b91905055505b600f805490600061115d8361369c565b610ef981604051602401612eb791815260200190565b60408051601f198184030181529190526020810180516001600160e01b031663f82c50f160e01b179052613129565b6040516001600160a01b0382166024820152610ef99060440160408051601f198184030181529190526020810180516001600160e01b031663161765e160e11b179052613129565b6060600060028381548110612f4557612f45613670565b90600052602060002090600402016001018054612f6190613766565b80601f0160208091040260200160405190810160405280929190818152602001828054612f8d90613766565b8015612fda5780601f10612faf57610100808354040283529160200191612fda565b820191906000526020600020905b815481529060010190602001808311612fbd57829003601f168201915b50505050509050600060028481548110612ff657612ff6613670565b9060005260206000209060040201600201805461301290613766565b80601f016020809104026020016040519081016040528092919081815260200182805461303e90613766565b801561308b5780601f106130605761010080835404028352916020019161308b565b820191906000526020600020905b81548152906001019060200180831161306e57829003601f168201915b5050505050905081816040516020016130a5929190613a59565b60405160208183030381529060405292505050919050565b6000805b600854811015612dd957600881815481106130de576130de613670565b906000526020600020015483036130f85750600192915050565b806131028161369c565b9150506130c1565b600080613118600a846137e6565b6131229084613726565b9392505050565b610ef9816133ac565b6000805b60075481101561319757826001600160a01b03166007828154811061315d5761315d613670565b60009182526020909120600390910201546001600160a01b0316036131855750600092915050565b8061318f8161369c565b915050613136565b5060005b6000548110156131ff57826001600160a01b0316600082815481106131c2576131c2613670565b60009182526020909120600160039092020101546001600160a01b0316036131ed5750600292915050565b806131f78161369c565b91505061319b565b5060005b600354811015612dd957826001600160a01b03166003828154811061322a5761322a613670565b60009182526020909120600160039092020101546001600160a01b0316036132555750600192915050565b8061325f8161369c565b915050613203565b6000826001036132d35760005b6000548110156132d1576000818154811061329157613291613670565b60009182526020909120600160039092020101546001600160a01b03908116908416036132bf579050612e36565b806132c98161369c565b915050613274565b505b8260020361333d5760005b60035481101561333b57600381815481106132fb576132fb613670565b60009182526020909120600160039092020101546001600160a01b0390811690841603613329579050612e36565b806133338161369c565b9150506132de565b505b82600003612dd95760005b6007548110156133a2576007818154811061336557613365613670565b60009182526020909120600390910201546001600160a01b0390811690841603613390579050612e36565b8061339a8161369c565b915050613348565b5050600092915050565b60006a636f6e736f6c652e6c6f679050600080835160208501845afa505050565b5080546133d990613766565b6000825580601f106133e9575050565b601f016020900490600052602060002090810190610ef991905b808211156134175760008155600101613403565b5090565b6000806040838503121561342e57600080fd5b50508035926020909101359150565b8035801515811461344d57600080fd5b919050565b6000806040838503121561346557600080fd5b61346e8361343d565b946020939093013593505050565b60006020828403121561348e57600080fd5b81356001600160a01b038116811461312257600080fd5b6000602082840312156134b757600080fd5b5035919050565b634e487b7160e01b600052604160045260246000fd5b600082601f8301126134e557600080fd5b813567ffffffffffffffff80821115613500576135006134be565b604051601f8301601f19908116603f01168101908282118183101715613528576135286134be565b8160405283815286602085880101111561354157600080fd5b836020870160208301376000602085830101528094505050505092915050565b6000806040838503121561357457600080fd5b82356004811061358357600080fd5b9150602083013567ffffffffffffffff81111561359f57600080fd5b6135ab858286016134d4565b9150509250929050565b600080600080608085870312156135cb57600080fd5b843593506020850135925060408501359150606085013567ffffffffffffffff8111156135f757600080fd5b613603878288016134d4565b91505092959194509250565b60008060006060848603121561362457600080fd5b505081359360208301359350604090920135919050565b60008060006060848603121561365057600080fd5b833592506136606020850161343d565b9150604084013590509250925092565b634e487b7160e01b600052603260045260246000fd5b634e487b7160e01b600052601160045260246000fd5b6000600182016136ae576136ae613686565b5060010190565b6020808252601490820152734f6e6c792073686f702063616e20646f2069742160601b604082015260600190565b60208082526023908201527f5468697320707572736861726520697320646f6e60742063726561746564207960408201526265742160e81b606082015260800190565b81810381811115612e3657612e36613686565b8082028115828204841417612e3657612e36613686565b634e487b7160e01b600052602160045260246000fd5b600181811c9082168061377a57607f821691505b60208210810361379a57634e487b7160e01b600052602260045260246000fd5b50919050565b6020808252601690820152754f6e6c7920636c69656e742063616e20646f2069742160501b604082015260600190565b634e487b7160e01b600052601260045260246000fd5b6000826137f5576137f56137d0565b500490565b601f82111561093e57600081815260208120601f850160051c810160208610156138215750805b601f850160051c820191505b818110156138405782815560010161382d565b505050505050565b815167ffffffffffffffff811115613862576138626134be565b613876816138708454613766565b846137fa565b602080601f8311600181146138ab57600084156138935750858301515b600019600386901b1c1916600185901b178555613840565b600085815260208120601f198616915b828110156138da578886015182559484019460019091019084016138bb565b50858210156138f85787850151600019600388901b60f8161c191681555b5050505050600190811b01905550565b818103613913575050565b61391d8254613766565b67ffffffffffffffff811115613935576139356134be565b613943816138708454613766565b6000601f821160018114613977576000831561395f5750848201545b600019600385901b1c1916600184901b178455611827565b600085815260209020601f19841690600086815260209020845b838110156139b15782860154825560019586019590910190602001613991565b50858310156138f85793015460001960f8600387901b161c19169092555050600190811b01905550565b80820180821115612e3657612e36613686565b60005b83811015613a095781810151838201526020016139f1565b50506000910152565b6020815260008251806020840152613a318160408501602087016139ee565b601f01601f19169190910160400192915050565b600082613a5457613a546137d0565b500690565b61414160f01b815260008351613a768160028501602088016139ee565b835190830190613a8d8160028401602088016139ee565b0160020194935050505056fe46696e652c20696620796f752072656a6563742074686973206f726465722028696e20302c2845746820636f756e7429293a5f5f5f5f5f5f5f5f5f5f5f5f5f5f5f5f5f5f5f5f5f5f5f5f5f5f5f5f5f5f5f5f5f5f5f5f5f5f5f5f5f5f5f446179732066726f6d20737570706c79206f6620746869732070726f647563742069733a20596f75206e65656420746f207761697420796f7572206f7264657220666f723a202874656d706f7261726c7920696e207365636f6e647329446f6e652120596f7520686176652072656a656374656420746869732071756572727921a2646970667358221220801afe0b022b345f1eeb93d244bac4b45cec48055430025cce71852e1686cecf64736f6c63430008120033",
			"opcodes": "PUSH1 0x80 PUSH1 0x40 MSTORE CALLVALUE DUP1 ISZERO PUSH3 0x11 JUMPI PUSH1 0x0 DUP1 REVERT JUMPDEST POP PUSH1 0x9 DUP1 SLOAD PUSH1 0x1 PUSH1 0x1 PUSH1 0xA0 SHL SUB NOT SWAP1 DUP2 AND CALLER OR SWAP1 SWAP2 SSTORE PUSH1 0x40 DUP1 MLOAD PUSH1 0x60 DUP2 ADD DUP3 MSTORE PUSH1 0x1 DUP1 DUP3 MSTORE PUSH20 0x5B38DA6A701C568545DCFCB03FCB875F56BEDDC4 PUSH1 0x20 DUP1 DUP5 ADD SWAP2 DUP3 MSTORE DUP5 MLOAD DUP1 DUP7 ADD DUP7 MSTORE PUSH1 0x8 DUP2 MSTORE PUSH8 0x636974696C696E6B PUSH1 0xC0 SHL SWAP2 DUP2 ADD SWAP2 SWAP1 SWAP2 MSTORE SWAP4 DUP4 ADD SWAP4 DUP5 MSTORE PUSH1 0x3 DUP1 SLOAD SWAP3 DUP4 ADD DUP2 SSTORE PUSH1 0x0 DUP2 SWAP1 MSTORE DUP4 MLOAD SWAP3 MUL PUSH32 0xC2575A0E9E593C00F959F8C92F12DB2869C3395A3B0502D05E2516446F71F85B DUP2 ADD SWAP3 DUP4 SSTORE SWAP1 MLOAD PUSH32 0xC2575A0E9E593C00F959F8C92F12DB2869C3395A3B0502D05E2516446F71F85C DUP3 ADD DUP1 SLOAD PUSH1 0x1 PUSH1 0x1 PUSH1 0xA0 SHL SUB SWAP3 SWAP1 SWAP3 AND SWAP2 SWAP1 SWAP7 AND OR SWAP1 SWAP5 SSTORE SWAP2 MLOAD SWAP1 SWAP3 PUSH32 0xC2575A0E9E593C00F959F8C92F12DB2869C3395A3B0502D05E2516446F71F85D ADD SWAP1 PUSH3 0x11D SWAP1 DUP3 PUSH3 0x627 JUMP JUMPDEST POP POP PUSH1 0x40 DUP1 MLOAD PUSH1 0x60 DUP2 ADD DUP3 MSTORE PUSH1 0x2 DUP2 MSTORE PUSH20 0x583031D1113AD414F02576BD6AFABFB302140225 PUSH1 0x20 DUP1 DUP4 ADD SWAP2 DUP3 MSTORE DUP4 MLOAD DUP1 DUP6 ADD DUP6 MSTORE PUSH1 0x7 DUP2 MSTORE PUSH7 0x4D2E766964656F PUSH1 0xC8 SHL SWAP2 DUP2 ADD SWAP2 SWAP1 SWAP2 MSTORE SWAP3 DUP3 ADD SWAP3 DUP4 MSTORE PUSH1 0x3 DUP1 SLOAD PUSH1 0x1 DUP2 ADD DUP3 SSTORE PUSH1 0x0 DUP3 SWAP1 MSTORE DUP4 MLOAD SWAP2 MUL PUSH32 0xC2575A0E9E593C00F959F8C92F12DB2869C3395A3B0502D05E2516446F71F85B DUP2 ADD SWAP2 DUP3 SSTORE SWAP2 MLOAD PUSH32 0xC2575A0E9E593C00F959F8C92F12DB2869C3395A3B0502D05E2516446F71F85C DUP4 ADD DUP1 SLOAD PUSH1 0x1 PUSH1 0x1 PUSH1 0xA0 SHL SUB SWAP3 SWAP1 SWAP3 AND PUSH1 0x1 PUSH1 0x1 PUSH1 0xA0 SHL SUB NOT SWAP1 SWAP3 AND SWAP2 SWAP1 SWAP2 OR SWAP1 SSTORE SWAP3 MLOAD SWAP2 SWAP4 POP PUSH32 0xC2575A0E9E593C00F959F8C92F12DB2869C3395A3B0502D05E2516446F71F85D ADD SWAP1 PUSH3 0x21F SWAP1 DUP3 PUSH3 0x627 JUMP JUMPDEST POP POP PUSH1 0x40 DUP1 MLOAD PUSH1 0x60 DUP2 ADD DUP3 MSTORE PUSH1 0x1 DUP1 DUP3 MSTORE PUSH8 0xDE0B6B3A7640000 PUSH1 0x20 DUP4 ADD SWAP1 DUP2 MSTORE PUSH1 0x64 DUP4 DUP6 ADD SWAP1 DUP2 MSTORE PUSH1 0x4 DUP1 SLOAD DUP1 DUP6 ADD DUP3 SSTORE PUSH1 0x0 DUP3 DUP2 MSTORE SWAP6 MLOAD PUSH32 0x8A35ACFBC15FF81A39AE7D344FD709F28E8600B4AA8C65C6B64BFE7FE36BD19B PUSH1 0x3 SWAP1 SWAP3 MUL SWAP2 DUP3 ADD SSTORE SWAP3 MLOAD PUSH32 0x8A35ACFBC15FF81A39AE7D344FD709F28E8600B4AA8C65C6B64BFE7FE36BD19C DUP5 ADD SSTORE SWAP1 MLOAD PUSH32 0x8A35ACFBC15FF81A39AE7D344FD709F28E8600B4AA8C65C6B64BFE7FE36BD19D SWAP1 SWAP3 ADD SWAP2 SWAP1 SWAP2 SSTORE DUP4 MLOAD PUSH1 0x80 DUP2 ADD SWAP1 SWAP5 MSTORE DUP1 SLOAD SWAP2 SWAP5 POP DUP4 SWAP3 SWAP1 SWAP2 PUSH3 0x2F3 JUMPI PUSH3 0x2F3 PUSH3 0x6F3 JUMP JUMPDEST SWAP1 PUSH1 0x0 MSTORE PUSH1 0x20 PUSH1 0x0 KECCAK256 SWAP1 PUSH1 0x3 MUL ADD PUSH1 0x0 ADD SLOAD DUP2 MSTORE PUSH1 0x20 ADD PUSH1 0x1 DUP2 MSTORE PUSH1 0x20 ADD PUSH1 0x4 PUSH1 0x0 DUP2 SLOAD DUP2 LT PUSH3 0x328 JUMPI PUSH3 0x328 PUSH3 0x6F3 JUMP JUMPDEST SWAP1 PUSH1 0x0 MSTORE PUSH1 0x20 PUSH1 0x0 KECCAK256 SWAP1 PUSH1 0x3 MUL ADD PUSH1 0x1 ADD SLOAD PUSH1 0x2 PUSH3 0x348 SWAP2 SWAP1 PUSH3 0x709 JUMP JUMPDEST DUP2 MSTORE PUSH1 0x14 PUSH1 0x20 SWAP2 DUP3 ADD MSTORE DUP3 SLOAD PUSH1 0x1 DUP2 DUP2 ADD DUP6 SSTORE PUSH1 0x0 SWAP5 DUP6 MSTORE DUP3 DUP6 KECCAK256 DUP5 MLOAD PUSH1 0x4 SWAP4 DUP5 MUL SWAP1 SWAP2 ADD SWAP1 DUP2 SSTORE DUP5 DUP5 ADD MLOAD DUP2 DUP4 ADD SSTORE PUSH1 0x40 DUP1 DUP7 ADD MLOAD PUSH1 0x2 DUP1 DUP5 ADD SWAP2 SWAP1 SWAP2 SSTORE PUSH1 0x60 SWAP7 DUP8 ADD MLOAD PUSH1 0x3 SWAP1 SWAP4 ADD SWAP3 SWAP1 SWAP3 SSTORE DUP1 MLOAD PUSH1 0x80 DUP2 ADD DUP3 MSTORE DUP4 DUP2 MSTORE DUP2 MLOAD DUP1 DUP4 ADD DUP4 MSTORE PUSH1 0x6 DUP1 DUP3 MSTORE PUSH6 0x536872696D7 PUSH1 0xD4 SHL DUP3 DUP10 ADD MSTORE DUP3 DUP9 ADD SWAP2 DUP3 MSTORE DUP4 MLOAD DUP1 DUP6 ADD DUP6 MSTORE SWAP1 DUP2 MSTORE PUSH6 0x2232B9B1B917 PUSH1 0xD1 SHL SWAP8 DUP2 ADD SWAP8 SWAP1 SWAP8 MSTORE SWAP2 DUP2 ADD SWAP6 SWAP1 SWAP6 MSTORE PUSH1 0x5 SWAP6 DUP6 ADD SWAP6 SWAP1 SWAP6 MSTORE DUP1 SLOAD SWAP2 DUP3 ADD DUP2 SSTORE SWAP1 SWAP5 MSTORE DUP2 MLOAD SWAP4 MUL PUSH32 0x405787FA12A823E0F2B7631CC41B3BA8828B3321CA811111FA75CD3AA3BB5ACE DUP2 ADD SWAP4 DUP5 SSTORE SWAP2 MLOAD SWAP1 SWAP3 SWAP2 PUSH32 0x405787FA12A823E0F2B7631CC41B3BA8828B3321CA811111FA75CD3AA3BB5ACF ADD SWAP1 PUSH3 0x454 SWAP1 DUP3 PUSH3 0x627 JUMP JUMPDEST POP PUSH1 0x40 DUP3 ADD MLOAD PUSH1 0x2 DUP3 ADD SWAP1 PUSH3 0x46B SWAP1 DUP3 PUSH3 0x627 JUMP JUMPDEST POP PUSH1 0x60 SWAP2 DUP3 ADD MLOAD PUSH1 0x3 SWAP2 DUP3 ADD SSTORE PUSH1 0x40 DUP1 MLOAD PUSH1 0xA0 DUP2 ADD DUP3 MSTORE SWAP3 DUP4 ADD DUP3 DUP2 MSTORE PUSH3 0x444E53 PUSH1 0xE8 SHL PUSH1 0x80 DUP6 ADD MSTORE DUP4 MSTORE PUSH20 0xDD870FA1B7C4700F2BD7F44238821C26F7392148 PUSH1 0x20 DUP5 ADD MSTORE PUSH1 0x0 SWAP1 DUP4 ADD DUP2 SWAP1 MSTORE DUP1 SLOAD PUSH1 0x1 DUP2 ADD DUP3 SSTORE SWAP1 DUP1 MSTORE DUP3 MLOAD SWAP2 MUL PUSH32 0x290DECD9548B62A8D60345A988386FC84BA6BC95484008F6362F93160EF3E563 ADD SWAP1 DUP2 SWAP1 PUSH3 0x4F8 SWAP1 DUP3 PUSH3 0x627 JUMP JUMPDEST POP PUSH1 0x20 DUP3 ADD MLOAD DUP2 PUSH1 0x1 ADD PUSH1 0x0 PUSH2 0x100 EXP DUP2 SLOAD DUP2 PUSH1 0x1 PUSH1 0x1 PUSH1 0xA0 SHL SUB MUL NOT AND SWAP1 DUP4 PUSH1 0x1 PUSH1 0x1 PUSH1 0xA0 SHL SUB AND MUL OR SWAP1 SSTORE POP PUSH1 0x40 DUP3 ADD MLOAD DUP2 PUSH1 0x2 ADD SSTORE POP POP PUSH1 0x0 PUSH1 0x13 PUSH1 0x0 DUP1 PUSH1 0x0 DUP2 SLOAD DUP2 LT PUSH3 0x54E JUMPI PUSH3 0x54E PUSH3 0x6F3 JUMP JUMPDEST PUSH1 0x0 SWAP2 DUP3 MSTORE PUSH1 0x20 DUP1 DUP4 KECCAK256 PUSH1 0x1 PUSH1 0x3 SWAP1 SWAP4 MUL ADD SWAP2 SWAP1 SWAP2 ADD SLOAD PUSH1 0x1 PUSH1 0x1 PUSH1 0xA0 SHL SUB AND DUP4 MSTORE DUP3 ADD SWAP3 SWAP1 SWAP3 MSTORE PUSH1 0x40 ADD SWAP1 KECCAK256 SSTORE PUSH3 0x735 JUMP JUMPDEST PUSH4 0x4E487B71 PUSH1 0xE0 SHL PUSH1 0x0 MSTORE PUSH1 0x41 PUSH1 0x4 MSTORE PUSH1 0x24 PUSH1 0x0 REVERT JUMPDEST PUSH1 0x1 DUP2 DUP2 SHR SWAP1 DUP3 AND DUP1 PUSH3 0x5AD JUMPI PUSH1 0x7F DUP3 AND SWAP2 POP JUMPDEST PUSH1 0x20 DUP3 LT DUP2 SUB PUSH3 0x5CE JUMPI PUSH4 0x4E487B71 PUSH1 0xE0 SHL PUSH1 0x0 MSTORE PUSH1 0x22 PUSH1 0x4 MSTORE PUSH1 0x24 PUSH1 0x0 REVERT JUMPDEST POP SWAP2 SWAP1 POP JUMP JUMPDEST PUSH1 0x1F DUP3 GT ISZERO PUSH3 0x622 JUMPI PUSH1 0x0 DUP2 DUP2 MSTORE PUSH1 0x20 DUP2 KECCAK256 PUSH1 0x1F DUP6 ADD PUSH1 0x5 SHR DUP2 ADD PUSH1 0x20 DUP7 LT ISZERO PUSH3 0x5FD JUMPI POP DUP1 JUMPDEST PUSH1 0x1F DUP6 ADD PUSH1 0x5 SHR DUP3 ADD SWAP2 POP JUMPDEST DUP2 DUP2 LT ISZERO PUSH3 0x61E JUMPI DUP3 DUP2 SSTORE PUSH1 0x1 ADD PUSH3 0x609 JUMP JUMPDEST POP POP POP JUMPDEST POP POP POP JUMP JUMPDEST DUP2 MLOAD PUSH1 0x1 PUSH1 0x1 PUSH1 0x40 SHL SUB DUP2 GT ISZERO PUSH3 0x643 JUMPI PUSH3 0x643 PUSH3 0x582 JUMP JUMPDEST PUSH3 0x65B DUP2 PUSH3 0x654 DUP5 SLOAD PUSH3 0x598 JUMP JUMPDEST DUP5 PUSH3 0x5D4 JUMP JUMPDEST PUSH1 0x20 DUP1 PUSH1 0x1F DUP4 GT PUSH1 0x1 DUP2 EQ PUSH3 0x693 JUMPI PUSH1 0x0 DUP5 ISZERO PUSH3 0x67A JUMPI POP DUP6 DUP4 ADD MLOAD JUMPDEST PUSH1 0x0 NOT PUSH1 0x3 DUP7 SWAP1 SHL SHR NOT AND PUSH1 0x1 DUP6 SWAP1 SHL OR DUP6 SSTORE PUSH3 0x61E JUMP JUMPDEST PUSH1 0x0 DUP6 DUP2 MSTORE PUSH1 0x20 DUP2 KECCAK256 PUSH1 0x1F NOT DUP7 AND SWAP2 JUMPDEST DUP3 DUP2 LT ISZERO PUSH3 0x6C4 JUMPI DUP9 DUP7 ADD MLOAD DUP3 SSTORE SWAP5 DUP5 ADD SWAP5 PUSH1 0x1 SWAP1 SWAP2 ADD SWAP1 DUP5 ADD PUSH3 0x6A3 JUMP JUMPDEST POP DUP6 DUP3 LT ISZERO PUSH3 0x6E3 JUMPI DUP8 DUP6 ADD MLOAD PUSH1 0x0 NOT PUSH1 0x3 DUP9 SWAP1 SHL PUSH1 0xF8 AND SHR NOT AND DUP2 SSTORE JUMPDEST POP POP POP POP POP PUSH1 0x1 SWAP1 DUP2 SHL ADD SWAP1 SSTORE POP JUMP JUMPDEST PUSH4 0x4E487B71 PUSH1 0xE0 SHL PUSH1 0x0 MSTORE PUSH1 0x32 PUSH1 0x4 MSTORE PUSH1 0x24 PUSH1 0x0 REVERT JUMPDEST DUP1 DUP3 MUL DUP2 ISZERO DUP3 DUP3 DIV DUP5 EQ OR PUSH3 0x72F JUMPI PUSH4 0x4E487B71 PUSH1 0xE0 SHL PUSH1 0x0 MSTORE PUSH1 0x11 PUSH1 0x4 MSTORE PUSH1 0x24 PUSH1 0x0 REVERT JUMPDEST SWAP3 SWAP2 POP POP JUMP JUMPDEST PUSH2 0x3BAD DUP1 PUSH3 0x745 PUSH1 0x0 CODECOPY PUSH1 0x0 RETURN INVALID PUSH1 0x80 PUSH1 0x40 MSTORE PUSH1 0x4 CALLDATASIZE LT PUSH2 0x9C JUMPI PUSH1 0x0 CALLDATALOAD PUSH1 0xE0 SHR DUP1 PUSH4 0xD2CEDF04 GT PUSH2 0x64 JUMPI DUP1 PUSH4 0xD2CEDF04 EQ PUSH2 0x11E JUMPI DUP1 PUSH4 0xD9BD29D4 EQ PUSH2 0x131 JUMPI DUP1 PUSH4 0xDB9C5571 EQ PUSH2 0x151 JUMPI DUP1 PUSH4 0xDD26D4D9 EQ PUSH2 0x171 JUMPI DUP1 PUSH4 0xDF8903D8 EQ PUSH2 0x184 JUMPI DUP1 PUSH4 0xEB277CF9 EQ PUSH2 0x197 JUMPI PUSH1 0x0 DUP1 REVERT JUMPDEST DUP1 PUSH4 0x62CC01E7 EQ PUSH2 0xA1 JUMPI DUP1 PUSH4 0xAB166BE6 EQ PUSH2 0xB6 JUMPI DUP1 PUSH4 0xB107CBCE EQ PUSH2 0xC9 JUMPI DUP1 PUSH4 0xBF6C0B48 EQ PUSH2 0xE9 JUMPI DUP1 PUSH4 0xD0CCD213 EQ PUSH2 0x109 JUMPI JUMPDEST PUSH1 0x0 DUP1 REVERT JUMPDEST PUSH2 0xB4 PUSH2 0xAF CALLDATASIZE PUSH1 0x4 PUSH2 0x341B JUMP JUMPDEST PUSH2 0x1B7 JUMP JUMPDEST STOP JUMPDEST PUSH2 0xB4 PUSH2 0xC4 CALLDATASIZE PUSH1 0x4 PUSH2 0x3452 JUMP JUMPDEST PUSH2 0x57D JUMP JUMPDEST CALLVALUE DUP1 ISZERO PUSH2 0xD5 JUMPI PUSH1 0x0 DUP1 REVERT JUMPDEST POP PUSH2 0xB4 PUSH2 0xE4 CALLDATASIZE PUSH1 0x4 PUSH2 0x341B JUMP JUMPDEST PUSH2 0x943 JUMP JUMPDEST CALLVALUE DUP1 ISZERO PUSH2 0xF5 JUMPI PUSH1 0x0 DUP1 REVERT JUMPDEST POP PUSH2 0xB4 PUSH2 0x104 CALLDATASIZE PUSH1 0x4 PUSH2 0x347C JUMP JUMPDEST PUSH2 0xAFE JUMP JUMPDEST CALLVALUE DUP1 ISZERO PUSH2 0x115 JUMPI PUSH1 0x0 DUP1 REVERT JUMPDEST POP PUSH2 0xB4 PUSH2 0xD0B JUMP JUMPDEST PUSH2 0xB4 PUSH2 0x12C CALLDATASIZE PUSH1 0x4 PUSH2 0x34A5 JUMP JUMPDEST PUSH2 0xEFC JUMP JUMPDEST CALLVALUE DUP1 ISZERO PUSH2 0x13D JUMPI PUSH1 0x0 DUP1 REVERT JUMPDEST POP PUSH2 0xB4 PUSH2 0x14C CALLDATASIZE PUSH1 0x4 PUSH2 0x3561 JUMP JUMPDEST PUSH2 0x104C JUMP JUMPDEST CALLVALUE DUP1 ISZERO PUSH2 0x15D JUMPI PUSH1 0x0 DUP1 REVERT JUMPDEST POP PUSH2 0xB4 PUSH2 0x16C CALLDATASIZE PUSH1 0x4 PUSH2 0x35B5 JUMP JUMPDEST PUSH2 0x1166 JUMP JUMPDEST PUSH2 0xB4 PUSH2 0x17F CALLDATASIZE PUSH1 0x4 PUSH2 0x360F JUMP JUMPDEST PUSH2 0x182E JUMP JUMPDEST PUSH2 0xB4 PUSH2 0x192 CALLDATASIZE PUSH1 0x4 PUSH2 0x363B JUMP JUMPDEST PUSH2 0x1AE7 JUMP JUMPDEST CALLVALUE DUP1 ISZERO PUSH2 0x1A3 JUMPI PUSH1 0x0 DUP1 REVERT JUMPDEST POP PUSH2 0xB4 PUSH2 0x1B2 CALLDATASIZE PUSH1 0x4 PUSH2 0x34A5 JUMP JUMPDEST PUSH2 0x21FC JUMP JUMPDEST PUSH1 0x0 DUP1 JUMPDEST PUSH1 0x0 SLOAD DUP2 LT ISZERO PUSH2 0x21B JUMPI CALLER PUSH1 0x1 PUSH1 0x1 PUSH1 0xA0 SHL SUB AND PUSH1 0x0 DUP3 DUP2 SLOAD DUP2 LT PUSH2 0x1E2 JUMPI PUSH2 0x1E2 PUSH2 0x3670 JUMP JUMPDEST PUSH1 0x0 SWAP2 DUP3 MSTORE PUSH1 0x20 SWAP1 SWAP2 KECCAK256 PUSH1 0x1 PUSH1 0x3 SWAP1 SWAP3 MUL ADD ADD SLOAD PUSH1 0x1 PUSH1 0x1 PUSH1 0xA0 SHL SUB AND SUB PUSH2 0x209 JUMPI PUSH1 0x1 SWAP2 POP JUMPDEST DUP1 PUSH2 0x213 DUP2 PUSH2 0x369C JUMP JUMPDEST SWAP2 POP POP PUSH2 0x1BB JUMP JUMPDEST POP PUSH1 0x1 DUP2 ISZERO ISZERO EQ PUSH2 0x247 JUMPI PUSH1 0x40 MLOAD PUSH3 0x461BCD PUSH1 0xE5 SHL DUP2 MSTORE PUSH1 0x4 ADD PUSH2 0x23E SWAP1 PUSH2 0x36B5 JUMP JUMPDEST PUSH1 0x40 MLOAD DUP1 SWAP2 SUB SWAP1 REVERT JUMPDEST PUSH1 0x6 SLOAD DUP4 SWAP1 DUP2 LT PUSH2 0x26A JUMPI PUSH1 0x40 MLOAD PUSH3 0x461BCD PUSH1 0xE5 SHL DUP2 MSTORE PUSH1 0x4 ADD PUSH2 0x23E SWAP1 PUSH2 0x36E3 JUMP JUMPDEST CALLVALUE PUSH1 0x6 DUP6 DUP2 SLOAD DUP2 LT PUSH2 0x27E JUMPI PUSH2 0x27E PUSH2 0x3670 JUMP JUMPDEST SWAP1 PUSH1 0x0 MSTORE PUSH1 0x20 PUSH1 0x0 KECCAK256 SWAP1 PUSH1 0x8 MUL ADD PUSH1 0x4 ADD SLOAD PUSH1 0x1 DUP1 PUSH1 0x6 DUP9 DUP2 SLOAD DUP2 LT PUSH2 0x2A6 JUMPI PUSH2 0x2A6 PUSH2 0x3670 JUMP JUMPDEST SWAP1 PUSH1 0x0 MSTORE PUSH1 0x20 PUSH1 0x0 KECCAK256 SWAP1 PUSH1 0x8 MUL ADD PUSH1 0x3 ADD SLOAD PUSH2 0x2C2 SWAP2 SWAP1 PUSH2 0x3726 JUMP JUMPDEST DUP2 SLOAD DUP2 LT PUSH2 0x2D2 JUMPI PUSH2 0x2D2 PUSH2 0x3670 JUMP JUMPDEST SWAP1 PUSH1 0x0 MSTORE PUSH1 0x20 PUSH1 0x0 KECCAK256 SWAP1 PUSH1 0x4 MUL ADD PUSH1 0x2 ADD SLOAD PUSH2 0x2EE SWAP2 SWAP1 PUSH2 0x3739 JUMP JUMPDEST GT ISZERO PUSH2 0x355 JUMPI PUSH1 0x40 MLOAD PUSH3 0x461BCD PUSH1 0xE5 SHL DUP2 MSTORE PUSH1 0x20 PUSH1 0x4 DUP3 ADD MSTORE PUSH1 0x30 PUSH1 0x24 DUP3 ADD MSTORE PUSH32 0x596F7520646F6E6074206861766520656E6F756768206D6F6E657920746F2070 PUSH1 0x44 DUP3 ADD MSTORE PUSH16 0x617920746F2074686973206465627421 PUSH1 0x80 SHL PUSH1 0x64 DUP3 ADD MSTORE PUSH1 0x84 ADD PUSH2 0x23E JUMP JUMPDEST CALLER PUSH1 0x0 SWAP1 DUP2 MSTORE PUSH1 0x16 PUSH1 0x20 SWAP1 DUP2 MSTORE PUSH1 0x40 DUP1 DUP4 KECCAK256 DUP1 SLOAD DUP3 MLOAD DUP2 DUP6 MUL DUP2 ADD DUP6 ADD SWAP1 SWAP4 MSTORE DUP1 DUP4 MSTORE SWAP2 SWAP3 SWAP1 SWAP2 SWAP1 DUP4 ADD DUP3 DUP3 DUP1 ISZERO PUSH2 0x3B6 JUMPI PUSH1 0x20 MUL DUP3 ADD SWAP2 SWAP1 PUSH1 0x0 MSTORE PUSH1 0x20 PUSH1 0x0 KECCAK256 SWAP1 JUMPDEST DUP2 SLOAD PUSH1 0x1 PUSH1 0x1 PUSH1 0xA0 SHL SUB AND DUP2 MSTORE PUSH1 0x1 SWAP1 SWAP2 ADD SWAP1 PUSH1 0x20 ADD DUP1 DUP4 GT PUSH2 0x398 JUMPI JUMPDEST POP POP POP POP POP SWAP1 POP PUSH1 0x0 PUSH1 0x6 DUP7 DUP2 SLOAD DUP2 LT PUSH2 0x3D2 JUMPI PUSH2 0x3D2 PUSH2 0x3670 JUMP JUMPDEST PUSH1 0x0 SWAP2 DUP3 MSTORE PUSH1 0x20 SWAP1 SWAP2 KECCAK256 PUSH1 0x1 PUSH1 0x8 SWAP1 SWAP3 MUL ADD ADD SLOAD SWAP1 POP PUSH1 0x5 PUSH1 0x6 DUP8 DUP2 SLOAD DUP2 LT PUSH2 0x3FD JUMPI PUSH2 0x3FD PUSH2 0x3670 JUMP JUMPDEST PUSH1 0x0 SWAP2 DUP3 MSTORE PUSH1 0x20 SWAP1 SWAP2 KECCAK256 PUSH1 0x6 PUSH1 0x8 SWAP1 SWAP3 MUL ADD ADD SLOAD PUSH1 0xFF AND PUSH1 0x5 DUP2 GT ISZERO PUSH2 0x425 JUMPI PUSH2 0x425 PUSH2 0x3750 JUMP JUMPDEST EQ PUSH2 0x472 JUMPI PUSH1 0x40 MLOAD PUSH3 0x461BCD PUSH1 0xE5 SHL DUP2 MSTORE PUSH1 0x20 PUSH1 0x4 DUP3 ADD DUP2 SWAP1 MSTORE PUSH1 0x24 DUP3 ADD MSTORE PUSH32 0x596F75206861766520616C726561647920706169642074686973206465627421 PUSH1 0x44 DUP3 ADD MSTORE PUSH1 0x64 ADD PUSH2 0x23E JUMP JUMPDEST DUP2 DUP2 DUP2 MLOAD DUP2 LT PUSH2 0x484 JUMPI PUSH2 0x484 PUSH2 0x3670 JUMP JUMPDEST PUSH1 0x20 MUL PUSH1 0x20 ADD ADD MLOAD PUSH1 0x1 PUSH1 0x1 PUSH1 0xA0 SHL SUB AND PUSH2 0x8FC PUSH1 0xE SLOAD SWAP1 DUP2 ISZERO MUL SWAP1 PUSH1 0x40 MLOAD PUSH1 0x0 PUSH1 0x40 MLOAD DUP1 DUP4 SUB DUP2 DUP6 DUP9 DUP9 CALL SWAP4 POP POP POP POP ISZERO DUP1 ISZERO PUSH2 0x4C6 JUMPI RETURNDATASIZE PUSH1 0x0 DUP1 RETURNDATACOPY RETURNDATASIZE PUSH1 0x0 REVERT JUMPDEST POP PUSH1 0x5 PUSH1 0x6 DUP8 DUP2 SLOAD DUP2 LT PUSH2 0x4DC JUMPI PUSH2 0x4DC PUSH2 0x3670 JUMP JUMPDEST PUSH1 0x0 SWAP2 DUP3 MSTORE PUSH1 0x20 SWAP1 SWAP2 KECCAK256 PUSH1 0x6 PUSH1 0x8 SWAP1 SWAP3 MUL ADD ADD DUP1 SLOAD PUSH1 0xFF NOT AND PUSH1 0x1 DUP4 PUSH1 0x5 DUP2 GT ISZERO PUSH2 0x509 JUMPI PUSH2 0x509 PUSH2 0x3750 JUMP JUMPDEST MUL OR SWAP1 SSTORE POP DUP2 DUP2 DUP2 MLOAD DUP2 LT PUSH2 0x520 JUMPI PUSH2 0x520 PUSH2 0x3670 JUMP JUMPDEST PUSH1 0x20 MUL PUSH1 0x20 ADD ADD PUSH1 0x0 PUSH1 0x1 PUSH1 0x1 PUSH1 0xA0 SHL SUB AND DUP2 MSTORE POP PUSH1 0xE SLOAD PUSH1 0x0 DUP7 DUP2 SLOAD DUP2 LT PUSH2 0x54B JUMPI PUSH2 0x54B PUSH2 0x3670 JUMP JUMPDEST SWAP1 PUSH1 0x0 MSTORE PUSH1 0x20 PUSH1 0x0 KECCAK256 SWAP1 PUSH1 0x3 MUL ADD PUSH1 0x2 ADD PUSH1 0x0 DUP3 DUP3 SLOAD PUSH2 0x56B SWAP2 SWAP1 PUSH2 0x3726 JUMP JUMPDEST SWAP1 SWAP2 SSTORE POP POP PUSH1 0x0 PUSH1 0xE SSTORE POP POP POP POP POP POP JUMP JUMPDEST PUSH1 0x0 DUP1 JUMPDEST PUSH1 0x0 SLOAD DUP2 LT ISZERO PUSH2 0x5E1 JUMPI CALLER PUSH1 0x1 PUSH1 0x1 PUSH1 0xA0 SHL SUB AND PUSH1 0x0 DUP3 DUP2 SLOAD DUP2 LT PUSH2 0x5A8 JUMPI PUSH2 0x5A8 PUSH2 0x3670 JUMP JUMPDEST PUSH1 0x0 SWAP2 DUP3 MSTORE PUSH1 0x20 SWAP1 SWAP2 KECCAK256 PUSH1 0x1 PUSH1 0x3 SWAP1 SWAP3 MUL ADD ADD SLOAD PUSH1 0x1 PUSH1 0x1 PUSH1 0xA0 SHL SUB AND SUB PUSH2 0x5CF JUMPI PUSH1 0x1 SWAP2 POP JUMPDEST DUP1 PUSH2 0x5D9 DUP2 PUSH2 0x369C JUMP JUMPDEST SWAP2 POP POP PUSH2 0x581 JUMP JUMPDEST POP PUSH1 0x1 DUP2 ISZERO ISZERO EQ PUSH2 0x604 JUMPI PUSH1 0x40 MLOAD PUSH3 0x461BCD PUSH1 0xE5 SHL DUP2 MSTORE PUSH1 0x4 ADD PUSH2 0x23E SWAP1 PUSH2 0x36B5 JUMP JUMPDEST PUSH1 0x0 PUSH1 0x6 DUP4 DUP2 SLOAD DUP2 LT PUSH2 0x619 JUMPI PUSH2 0x619 PUSH2 0x3670 JUMP JUMPDEST PUSH1 0x0 SWAP2 DUP3 MSTORE PUSH1 0x20 SWAP1 SWAP2 KECCAK256 PUSH1 0x6 PUSH1 0x8 SWAP1 SWAP3 MUL ADD ADD SLOAD PUSH1 0xFF AND PUSH1 0x5 DUP2 GT ISZERO PUSH2 0x641 JUMPI PUSH2 0x641 PUSH2 0x3750 JUMP JUMPDEST EQ PUSH2 0x69E JUMPI PUSH1 0x40 MLOAD PUSH3 0x461BCD PUSH1 0xE5 SHL DUP2 MSTORE PUSH1 0x20 PUSH1 0x4 DUP3 ADD MSTORE PUSH1 0x27 PUSH1 0x24 DUP3 ADD MSTORE PUSH32 0x596F7520636F6E6669726D65642F63616E63656C65642074686973206F726465 PUSH1 0x44 DUP3 ADD MSTORE PUSH7 0x72206561726C79 PUSH1 0xC8 SHL PUSH1 0x64 DUP3 ADD MSTORE PUSH1 0x84 ADD PUSH2 0x23E JUMP JUMPDEST DUP3 ISZERO ISZERO PUSH1 0x1 SUB PUSH2 0x72A JUMPI PUSH1 0x0 PUSH2 0x6B2 PUSH2 0x2812 JUMP JUMPDEST SWAP1 POP DUP1 PUSH1 0x6 DUP5 DUP2 SLOAD DUP2 LT PUSH2 0x6C8 JUMPI PUSH2 0x6C8 PUSH2 0x3670 JUMP JUMPDEST SWAP1 PUSH1 0x0 MSTORE PUSH1 0x20 PUSH1 0x0 KECCAK256 SWAP1 PUSH1 0x8 MUL ADD PUSH1 0x7 ADD DUP2 SWAP1 SSTORE POP PUSH1 0x1 PUSH1 0x6 DUP5 DUP2 SLOAD DUP2 LT PUSH2 0x6F2 JUMPI PUSH2 0x6F2 PUSH2 0x3670 JUMP JUMPDEST PUSH1 0x0 SWAP2 DUP3 MSTORE PUSH1 0x20 SWAP1 SWAP2 KECCAK256 PUSH1 0x6 PUSH1 0x8 SWAP1 SWAP3 MUL ADD ADD DUP1 SLOAD PUSH1 0xFF NOT AND PUSH1 0x1 DUP4 PUSH1 0x5 DUP2 GT ISZERO PUSH2 0x71F JUMPI PUSH2 0x71F PUSH2 0x3750 JUMP JUMPDEST MUL OR SWAP1 SSTORE POP POP POP POP POP JUMP JUMPDEST DUP3 ISZERO ISZERO PUSH1 0x0 SUB PUSH2 0x93E JUMPI PUSH1 0x6 DUP3 DUP2 SLOAD DUP2 LT PUSH2 0x747 JUMPI PUSH2 0x747 PUSH2 0x3670 JUMP JUMPDEST SWAP1 PUSH1 0x0 MSTORE PUSH1 0x20 PUSH1 0x0 KECCAK256 SWAP1 PUSH1 0x8 MUL ADD PUSH1 0x4 ADD SLOAD PUSH1 0x1 PUSH1 0x6 DUP5 DUP2 SLOAD DUP2 LT PUSH2 0x76E JUMPI PUSH2 0x76E PUSH2 0x3670 JUMP JUMPDEST SWAP1 PUSH1 0x0 MSTORE PUSH1 0x20 PUSH1 0x0 KECCAK256 SWAP1 PUSH1 0x8 MUL ADD PUSH1 0x3 ADD SLOAD DUP2 SLOAD DUP2 LT PUSH2 0x790 JUMPI PUSH2 0x790 PUSH2 0x3670 JUMP JUMPDEST SWAP1 PUSH1 0x0 MSTORE PUSH1 0x20 PUSH1 0x0 KECCAK256 SWAP1 PUSH1 0x4 MUL ADD PUSH1 0x2 ADD SLOAD PUSH2 0x7AC SWAP2 SWAP1 PUSH2 0x3739 JUMP JUMPDEST CALLVALUE LT ISZERO PUSH2 0x7FB JUMPI PUSH1 0x40 MLOAD PUSH3 0x461BCD PUSH1 0xE5 SHL DUP2 MSTORE PUSH1 0x20 PUSH1 0x4 DUP3 ADD MSTORE PUSH1 0x1A PUSH1 0x24 DUP3 ADD MSTORE PUSH32 0x596F7520646F6E6074206861766520656E6F756768204574682E000000000000 PUSH1 0x44 DUP3 ADD MSTORE PUSH1 0x64 ADD PUSH2 0x23E JUMP JUMPDEST PUSH1 0x2 PUSH1 0x6 DUP4 DUP2 SLOAD DUP2 LT PUSH2 0x810 JUMPI PUSH2 0x810 PUSH2 0x3670 JUMP JUMPDEST PUSH1 0x0 SWAP2 DUP3 MSTORE PUSH1 0x20 SWAP1 SWAP2 KECCAK256 PUSH1 0x6 PUSH1 0x8 SWAP1 SWAP3 MUL ADD ADD DUP1 SLOAD PUSH1 0xFF NOT AND PUSH1 0x1 DUP4 PUSH1 0x5 DUP2 GT ISZERO PUSH2 0x83D JUMPI PUSH2 0x83D PUSH2 0x3750 JUMP JUMPDEST MUL OR SWAP1 SSTORE POP PUSH1 0x7 PUSH1 0x6 DUP4 DUP2 SLOAD DUP2 LT PUSH2 0x857 JUMPI PUSH2 0x857 PUSH2 0x3670 JUMP JUMPDEST SWAP1 PUSH1 0x0 MSTORE PUSH1 0x20 PUSH1 0x0 KECCAK256 SWAP1 PUSH1 0x8 MUL ADD PUSH1 0x1 ADD SLOAD DUP2 SLOAD DUP2 LT PUSH2 0x879 JUMPI PUSH2 0x879 PUSH2 0x3670 JUMP JUMPDEST PUSH1 0x0 SWAP2 DUP3 MSTORE PUSH1 0x20 SWAP1 SWAP2 KECCAK256 PUSH1 0x3 SWAP1 SWAP2 MUL ADD SLOAD PUSH1 0x6 DUP1 SLOAD PUSH1 0x1 PUSH1 0x1 PUSH1 0xA0 SHL SUB SWAP1 SWAP3 AND SWAP2 PUSH2 0x8FC SWAP2 SWAP1 DUP6 SWAP1 DUP2 LT PUSH2 0x8AF JUMPI PUSH2 0x8AF PUSH2 0x3670 JUMP JUMPDEST SWAP1 PUSH1 0x0 MSTORE PUSH1 0x20 PUSH1 0x0 KECCAK256 SWAP1 PUSH1 0x8 MUL ADD PUSH1 0x4 ADD SLOAD PUSH1 0x1 PUSH1 0x6 DUP7 DUP2 SLOAD DUP2 LT PUSH2 0x8D6 JUMPI PUSH2 0x8D6 PUSH2 0x3670 JUMP JUMPDEST SWAP1 PUSH1 0x0 MSTORE PUSH1 0x20 PUSH1 0x0 KECCAK256 SWAP1 PUSH1 0x8 MUL ADD PUSH1 0x3 ADD SLOAD DUP2 SLOAD DUP2 LT PUSH2 0x8F8 JUMPI PUSH2 0x8F8 PUSH2 0x3670 JUMP JUMPDEST SWAP1 PUSH1 0x0 MSTORE PUSH1 0x20 PUSH1 0x0 KECCAK256 SWAP1 PUSH1 0x4 MUL ADD PUSH1 0x2 ADD SLOAD PUSH2 0x914 SWAP2 SWAP1 PUSH2 0x3739 JUMP JUMPDEST PUSH1 0x40 MLOAD DUP2 ISZERO SWAP1 SWAP3 MUL SWAP2 PUSH1 0x0 DUP2 DUP2 DUP2 DUP6 DUP9 DUP9 CALL SWAP4 POP POP POP POP ISZERO DUP1 ISZERO PUSH2 0x93C JUMPI RETURNDATASIZE PUSH1 0x0 DUP1 RETURNDATACOPY RETURNDATASIZE PUSH1 0x0 REVERT JUMPDEST POP JUMPDEST POP POP POP JUMP JUMPDEST PUSH1 0x9 SLOAD PUSH1 0x1 PUSH1 0x1 PUSH1 0xA0 SHL SUB AND CALLER EQ PUSH2 0x994 JUMPI PUSH1 0x40 MLOAD PUSH3 0x461BCD PUSH1 0xE5 SHL DUP2 MSTORE PUSH1 0x20 PUSH1 0x4 DUP3 ADD MSTORE PUSH1 0x14 PUSH1 0x24 DUP3 ADD MSTORE PUSH20 0x596F75206172656E607420616E206F776E657221 PUSH1 0x60 SHL PUSH1 0x44 DUP3 ADD MSTORE PUSH1 0x64 ADD PUSH2 0x23E JUMP JUMPDEST DUP2 ISZERO DUP1 PUSH2 0x9A1 JUMPI POP DUP2 PUSH1 0x1 EQ JUMPDEST PUSH2 0xA13 JUMPI PUSH1 0x40 MLOAD PUSH3 0x461BCD PUSH1 0xE5 SHL DUP2 MSTORE PUSH1 0x20 PUSH1 0x4 DUP3 ADD MSTORE PUSH1 0x3F PUSH1 0x24 DUP3 ADD MSTORE PUSH32 0x596F752077726F746520612077726F6E6720636F6E6669726D2F72656A656374 PUSH1 0x44 DUP3 ADD MSTORE PUSH32 0x20636F6465212030202D2072656A6563742C2031202D20636F6E6669726D2100 PUSH1 0x64 DUP3 ADD MSTORE PUSH1 0x84 ADD PUSH2 0x23E JUMP JUMPDEST DUP1 PUSH1 0x0 SUB PUSH2 0xA40 JUMPI PUSH2 0xA3C PUSH1 0x40 MLOAD DUP1 PUSH1 0x60 ADD PUSH1 0x40 MSTORE DUP1 PUSH1 0x24 DUP2 MSTORE PUSH1 0x20 ADD PUSH2 0x3B54 PUSH1 0x24 SWAP2 CODECOPY PUSH2 0x2826 JUMP JUMPDEST POP POP JUMP JUMPDEST PUSH2 0xAF6 DUP3 PUSH1 0x5 DUP5 DUP2 SLOAD DUP2 LT PUSH2 0xA57 JUMPI PUSH2 0xA57 PUSH2 0x3670 JUMP JUMPDEST SWAP1 PUSH1 0x0 MSTORE PUSH1 0x20 PUSH1 0x0 KECCAK256 SWAP1 PUSH1 0x4 MUL ADD PUSH1 0x2 ADD DUP1 SLOAD PUSH2 0xA73 SWAP1 PUSH2 0x3766 JUMP JUMPDEST DUP1 PUSH1 0x1F ADD PUSH1 0x20 DUP1 SWAP2 DIV MUL PUSH1 0x20 ADD PUSH1 0x40 MLOAD SWAP1 DUP2 ADD PUSH1 0x40 MSTORE DUP1 SWAP3 SWAP2 SWAP1 DUP2 DUP2 MSTORE PUSH1 0x20 ADD DUP3 DUP1 SLOAD PUSH2 0xA9F SWAP1 PUSH2 0x3766 JUMP JUMPDEST DUP1 ISZERO PUSH2 0xAEC JUMPI DUP1 PUSH1 0x1F LT PUSH2 0xAC1 JUMPI PUSH2 0x100 DUP1 DUP4 SLOAD DIV MUL DUP4 MSTORE SWAP2 PUSH1 0x20 ADD SWAP2 PUSH2 0xAEC JUMP JUMPDEST DUP3 ADD SWAP2 SWAP1 PUSH1 0x0 MSTORE PUSH1 0x20 PUSH1 0x0 KECCAK256 SWAP1 JUMPDEST DUP2 SLOAD DUP2 MSTORE SWAP1 PUSH1 0x1 ADD SWAP1 PUSH1 0x20 ADD DUP1 DUP4 GT PUSH2 0xACF JUMPI DUP3 SWAP1 SUB PUSH1 0x1F AND DUP3 ADD SWAP2 JUMPDEST POP POP POP POP POP PUSH2 0x2869 JUMP JUMPDEST PUSH2 0xA3C PUSH2 0x2C11 JUMP JUMPDEST PUSH1 0x0 JUMPDEST PUSH1 0x3 SLOAD DUP2 LT ISZERO PUSH2 0xB74 JUMPI CALLER PUSH1 0x1 PUSH1 0x1 PUSH1 0xA0 SHL SUB AND PUSH1 0x3 DUP3 DUP2 SLOAD DUP2 LT PUSH2 0xB28 JUMPI PUSH2 0xB28 PUSH2 0x3670 JUMP JUMPDEST PUSH1 0x0 SWAP2 DUP3 MSTORE PUSH1 0x20 SWAP1 SWAP2 KECCAK256 PUSH1 0x1 PUSH1 0x3 SWAP1 SWAP3 MUL ADD ADD SLOAD PUSH1 0x1 PUSH1 0x1 PUSH1 0xA0 SHL SUB AND SUB PUSH2 0xB62 JUMPI PUSH1 0x40 MLOAD PUSH3 0x461BCD PUSH1 0xE5 SHL DUP2 MSTORE PUSH1 0x4 ADD PUSH2 0x23E SWAP1 PUSH2 0x37A0 JUMP JUMPDEST DUP1 PUSH2 0xB6C DUP2 PUSH2 0x369C JUMP JUMPDEST SWAP2 POP POP PUSH2 0xB01 JUMP JUMPDEST POP PUSH1 0x0 JUMPDEST PUSH1 0x0 SLOAD DUP2 LT ISZERO PUSH2 0xBEB JUMPI CALLER PUSH1 0x1 PUSH1 0x1 PUSH1 0xA0 SHL SUB AND PUSH1 0x0 DUP3 DUP2 SLOAD DUP2 LT PUSH2 0xB9F JUMPI PUSH2 0xB9F PUSH2 0x3670 JUMP JUMPDEST PUSH1 0x0 SWAP2 DUP3 MSTORE PUSH1 0x20 SWAP1 SWAP2 KECCAK256 PUSH1 0x1 PUSH1 0x3 SWAP1 SWAP3 MUL ADD ADD SLOAD PUSH1 0x1 PUSH1 0x1 PUSH1 0xA0 SHL SUB AND SUB PUSH2 0xBD9 JUMPI PUSH1 0x40 MLOAD PUSH3 0x461BCD PUSH1 0xE5 SHL DUP2 MSTORE PUSH1 0x4 ADD PUSH2 0x23E SWAP1 PUSH2 0x37A0 JUMP JUMPDEST DUP1 PUSH2 0xBE3 DUP2 PUSH2 0x369C JUMP JUMPDEST SWAP2 POP POP PUSH2 0xB78 JUMP JUMPDEST POP CALLER PUSH1 0x1 PUSH1 0x1 PUSH1 0xA0 SHL SUB DUP3 AND SUB PUSH2 0xC4E JUMPI PUSH1 0x40 MLOAD PUSH3 0x461BCD PUSH1 0xE5 SHL DUP2 MSTORE PUSH1 0x20 PUSH1 0x4 DUP3 ADD MSTORE PUSH1 0x21 PUSH1 0x24 DUP3 ADD MSTORE PUSH32 0x4572726F722120596F752063616E607420696E7669746520796F757273656C66 PUSH1 0x44 DUP3 ADD MSTORE PUSH1 0x21 PUSH1 0xF8 SHL PUSH1 0x64 DUP3 ADD MSTORE PUSH1 0x84 ADD PUSH2 0x23E JUMP JUMPDEST PUSH1 0x0 PUSH2 0xC59 DUP3 PUSH2 0x2D8F JUMP JUMPDEST SWAP1 POP DUP1 ISZERO ISZERO PUSH1 0x1 SUB PUSH2 0xCBB JUMPI PUSH1 0x40 MLOAD PUSH3 0x461BCD PUSH1 0xE5 SHL DUP2 MSTORE PUSH1 0x20 PUSH1 0x4 DUP3 ADD MSTORE PUSH1 0x25 PUSH1 0x24 DUP3 ADD MSTORE PUSH32 0x4572726F7221205468697320757365722068617320616C726561647920696E76 PUSH1 0x44 DUP3 ADD MSTORE PUSH5 0x6974656421 PUSH1 0xD8 SHL PUSH1 0x64 DUP3 ADD MSTORE PUSH1 0x84 ADD PUSH2 0x23E JUMP JUMPDEST PUSH2 0xCC7 PUSH3 0xF4240 PUSH2 0x2DE2 JUMP JUMPDEST PUSH1 0x1 PUSH1 0x1 PUSH1 0xA0 SHL SUB DUP4 AND PUSH1 0x0 SWAP1 DUP2 MSTORE PUSH1 0x15 PUSH1 0x20 MSTORE PUSH1 0x40 SWAP1 KECCAK256 SSTORE PUSH2 0xCE9 DUP3 PUSH2 0x2E3C JUMP JUMPDEST PUSH1 0x1 PUSH1 0x1 PUSH1 0xA0 SHL SUB DUP3 AND PUSH1 0x0 SWAP1 DUP2 MSTORE PUSH1 0x15 PUSH1 0x20 MSTORE PUSH1 0x40 SWAP1 KECCAK256 SLOAD PUSH2 0xA3C SWAP1 PUSH2 0x2EA1 JUMP JUMPDEST PUSH1 0x9 SLOAD PUSH1 0x1 PUSH1 0x1 PUSH1 0xA0 SHL SUB AND CALLER EQ PUSH2 0xD5C JUMPI PUSH1 0x40 MLOAD PUSH3 0x461BCD PUSH1 0xE5 SHL DUP2 MSTORE PUSH1 0x20 PUSH1 0x4 DUP3 ADD MSTORE PUSH1 0x14 PUSH1 0x24 DUP3 ADD MSTORE PUSH20 0x596F75206172656E607420616E206F776E657221 PUSH1 0x60 SHL PUSH1 0x44 DUP3 ADD MSTORE PUSH1 0x64 ADD PUSH2 0x23E JUMP JUMPDEST PUSH1 0x0 JUMPDEST PUSH1 0x5 SLOAD DUP2 LT ISZERO PUSH2 0xEF9 JUMPI PUSH2 0xD8A PUSH1 0x40 MLOAD DUP1 PUSH1 0x60 ADD PUSH1 0x40 MSTORE DUP1 PUSH1 0x2B DUP2 MSTORE PUSH1 0x20 ADD PUSH2 0x3ACC PUSH1 0x2B SWAP2 CODECOPY PUSH2 0x2826 JUMP JUMPDEST PUSH2 0xDB7 PUSH1 0x5 DUP3 DUP2 SLOAD DUP2 LT PUSH2 0xDA0 JUMPI PUSH2 0xDA0 PUSH2 0x3670 JUMP JUMPDEST SWAP1 PUSH1 0x0 MSTORE PUSH1 0x20 PUSH1 0x0 KECCAK256 SWAP1 PUSH1 0x4 MUL ADD PUSH1 0x0 ADD SLOAD PUSH2 0x2EA1 JUMP JUMPDEST PUSH2 0xDEF PUSH1 0x5 DUP3 DUP2 SLOAD DUP2 LT PUSH2 0xDCD JUMPI PUSH2 0xDCD PUSH2 0x3670 JUMP JUMPDEST PUSH1 0x0 SWAP2 DUP3 MSTORE PUSH1 0x20 SWAP1 SWAP2 KECCAK256 PUSH1 0x1 PUSH1 0x4 SWAP1 SWAP3 MUL ADD ADD SLOAD PUSH1 0x1 PUSH1 0x1 PUSH1 0xA0 SHL SUB AND PUSH2 0x2EE6 JUMP JUMPDEST PUSH2 0xEA4 PUSH1 0x5 DUP3 DUP2 SLOAD DUP2 LT PUSH2 0xE05 JUMPI PUSH2 0xE05 PUSH2 0x3670 JUMP JUMPDEST SWAP1 PUSH1 0x0 MSTORE PUSH1 0x20 PUSH1 0x0 KECCAK256 SWAP1 PUSH1 0x4 MUL ADD PUSH1 0x2 ADD DUP1 SLOAD PUSH2 0xE21 SWAP1 PUSH2 0x3766 JUMP JUMPDEST DUP1 PUSH1 0x1F ADD PUSH1 0x20 DUP1 SWAP2 DIV MUL PUSH1 0x20 ADD PUSH1 0x40 MLOAD SWAP1 DUP2 ADD PUSH1 0x40 MSTORE DUP1 SWAP3 SWAP2 SWAP1 DUP2 DUP2 MSTORE PUSH1 0x20 ADD DUP3 DUP1 SLOAD PUSH2 0xE4D SWAP1 PUSH2 0x3766 JUMP JUMPDEST DUP1 ISZERO PUSH2 0xE9A JUMPI DUP1 PUSH1 0x1F LT PUSH2 0xE6F JUMPI PUSH2 0x100 DUP1 DUP4 SLOAD DIV MUL DUP4 MSTORE SWAP2 PUSH1 0x20 ADD SWAP2 PUSH2 0xE9A JUMP JUMPDEST DUP3 ADD SWAP2 SWAP1 PUSH1 0x0 MSTORE PUSH1 0x20 PUSH1 0x0 KECCAK256 SWAP1 JUMPDEST DUP2 SLOAD DUP2 MSTORE SWAP1 PUSH1 0x1 ADD SWAP1 PUSH1 0x20 ADD DUP1 DUP4 GT PUSH2 0xE7D JUMPI DUP3 SWAP1 SUB PUSH1 0x1F AND DUP3 ADD SWAP2 JUMPDEST POP POP POP POP POP PUSH2 0x2826 JUMP JUMPDEST PUSH2 0xEE7 PUSH1 0x5 DUP3 DUP2 SLOAD DUP2 LT PUSH2 0xEBA JUMPI PUSH2 0xEBA PUSH2 0x3670 JUMP JUMPDEST PUSH1 0x0 SWAP2 DUP3 MSTORE PUSH1 0x20 SWAP1 SWAP2 KECCAK256 PUSH1 0x3 PUSH1 0x4 SWAP1 SWAP3 MUL ADD DUP2 ADD SLOAD PUSH1 0xFF AND SWAP1 DUP2 GT ISZERO PUSH2 0xEE2 JUMPI PUSH2 0xEE2 PUSH2 0x3750 JUMP JUMPDEST PUSH2 0x2EA1 JUMP JUMPDEST DUP1 PUSH2 0xEF1 DUP2 PUSH2 0x369C JUMP JUMPDEST SWAP2 POP POP PUSH2 0xD5F JUMP JUMPDEST POP JUMP JUMPDEST PUSH1 0x0 DUP1 JUMPDEST PUSH1 0x0 SLOAD DUP2 LT ISZERO PUSH2 0xF60 JUMPI CALLER PUSH1 0x1 PUSH1 0x1 PUSH1 0xA0 SHL SUB AND PUSH1 0x0 DUP3 DUP2 SLOAD DUP2 LT PUSH2 0xF27 JUMPI PUSH2 0xF27 PUSH2 0x3670 JUMP JUMPDEST PUSH1 0x0 SWAP2 DUP3 MSTORE PUSH1 0x20 SWAP1 SWAP2 KECCAK256 PUSH1 0x1 PUSH1 0x3 SWAP1 SWAP3 MUL ADD ADD SLOAD PUSH1 0x1 PUSH1 0x1 PUSH1 0xA0 SHL SUB AND SUB PUSH2 0xF4E JUMPI PUSH1 0x1 SWAP2 POP JUMPDEST DUP1 PUSH2 0xF58 DUP2 PUSH2 0x369C JUMP JUMPDEST SWAP2 POP POP PUSH2 0xF00 JUMP JUMPDEST POP PUSH1 0x1 DUP2 ISZERO ISZERO EQ PUSH2 0xF83 JUMPI PUSH1 0x40 MLOAD PUSH3 0x461BCD PUSH1 0xE5 SHL DUP2 MSTORE PUSH1 0x4 ADD PUSH2 0x23E SWAP1 PUSH2 0x36B5 JUMP JUMPDEST CALLER PUSH1 0x0 SWAP1 DUP2 MSTORE PUSH1 0x16 PUSH1 0x20 MSTORE PUSH1 0x40 SWAP1 KECCAK256 SLOAD PUSH2 0xFDF JUMPI PUSH1 0x40 MLOAD PUSH3 0x461BCD PUSH1 0xE5 SHL DUP2 MSTORE PUSH1 0x20 PUSH1 0x4 DUP3 ADD MSTORE PUSH1 0x19 PUSH1 0x24 DUP3 ADD MSTORE PUSH32 0x596F7520646F6E6074206861766520616E792064656274732100000000000000 PUSH1 0x44 DUP3 ADD MSTORE PUSH1 0x64 ADD PUSH2 0x23E JUMP JUMPDEST PUSH1 0x6 SLOAD DUP3 LT PUSH2 0x1000 JUMPI PUSH1 0x40 MLOAD PUSH3 0x461BCD PUSH1 0xE5 SHL DUP2 MSTORE PUSH1 0x4 ADD PUSH2 0x23E SWAP1 PUSH2 0x36E3 JUMP JUMPDEST PUSH2 0x1033 PUSH1 0x40 MLOAD DUP1 PUSH1 0x40 ADD PUSH1 0x40 MSTORE DUP1 PUSH1 0x12 DUP2 MSTORE PUSH1 0x20 ADD PUSH18 0x2CB7BAB9103232B13A1039BAB69032BA341D PUSH1 0x71 SHL DUP2 MSTORE POP PUSH2 0x2826 JUMP JUMPDEST PUSH2 0xA3C PUSH8 0xDE0B6B3A7640000 PUSH1 0xE SLOAD PUSH2 0xEE2 SWAP2 SWAP1 PUSH2 0x37E6 JUMP JUMPDEST PUSH1 0x5 PUSH1 0x40 MLOAD DUP1 PUSH1 0x80 ADD PUSH1 0x40 MSTORE DUP1 PUSH1 0xC SLOAD DUP2 MSTORE PUSH1 0x20 ADD CALLER PUSH1 0x1 PUSH1 0x1 PUSH1 0xA0 SHL SUB AND DUP2 MSTORE PUSH1 0x20 ADD DUP4 DUP2 MSTORE PUSH1 0x20 ADD DUP5 PUSH1 0x3 DUP2 GT ISZERO PUSH2 0x1088 JUMPI PUSH2 0x1088 PUSH2 0x3750 JUMP JUMPDEST SWAP1 MSTORE DUP2 SLOAD PUSH1 0x1 DUP1 DUP3 ADD DUP5 SSTORE PUSH1 0x0 SWAP4 DUP5 MSTORE PUSH1 0x20 SWAP4 DUP5 SWAP1 KECCAK256 DUP4 MLOAD PUSH1 0x4 SWAP1 SWAP4 MUL ADD SWAP2 DUP3 SSTORE SWAP3 DUP3 ADD MLOAD SWAP3 DUP2 ADD DUP1 SLOAD PUSH1 0x1 PUSH1 0x1 PUSH1 0xA0 SHL SUB NOT AND PUSH1 0x1 PUSH1 0x1 PUSH1 0xA0 SHL SUB SWAP1 SWAP5 AND SWAP4 SWAP1 SWAP4 OR SWAP1 SWAP3 SSTORE PUSH1 0x40 DUP2 ADD MLOAD SWAP1 SWAP2 SWAP1 PUSH1 0x2 DUP3 ADD SWAP1 PUSH2 0x10E5 SWAP1 DUP3 PUSH2 0x3848 JUMP JUMPDEST POP PUSH1 0x60 DUP3 ADD MLOAD DUP2 PUSH1 0x3 ADD PUSH1 0x0 PUSH2 0x100 EXP DUP2 SLOAD DUP2 PUSH1 0xFF MUL NOT AND SWAP1 DUP4 PUSH1 0x3 DUP2 GT ISZERO PUSH2 0x1110 JUMPI PUSH2 0x1110 PUSH2 0x3750 JUMP JUMPDEST MUL OR SWAP1 SSTORE POP POP POP PUSH2 0x1142 PUSH1 0x40 MLOAD DUP1 PUSH1 0x40 ADD PUSH1 0x40 MSTORE DUP1 PUSH1 0xA DUP2 MSTORE PUSH1 0x20 ADD PUSH10 0x28BAB2B9393C9034B21D PUSH1 0xB1 SHL DUP2 MSTORE POP PUSH2 0x2826 JUMP JUMPDEST PUSH2 0x114D PUSH1 0xC SLOAD PUSH2 0x2EA1 JUMP JUMPDEST PUSH1 0xC DUP1 SLOAD SWAP1 PUSH1 0x0 PUSH2 0x115D DUP4 PUSH2 0x369C JUMP JUMPDEST SWAP2 SWAP1 POP SSTORE POP POP POP JUMP JUMPDEST PUSH1 0x0 JUMPDEST PUSH1 0x3 SLOAD DUP2 LT ISZERO PUSH2 0x11DC JUMPI CALLER PUSH1 0x1 PUSH1 0x1 PUSH1 0xA0 SHL SUB AND PUSH1 0x3 DUP3 DUP2 SLOAD DUP2 LT PUSH2 0x1190 JUMPI PUSH2 0x1190 PUSH2 0x3670 JUMP JUMPDEST PUSH1 0x0 SWAP2 DUP3 MSTORE PUSH1 0x20 SWAP1 SWAP2 KECCAK256 PUSH1 0x1 PUSH1 0x3 SWAP1 SWAP3 MUL ADD ADD SLOAD PUSH1 0x1 PUSH1 0x1 PUSH1 0xA0 SHL SUB AND SUB PUSH2 0x11CA JUMPI PUSH1 0x40 MLOAD PUSH3 0x461BCD PUSH1 0xE5 SHL DUP2 MSTORE PUSH1 0x4 ADD PUSH2 0x23E SWAP1 PUSH2 0x37A0 JUMP JUMPDEST DUP1 PUSH2 0x11D4 DUP2 PUSH2 0x369C JUMP JUMPDEST SWAP2 POP POP PUSH2 0x1169 JUMP JUMPDEST POP PUSH1 0x0 JUMPDEST PUSH1 0x0 SLOAD DUP2 LT ISZERO PUSH2 0x1253 JUMPI CALLER PUSH1 0x1 PUSH1 0x1 PUSH1 0xA0 SHL SUB AND PUSH1 0x0 DUP3 DUP2 SLOAD DUP2 LT PUSH2 0x1207 JUMPI PUSH2 0x1207 PUSH2 0x3670 JUMP JUMPDEST PUSH1 0x0 SWAP2 DUP3 MSTORE PUSH1 0x20 SWAP1 SWAP2 KECCAK256 PUSH1 0x1 PUSH1 0x3 SWAP1 SWAP3 MUL ADD ADD SLOAD PUSH1 0x1 PUSH1 0x1 PUSH1 0xA0 SHL SUB AND SUB PUSH2 0x1241 JUMPI PUSH1 0x40 MLOAD PUSH3 0x461BCD PUSH1 0xE5 SHL DUP2 MSTORE PUSH1 0x4 ADD PUSH2 0x23E SWAP1 PUSH2 0x37A0 JUMP JUMPDEST DUP1 PUSH2 0x124B DUP2 PUSH2 0x369C JUMP JUMPDEST SWAP2 POP POP PUSH2 0x11E0 JUMP JUMPDEST POP PUSH1 0x0 DUP4 PUSH1 0x1 DUP7 DUP2 SLOAD DUP2 LT PUSH2 0x126A JUMPI PUSH2 0x126A PUSH2 0x3670 JUMP JUMPDEST SWAP1 PUSH1 0x0 MSTORE PUSH1 0x20 PUSH1 0x0 KECCAK256 SWAP1 PUSH1 0x4 MUL ADD PUSH1 0x3 ADD SLOAD PUSH2 0x1286 SWAP2 SWAP1 PUSH2 0x3726 JUMP JUMPDEST LT ISZERO PUSH2 0x12EF JUMPI PUSH1 0x40 MLOAD PUSH3 0x461BCD PUSH1 0xE5 SHL DUP2 MSTORE PUSH1 0x20 PUSH1 0x4 DUP3 ADD MSTORE PUSH1 0x32 PUSH1 0x24 DUP3 ADD MSTORE PUSH32 0x536F7272792120576520646F6E6074206861766520656E6F75676820636F756E PUSH1 0x44 DUP3 ADD MSTORE PUSH18 0x74206F6620746869732070726F6475637421 PUSH1 0x70 SHL PUSH1 0x64 DUP3 ADD MSTORE PUSH1 0x84 ADD PUSH2 0x23E JUMP JUMPDEST DUP3 PUSH1 0x1 DUP6 DUP2 SLOAD DUP2 LT PUSH2 0x1303 JUMPI PUSH2 0x1303 PUSH2 0x3670 JUMP JUMPDEST SWAP1 PUSH1 0x0 MSTORE PUSH1 0x20 PUSH1 0x0 KECCAK256 SWAP1 PUSH1 0x4 MUL ADD PUSH1 0x3 ADD PUSH1 0x0 DUP3 DUP3 SLOAD PUSH2 0x1323 SWAP2 SWAP1 PUSH2 0x3726 JUMP JUMPDEST SWAP1 SWAP2 SSTORE POP POP CALLER PUSH1 0x0 SWAP1 DUP2 MSTORE PUSH1 0x12 PUSH1 0x20 MSTORE PUSH1 0x40 DUP2 KECCAK256 SLOAD SWAP1 DUP2 SWAP1 SUB PUSH2 0x142A JUMPI PUSH1 0x40 DUP1 MLOAD PUSH1 0x60 DUP2 ADD DUP3 MSTORE CALLER DUP2 MSTORE PUSH1 0x20 DUP2 ADD DUP5 DUP2 MSTORE PUSH1 0x0 SWAP3 DUP3 ADD DUP4 SWAP1 MSTORE PUSH1 0x7 DUP1 SLOAD PUSH1 0x1 DUP2 ADD DUP3 SSTORE SWAP4 MSTORE DUP2 MLOAD PUSH32 0xA66CC928B5EDB82AF9BD49922954155AB7B0942694BEA4CE44661D9A8736C688 PUSH1 0x3 SWAP1 SWAP5 MUL SWAP4 DUP5 ADD DUP1 SLOAD PUSH1 0x1 PUSH1 0x1 PUSH1 0xA0 SHL SUB NOT AND PUSH1 0x1 PUSH1 0x1 PUSH1 0xA0 SHL SUB SWAP1 SWAP3 AND SWAP2 SWAP1 SWAP2 OR DUP2 SSTORE SWAP1 MLOAD SWAP2 SWAP3 SWAP1 SWAP2 PUSH32 0xA66CC928B5EDB82AF9BD49922954155AB7B0942694BEA4CE44661D9A8736C689 SWAP1 SWAP2 ADD SWAP1 PUSH2 0x13E5 SWAP1 DUP3 PUSH2 0x3848 JUMP JUMPDEST POP PUSH1 0x40 SWAP2 SWAP1 SWAP2 ADD MLOAD PUSH1 0x2 SWAP1 SWAP2 ADD DUP1 SLOAD PUSH1 0xFF NOT AND SWAP2 ISZERO ISZERO SWAP2 SWAP1 SWAP2 OR SWAP1 SSTORE PUSH1 0xD DUP1 SLOAD SWAP1 PUSH1 0x0 PUSH2 0x1411 DUP4 PUSH2 0x369C JUMP JUMPDEST SWAP1 SWAP2 SSTORE POP POP PUSH1 0xD SLOAD CALLER PUSH1 0x0 SWAP1 DUP2 MSTORE PUSH1 0x12 PUSH1 0x20 MSTORE PUSH1 0x40 SWAP1 KECCAK256 SSTORE JUMPDEST PUSH2 0x1433 DUP6 PUSH2 0x2F2E JUMP JUMPDEST PUSH1 0xB SWAP1 PUSH2 0x1440 SWAP1 DUP3 PUSH2 0x3848 JUMP JUMPDEST POP PUSH1 0x6 PUSH1 0x40 MLOAD DUP1 PUSH2 0x100 ADD PUSH1 0x40 MSTORE DUP1 PUSH1 0xB DUP1 SLOAD PUSH2 0x145C SWAP1 PUSH2 0x3766 JUMP JUMPDEST DUP1 PUSH1 0x1F ADD PUSH1 0x20 DUP1 SWAP2 DIV MUL PUSH1 0x20 ADD PUSH1 0x40 MLOAD SWAP1 DUP2 ADD PUSH1 0x40 MSTORE DUP1 SWAP3 SWAP2 SWAP1 DUP2 DUP2 MSTORE PUSH1 0x20 ADD DUP3 DUP1 SLOAD PUSH2 0x1488 SWAP1 PUSH2 0x3766 JUMP JUMPDEST DUP1 ISZERO PUSH2 0x14D5 JUMPI DUP1 PUSH1 0x1F LT PUSH2 0x14AA JUMPI PUSH2 0x100 DUP1 DUP4 SLOAD DIV MUL DUP4 MSTORE SWAP2 PUSH1 0x20 ADD SWAP2 PUSH2 0x14D5 JUMP JUMPDEST DUP3 ADD SWAP2 SWAP1 PUSH1 0x0 MSTORE PUSH1 0x20 PUSH1 0x0 KECCAK256 SWAP1 JUMPDEST DUP2 SLOAD DUP2 MSTORE SWAP1 PUSH1 0x1 ADD SWAP1 PUSH1 0x20 ADD DUP1 DUP4 GT PUSH2 0x14B8 JUMPI DUP3 SWAP1 SUB PUSH1 0x1F AND DUP3 ADD SWAP2 JUMPDEST POP POP POP POP POP DUP2 MSTORE PUSH1 0x20 ADD PUSH1 0x1 PUSH1 0x7 DUP1 SLOAD SWAP1 POP PUSH2 0x14F1 SWAP2 SWAP1 PUSH2 0x3726 JUMP JUMPDEST DUP2 MSTORE PUSH1 0x20 ADD DUP8 DUP2 MSTORE PUSH1 0x20 ADD DUP6 DUP2 MSTORE PUSH1 0x20 ADD DUP7 DUP2 MSTORE PUSH1 0x20 ADD PUSH2 0x1512 PUSH1 0xA PUSH2 0x2DE2 JUMP JUMPDEST DUP2 MSTORE PUSH1 0x20 ADD PUSH1 0x0 DUP2 MSTORE PUSH1 0x0 PUSH1 0x20 SWAP2 DUP3 ADD DUP2 SWAP1 MSTORE DUP4 SLOAD PUSH1 0x1 DUP2 ADD DUP6 SSTORE SWAP4 DUP2 MSTORE KECCAK256 DUP2 MLOAD SWAP2 SWAP3 PUSH1 0x8 MUL ADD SWAP1 DUP2 SWAP1 PUSH2 0x1546 SWAP1 DUP3 PUSH2 0x3848 JUMP JUMPDEST POP PUSH1 0x20 DUP3 ADD MLOAD DUP2 PUSH1 0x1 ADD SSTORE PUSH1 0x40 DUP3 ADD MLOAD DUP2 PUSH1 0x2 ADD SSTORE PUSH1 0x60 DUP3 ADD MLOAD DUP2 PUSH1 0x3 ADD SSTORE PUSH1 0x80 DUP3 ADD MLOAD DUP2 PUSH1 0x4 ADD SSTORE PUSH1 0xA0 DUP3 ADD MLOAD DUP2 PUSH1 0x5 ADD SSTORE PUSH1 0xC0 DUP3 ADD MLOAD DUP2 PUSH1 0x6 ADD PUSH1 0x0 PUSH2 0x100 EXP DUP2 SLOAD DUP2 PUSH1 0xFF MUL NOT AND SWAP1 DUP4 PUSH1 0x5 DUP2 GT ISZERO PUSH2 0x15A3 JUMPI PUSH2 0x15A3 PUSH2 0x3750 JUMP JUMPDEST MUL OR SWAP1 SSTORE POP PUSH1 0xE0 DUP3 ADD MLOAD DUP2 PUSH1 0x7 ADD SSTORE POP POP PUSH1 0xB PUSH1 0x6 PUSH1 0x1 PUSH1 0x6 DUP1 SLOAD SWAP1 POP PUSH2 0x15CA SWAP2 SWAP1 PUSH2 0x3726 JUMP JUMPDEST DUP2 SLOAD DUP2 LT PUSH2 0x15DA JUMPI PUSH2 0x15DA PUSH2 0x3670 JUMP JUMPDEST SWAP1 PUSH1 0x0 MSTORE PUSH1 0x20 PUSH1 0x0 KECCAK256 SWAP1 PUSH1 0x8 MUL ADD PUSH1 0x0 ADD SWAP1 DUP2 PUSH2 0x15F7 SWAP2 SWAP1 PUSH2 0x3908 JUMP JUMPDEST POP PUSH1 0x6 DUP1 SLOAD PUSH2 0x1608 SWAP1 PUSH1 0x1 SWAP1 PUSH2 0x3726 JUMP JUMPDEST DUP2 SLOAD DUP2 LT PUSH2 0x1618 JUMPI PUSH2 0x1618 PUSH2 0x3670 JUMP JUMPDEST SWAP1 PUSH1 0x0 MSTORE PUSH1 0x20 PUSH1 0x0 KECCAK256 SWAP1 PUSH1 0x8 MUL ADD PUSH1 0x4 ADD SLOAD PUSH1 0x1 PUSH1 0x6 PUSH1 0x1 PUSH1 0x6 DUP1 SLOAD SWAP1 POP PUSH2 0x1640 SWAP2 SWAP1 PUSH2 0x3726 JUMP JUMPDEST DUP2 SLOAD DUP2 LT PUSH2 0x1650 JUMPI PUSH2 0x1650 PUSH2 0x3670 JUMP JUMPDEST SWAP1 PUSH1 0x0 MSTORE PUSH1 0x20 PUSH1 0x0 KECCAK256 SWAP1 PUSH1 0x8 MUL ADD PUSH1 0x3 ADD SLOAD DUP2 SLOAD DUP2 LT PUSH2 0x1672 JUMPI PUSH2 0x1672 PUSH2 0x3670 JUMP JUMPDEST SWAP1 PUSH1 0x0 MSTORE PUSH1 0x20 PUSH1 0x0 KECCAK256 SWAP1 PUSH1 0x4 MUL ADD PUSH1 0x2 ADD SLOAD PUSH2 0x168E SWAP2 SWAP1 PUSH2 0x3739 JUMP JUMPDEST PUSH1 0x6 SLOAD PUSH1 0x17 SWAP1 PUSH1 0x0 SWAP1 PUSH2 0x16A3 SWAP1 PUSH1 0x1 SWAP1 PUSH2 0x3726 JUMP JUMPDEST DUP2 MSTORE PUSH1 0x20 ADD SWAP1 DUP2 MSTORE PUSH1 0x20 ADD PUSH1 0x0 KECCAK256 DUP2 SWAP1 SSTORE POP PUSH2 0x16D6 PUSH1 0x40 MLOAD DUP1 PUSH1 0x60 ADD PUSH1 0x40 MSTORE DUP1 PUSH1 0x25 DUP2 MSTORE PUSH1 0x20 ADD PUSH2 0x3AF7 PUSH1 0x25 SWAP2 CODECOPY PUSH2 0x2826 JUMP JUMPDEST PUSH1 0x6 DUP1 SLOAD PUSH2 0x1712 SWAP2 SWAP1 PUSH2 0x16EB SWAP1 PUSH1 0x1 SWAP1 PUSH2 0x3726 JUMP JUMPDEST DUP2 SLOAD DUP2 LT PUSH2 0x16FB JUMPI PUSH2 0x16FB PUSH2 0x3670 JUMP JUMPDEST SWAP1 PUSH1 0x0 MSTORE PUSH1 0x20 PUSH1 0x0 KECCAK256 SWAP1 PUSH1 0x8 MUL ADD PUSH1 0x5 ADD SLOAD PUSH2 0x2EA1 JUMP JUMPDEST PUSH2 0x1740 PUSH1 0x40 MLOAD DUP1 PUSH1 0x40 ADD PUSH1 0x40 MSTORE DUP1 PUSH1 0xD DUP2 MSTORE PUSH1 0x20 ADD PUSH13 0x27B93232B910373AB6B132B91D PUSH1 0x99 SHL DUP2 MSTORE POP PUSH2 0x2826 JUMP JUMPDEST PUSH1 0x6 SLOAD PUSH2 0x1753 SWAP1 PUSH2 0xEE2 SWAP1 PUSH1 0x1 SWAP1 PUSH2 0x3726 JUMP JUMPDEST PUSH2 0x1784 PUSH1 0x40 MLOAD DUP1 PUSH1 0x40 ADD PUSH1 0x40 MSTORE DUP1 PUSH1 0x10 DUP2 MSTORE PUSH1 0x20 ADD PUSH16 0x2CB7BAB9103A3930B1B59031B7B2329D PUSH1 0x81 SHL DUP2 MSTORE POP PUSH2 0x2826 JUMP JUMPDEST PUSH2 0x1794 PUSH1 0xB DUP1 SLOAD PUSH2 0xE21 SWAP1 PUSH2 0x3766 JUMP JUMPDEST PUSH2 0x17B5 PUSH1 0x40 MLOAD DUP1 PUSH1 0x60 ADD PUSH1 0x40 MSTORE DUP1 PUSH1 0x38 DUP2 MSTORE PUSH1 0x20 ADD PUSH2 0x3B1C PUSH1 0x38 SWAP2 CODECOPY PUSH2 0x2826 JUMP JUMPDEST PUSH2 0x17BF PUSH1 0x5 PUSH2 0x2EA1 JUMP JUMPDEST PUSH2 0x17E0 PUSH1 0x40 MLOAD DUP1 PUSH1 0x60 ADD PUSH1 0x40 MSTORE DUP1 PUSH1 0x32 DUP2 MSTORE PUSH1 0x20 ADD PUSH2 0x3A9A PUSH1 0x32 SWAP2 CODECOPY PUSH2 0x2826 JUMP JUMPDEST PUSH2 0x1827 PUSH8 0x16345785D8A0000 PUSH1 0x5 PUSH1 0x17 PUSH1 0x0 PUSH1 0x1 PUSH1 0x6 DUP1 SLOAD SWAP1 POP PUSH2 0x1804 SWAP2 SWAP1 PUSH2 0x3726 JUMP JUMPDEST DUP2 MSTORE PUSH1 0x20 ADD SWAP1 DUP2 MSTORE PUSH1 0x20 ADD PUSH1 0x0 KECCAK256 SLOAD PUSH2 0x181D SWAP2 SWAP1 PUSH2 0x37E6 JUMP JUMPDEST PUSH2 0xEE2 SWAP2 SWAP1 PUSH2 0x37E6 JUMP JUMPDEST POP POP POP POP POP JUMP JUMPDEST PUSH1 0x0 DUP1 JUMPDEST PUSH1 0x0 SLOAD DUP2 LT ISZERO PUSH2 0x1892 JUMPI CALLER PUSH1 0x1 PUSH1 0x1 PUSH1 0xA0 SHL SUB AND PUSH1 0x0 DUP3 DUP2 SLOAD DUP2 LT PUSH2 0x1859 JUMPI PUSH2 0x1859 PUSH2 0x3670 JUMP JUMPDEST PUSH1 0x0 SWAP2 DUP3 MSTORE PUSH1 0x20 SWAP1 SWAP2 KECCAK256 PUSH1 0x1 PUSH1 0x3 SWAP1 SWAP3 MUL ADD ADD SLOAD PUSH1 0x1 PUSH1 0x1 PUSH1 0xA0 SHL SUB AND SUB PUSH2 0x1880 JUMPI PUSH1 0x1 SWAP2 POP JUMPDEST DUP1 PUSH2 0x188A DUP2 PUSH2 0x369C JUMP JUMPDEST SWAP2 POP POP PUSH2 0x1832 JUMP JUMPDEST POP PUSH1 0x1 DUP2 ISZERO ISZERO EQ PUSH2 0x18B5 JUMPI PUSH1 0x40 MLOAD PUSH3 0x461BCD PUSH1 0xE5 SHL DUP2 MSTORE PUSH1 0x4 ADD PUSH2 0x23E SWAP1 PUSH2 0x36B5 JUMP JUMPDEST PUSH1 0x0 DUP4 PUSH1 0x4 DUP5 DUP2 SLOAD DUP2 LT PUSH2 0x18CB JUMPI PUSH2 0x18CB PUSH2 0x3670 JUMP JUMPDEST SWAP1 PUSH1 0x0 MSTORE PUSH1 0x20 PUSH1 0x0 KECCAK256 SWAP1 PUSH1 0x3 MUL ADD PUSH1 0x2 ADD SLOAD PUSH2 0x18E7 SWAP2 SWAP1 PUSH2 0x3726 JUMP JUMPDEST LT ISZERO PUSH2 0x1941 JUMPI PUSH1 0x40 MLOAD PUSH3 0x461BCD PUSH1 0xE5 SHL DUP2 MSTORE PUSH1 0x20 PUSH1 0x4 DUP3 ADD MSTORE PUSH1 0x24 DUP1 DUP3 ADD MSTORE PUSH32 0x536F7272792C20776520646F6E6074206861766520656E6F7567682070726F64 PUSH1 0x44 DUP3 ADD MSTORE PUSH4 0x75637473 PUSH1 0xE0 SHL PUSH1 0x64 DUP3 ADD MSTORE PUSH1 0x84 ADD PUSH2 0x23E JUMP JUMPDEST CALLVALUE DUP4 PUSH1 0x4 DUP7 DUP2 SLOAD DUP2 LT PUSH2 0x1956 JUMPI PUSH2 0x1956 PUSH2 0x3670 JUMP JUMPDEST SWAP1 PUSH1 0x0 MSTORE PUSH1 0x20 PUSH1 0x0 KECCAK256 SWAP1 PUSH1 0x3 MUL ADD PUSH1 0x1 ADD SLOAD PUSH2 0x1972 SWAP2 SWAP1 PUSH2 0x3739 JUMP JUMPDEST GT ISZERO PUSH2 0x19BC JUMPI PUSH1 0x40 MLOAD PUSH3 0x461BCD PUSH1 0xE5 SHL DUP2 MSTORE PUSH1 0x20 PUSH1 0x4 DUP3 ADD MSTORE PUSH1 0x19 PUSH1 0x24 DUP3 ADD MSTORE PUSH25 0xB2DEEA40C8DEDCC0E840D0C2ECCA40CADCDEEACED0408AE8D PUSH1 0x3B SHL PUSH1 0x44 DUP3 ADD MSTORE PUSH1 0x64 ADD PUSH2 0x23E JUMP JUMPDEST PUSH1 0x3 DUP3 DUP2 SLOAD DUP2 LT PUSH2 0x19CF JUMPI PUSH2 0x19CF PUSH2 0x3670 JUMP JUMPDEST SWAP1 PUSH1 0x0 MSTORE PUSH1 0x20 PUSH1 0x0 KECCAK256 SWAP1 PUSH1 0x3 MUL ADD PUSH1 0x1 ADD PUSH1 0x0 SWAP1 SLOAD SWAP1 PUSH2 0x100 EXP SWAP1 DIV PUSH1 0x1 PUSH1 0x1 PUSH1 0xA0 SHL SUB AND PUSH1 0x1 PUSH1 0x1 PUSH1 0xA0 SHL SUB AND PUSH2 0x8FC DUP5 PUSH1 0x4 DUP8 DUP2 SLOAD DUP2 LT PUSH2 0x1A14 JUMPI PUSH2 0x1A14 PUSH2 0x3670 JUMP JUMPDEST SWAP1 PUSH1 0x0 MSTORE PUSH1 0x20 PUSH1 0x0 KECCAK256 SWAP1 PUSH1 0x3 MUL ADD PUSH1 0x1 ADD SLOAD PUSH2 0x1A30 SWAP2 SWAP1 PUSH2 0x3739 JUMP JUMPDEST PUSH1 0x40 MLOAD DUP2 ISZERO SWAP1 SWAP3 MUL SWAP2 PUSH1 0x0 DUP2 DUP2 DUP2 DUP6 DUP9 DUP9 CALL SWAP4 POP POP POP POP ISZERO DUP1 ISZERO PUSH2 0x1A58 JUMPI RETURNDATASIZE PUSH1 0x0 DUP1 RETURNDATACOPY RETURNDATASIZE PUSH1 0x0 REVERT JUMPDEST POP CALLER PUSH1 0x0 SWAP1 DUP2 MSTORE PUSH1 0x13 PUSH1 0x20 MSTORE PUSH1 0x40 SWAP1 KECCAK256 SLOAD PUSH1 0x4 DUP1 SLOAD DUP6 SWAP2 SWAP1 DUP6 SWAP1 DUP2 LT PUSH2 0x1A80 JUMPI PUSH2 0x1A80 PUSH2 0x3670 JUMP JUMPDEST SWAP1 PUSH1 0x0 MSTORE PUSH1 0x20 PUSH1 0x0 KECCAK256 SWAP1 PUSH1 0x3 MUL ADD PUSH1 0x2 ADD PUSH1 0x0 DUP3 DUP3 SLOAD PUSH2 0x1AA0 SWAP2 SWAP1 PUSH2 0x3726 JUMP JUMPDEST SWAP3 POP POP DUP2 SWAP1 SSTORE POP DUP4 PUSH1 0x1 DUP3 DUP2 SLOAD DUP2 LT PUSH2 0x1ABB JUMPI PUSH2 0x1ABB PUSH2 0x3670 JUMP JUMPDEST SWAP1 PUSH1 0x0 MSTORE PUSH1 0x20 PUSH1 0x0 KECCAK256 SWAP1 PUSH1 0x4 MUL ADD PUSH1 0x3 ADD PUSH1 0x0 DUP3 DUP3 SLOAD PUSH2 0x1ADB SWAP2 SWAP1 PUSH2 0x39DB JUMP JUMPDEST SWAP1 SWAP2 SSTORE POP POP POP POP POP POP POP JUMP JUMPDEST PUSH1 0x0 JUMPDEST PUSH1 0x3 SLOAD DUP2 LT ISZERO PUSH2 0x1B5D JUMPI CALLER PUSH1 0x1 PUSH1 0x1 PUSH1 0xA0 SHL SUB AND PUSH1 0x3 DUP3 DUP2 SLOAD DUP2 LT PUSH2 0x1B11 JUMPI PUSH2 0x1B11 PUSH2 0x3670 JUMP JUMPDEST PUSH1 0x0 SWAP2 DUP3 MSTORE PUSH1 0x20 SWAP1 SWAP2 KECCAK256 PUSH1 0x1 PUSH1 0x3 SWAP1 SWAP3 MUL ADD ADD SLOAD PUSH1 0x1 PUSH1 0x1 PUSH1 0xA0 SHL SUB AND SUB PUSH2 0x1B4B JUMPI PUSH1 0x40 MLOAD PUSH3 0x461BCD PUSH1 0xE5 SHL DUP2 MSTORE PUSH1 0x4 ADD PUSH2 0x23E SWAP1 PUSH2 0x37A0 JUMP JUMPDEST DUP1 PUSH2 0x1B55 DUP2 PUSH2 0x369C JUMP JUMPDEST SWAP2 POP POP PUSH2 0x1AEA JUMP JUMPDEST POP PUSH1 0x0 JUMPDEST PUSH1 0x0 SLOAD DUP2 LT ISZERO PUSH2 0x1BD4 JUMPI CALLER PUSH1 0x1 PUSH1 0x1 PUSH1 0xA0 SHL SUB AND PUSH1 0x0 DUP3 DUP2 SLOAD DUP2 LT PUSH2 0x1B88 JUMPI PUSH2 0x1B88 PUSH2 0x3670 JUMP JUMPDEST PUSH1 0x0 SWAP2 DUP3 MSTORE PUSH1 0x20 SWAP1 SWAP2 KECCAK256 PUSH1 0x1 PUSH1 0x3 SWAP1 SWAP3 MUL ADD ADD SLOAD PUSH1 0x1 PUSH1 0x1 PUSH1 0xA0 SHL SUB AND SUB PUSH2 0x1BC2 JUMPI PUSH1 0x40 MLOAD PUSH3 0x461BCD PUSH1 0xE5 SHL DUP2 MSTORE PUSH1 0x4 ADD PUSH2 0x23E SWAP1 PUSH2 0x37A0 JUMP JUMPDEST DUP1 PUSH2 0x1BCC DUP2 PUSH2 0x369C JUMP JUMPDEST SWAP2 POP POP PUSH2 0x1B61 JUMP JUMPDEST POP CALLER PUSH1 0x1 PUSH1 0x1 PUSH1 0xA0 SHL SUB AND PUSH1 0x7 PUSH1 0x6 DUP6 DUP2 SLOAD DUP2 LT PUSH2 0x1BF4 JUMPI PUSH2 0x1BF4 PUSH2 0x3670 JUMP JUMPDEST SWAP1 PUSH1 0x0 MSTORE PUSH1 0x20 PUSH1 0x0 KECCAK256 SWAP1 PUSH1 0x8 MUL ADD PUSH1 0x1 ADD SLOAD DUP2 SLOAD DUP2 LT PUSH2 0x1C16 JUMPI PUSH2 0x1C16 PUSH2 0x3670 JUMP JUMPDEST PUSH1 0x0 SWAP2 DUP3 MSTORE PUSH1 0x20 SWAP1 SWAP2 KECCAK256 PUSH1 0x3 SWAP1 SWAP2 MUL ADD SLOAD PUSH1 0x1 PUSH1 0x1 PUSH1 0xA0 SHL SUB AND EQ PUSH2 0x1C88 JUMPI PUSH1 0x40 MLOAD PUSH3 0x461BCD PUSH1 0xE5 SHL DUP2 MSTORE PUSH1 0x20 PUSH1 0x4 DUP3 ADD MSTORE PUSH1 0x22 PUSH1 0x24 DUP3 ADD MSTORE PUSH32 0x596F7520656E74657220612077726F6E67206E756D626572206F66206F726465 PUSH1 0x44 DUP3 ADD MSTORE PUSH2 0x7221 PUSH1 0xF0 SHL PUSH1 0x64 DUP3 ADD MSTORE PUSH1 0x84 ADD PUSH2 0x23E JUMP JUMPDEST PUSH1 0x1 PUSH1 0x6 DUP5 DUP2 SLOAD DUP2 LT PUSH2 0x1C9D JUMPI PUSH2 0x1C9D PUSH2 0x3670 JUMP JUMPDEST PUSH1 0x0 SWAP2 DUP3 MSTORE PUSH1 0x20 SWAP1 SWAP2 KECCAK256 PUSH1 0x6 PUSH1 0x8 SWAP1 SWAP3 MUL ADD ADD SLOAD PUSH1 0xFF AND PUSH1 0x5 DUP2 GT ISZERO PUSH2 0x1CC5 JUMPI PUSH2 0x1CC5 PUSH2 0x3750 JUMP JUMPDEST EQ PUSH2 0x1D38 JUMPI PUSH1 0x40 MLOAD PUSH3 0x461BCD PUSH1 0xE5 SHL DUP2 MSTORE PUSH1 0x20 PUSH1 0x4 DUP3 ADD MSTORE PUSH1 0x39 PUSH1 0x24 DUP3 ADD MSTORE PUSH32 0x54686973207075727368617265206D75737420676F7420636F6E6669726D2066 PUSH1 0x44 DUP3 ADD MSTORE PUSH32 0x726F6D2073686F70206F722046696E6973686564207965742100000000000000 PUSH1 0x64 DUP3 ADD MSTORE PUSH1 0x84 ADD PUSH2 0x23E JUMP JUMPDEST PUSH1 0x6 DUP4 DUP2 SLOAD DUP2 LT PUSH2 0x1D4B JUMPI PUSH2 0x1D4B PUSH2 0x3670 JUMP JUMPDEST SWAP1 PUSH1 0x0 MSTORE PUSH1 0x20 PUSH1 0x0 KECCAK256 SWAP1 PUSH1 0x8 MUL ADD PUSH1 0x7 ADD SLOAD TIMESTAMP LT ISZERO PUSH2 0x1DAC JUMPI PUSH1 0x40 MLOAD PUSH3 0x461BCD PUSH1 0xE5 SHL DUP2 MSTORE PUSH1 0x20 PUSH1 0x4 DUP3 ADD MSTORE PUSH1 0x1F PUSH1 0x24 DUP3 ADD MSTORE PUSH32 0x596F7572206F726465722069736E60742064656C697665726564207965742100 PUSH1 0x44 DUP3 ADD MSTORE PUSH1 0x64 ADD PUSH2 0x23E JUMP JUMPDEST DUP2 ISZERO ISZERO PUSH1 0x1 SUB PUSH2 0x2014 JUMPI PUSH1 0x0 PUSH1 0x6 DUP5 DUP2 SLOAD DUP2 LT PUSH2 0x1DCB JUMPI PUSH2 0x1DCB PUSH2 0x3670 JUMP JUMPDEST SWAP1 PUSH1 0x0 MSTORE PUSH1 0x20 PUSH1 0x0 KECCAK256 SWAP1 PUSH1 0x8 MUL ADD PUSH1 0x4 ADD SLOAD PUSH1 0x1 PUSH1 0x6 DUP7 DUP2 SLOAD DUP2 LT PUSH2 0x1DF2 JUMPI PUSH2 0x1DF2 PUSH2 0x3670 JUMP JUMPDEST SWAP1 PUSH1 0x0 MSTORE PUSH1 0x20 PUSH1 0x0 KECCAK256 SWAP1 PUSH1 0x8 MUL ADD PUSH1 0x3 ADD SLOAD DUP2 SLOAD DUP2 LT PUSH2 0x1E14 JUMPI PUSH2 0x1E14 PUSH2 0x3670 JUMP JUMPDEST SWAP1 PUSH1 0x0 MSTORE PUSH1 0x20 PUSH1 0x0 KECCAK256 SWAP1 PUSH1 0x4 MUL ADD PUSH1 0x2 ADD SLOAD PUSH2 0x1E30 SWAP2 SWAP1 PUSH2 0x3739 JUMP JUMPDEST SWAP1 POP DUP2 ISZERO PUSH2 0x1F33 JUMPI PUSH1 0x0 PUSH2 0x1E43 DUP4 PUSH2 0x30BD JUMP JUMPDEST SWAP1 POP DUP1 ISZERO PUSH2 0x1E93 JUMPI PUSH1 0x40 MLOAD PUSH3 0x461BCD PUSH1 0xE5 SHL DUP2 MSTORE PUSH1 0x20 PUSH1 0x4 DUP3 ADD MSTORE PUSH1 0x18 PUSH1 0x24 DUP3 ADD MSTORE PUSH32 0x5468697320636F646520686173206265656E2075736564210000000000000000 PUSH1 0x44 DUP3 ADD MSTORE PUSH1 0x64 ADD PUSH2 0x23E JUMP JUMPDEST CALLER PUSH1 0x0 SWAP1 DUP2 MSTORE PUSH1 0x15 PUSH1 0x20 MSTORE PUSH1 0x40 DUP2 KECCAK256 SLOAD SWAP1 SUB PUSH2 0x1EF1 JUMPI PUSH1 0x40 MLOAD PUSH3 0x461BCD PUSH1 0xE5 SHL DUP2 MSTORE PUSH1 0x20 PUSH1 0x4 DUP3 ADD MSTORE PUSH1 0x18 PUSH1 0x24 DUP3 ADD MSTORE PUSH32 0x5468697320636F64652069736E607420666F7220796F75210000000000000000 PUSH1 0x44 DUP3 ADD MSTORE PUSH1 0x64 ADD PUSH2 0x23E JUMP JUMPDEST PUSH2 0x1EFA DUP3 PUSH2 0x310A JUMP JUMPDEST PUSH1 0x8 DUP1 SLOAD PUSH1 0x1 DUP2 ADD DUP3 SSTORE PUSH1 0x0 SWAP2 SWAP1 SWAP2 MSTORE PUSH32 0xF3F7A9FE364FAAB93B216DA50A3214154F22A0A2B415B23A84C8169E8B636EE3 ADD DUP5 SWAP1 SSTORE SWAP2 POP POP JUMPDEST CALLVALUE DUP2 GT ISZERO PUSH2 0x1F7F JUMPI PUSH1 0x40 MLOAD PUSH3 0x461BCD PUSH1 0xE5 SHL DUP2 MSTORE PUSH1 0x20 PUSH1 0x4 DUP3 ADD MSTORE PUSH1 0x19 PUSH1 0x24 DUP3 ADD MSTORE PUSH25 0xB2DEEA40C8DEDCC0E840D0C2ECCA40CADCDEEACED0408AE8D PUSH1 0x3B SHL PUSH1 0x44 DUP3 ADD MSTORE PUSH1 0x64 ADD PUSH2 0x23E JUMP JUMPDEST PUSH1 0x0 PUSH1 0x6 DUP6 DUP2 SLOAD DUP2 LT PUSH2 0x1F94 JUMPI PUSH2 0x1F94 PUSH2 0x3670 JUMP JUMPDEST SWAP1 PUSH1 0x0 MSTORE PUSH1 0x20 PUSH1 0x0 KECCAK256 SWAP1 PUSH1 0x8 MUL ADD PUSH1 0x2 ADD SLOAD DUP2 SLOAD DUP2 LT PUSH2 0x1FB6 JUMPI PUSH2 0x1FB6 PUSH2 0x3670 JUMP JUMPDEST PUSH1 0x0 SWAP2 DUP3 MSTORE PUSH1 0x20 DUP3 KECCAK256 PUSH1 0x1 PUSH1 0x3 SWAP1 SWAP3 MUL ADD ADD SLOAD PUSH1 0x40 MLOAD PUSH1 0x1 PUSH1 0x1 PUSH1 0xA0 SHL SUB SWAP1 SWAP2 AND SWAP2 DUP4 ISZERO PUSH2 0x8FC MUL SWAP2 DUP5 SWAP2 DUP2 DUP2 DUP2 DUP6 DUP9 DUP9 CALL SWAP4 POP POP POP POP ISZERO DUP1 ISZERO PUSH2 0x1FFE JUMPI RETURNDATASIZE PUSH1 0x0 DUP1 RETURNDATACOPY RETURNDATASIZE PUSH1 0x0 REVERT JUMPDEST POP PUSH1 0x3 PUSH1 0x6 DUP6 DUP2 SLOAD DUP2 LT PUSH2 0x6F2 JUMPI PUSH2 0x6F2 PUSH2 0x3670 JUMP JUMPDEST DUP2 ISZERO ISZERO PUSH1 0x0 SUB PUSH2 0x93E JUMPI PUSH1 0x0 DUP4 DUP2 MSTORE PUSH1 0x17 PUSH1 0x20 MSTORE PUSH1 0x40 SWAP1 KECCAK256 SLOAD CALLVALUE LT ISZERO PUSH2 0x207C JUMPI PUSH1 0x40 MLOAD PUSH3 0x461BCD PUSH1 0xE5 SHL DUP2 MSTORE PUSH1 0x20 PUSH1 0x4 DUP3 ADD MSTORE PUSH1 0x1A PUSH1 0x24 DUP3 ADD MSTORE PUSH32 0x596F7520646F6E6074206861766520656E6F756768204574682E000000000000 PUSH1 0x44 DUP3 ADD MSTORE PUSH1 0x64 ADD PUSH2 0x23E JUMP JUMPDEST PUSH1 0x0 PUSH1 0x6 DUP5 DUP2 SLOAD DUP2 LT PUSH2 0x2091 JUMPI PUSH2 0x2091 PUSH2 0x3670 JUMP JUMPDEST SWAP1 PUSH1 0x0 MSTORE PUSH1 0x20 PUSH1 0x0 KECCAK256 SWAP1 PUSH1 0x8 MUL ADD PUSH1 0x2 ADD SLOAD DUP2 SLOAD DUP2 LT PUSH2 0x20B3 JUMPI PUSH2 0x20B3 PUSH2 0x3670 JUMP JUMPDEST PUSH1 0x0 SWAP2 DUP3 MSTORE PUSH1 0x20 DUP1 DUP4 KECCAK256 PUSH1 0x1 PUSH1 0x3 SWAP1 SWAP4 MUL ADD SWAP2 SWAP1 SWAP2 ADD SLOAD DUP6 DUP4 MSTORE PUSH1 0x17 SWAP1 SWAP2 MSTORE PUSH1 0x40 SWAP1 SWAP2 KECCAK256 SLOAD PUSH1 0x1 PUSH1 0x1 PUSH1 0xA0 SHL SUB SWAP1 SWAP2 AND SWAP1 PUSH2 0x8FC SWAP1 PUSH2 0x20F4 SWAP1 PUSH1 0x5 SWAP1 PUSH2 0x37E6 JUMP JUMPDEST PUSH1 0x40 MLOAD DUP2 ISZERO SWAP1 SWAP3 MUL SWAP2 PUSH1 0x0 DUP2 DUP2 DUP2 DUP6 DUP9 DUP9 CALL SWAP4 POP POP POP POP ISZERO DUP1 ISZERO PUSH2 0x211C JUMPI RETURNDATASIZE PUSH1 0x0 DUP1 RETURNDATACOPY RETURNDATASIZE PUSH1 0x0 REVERT JUMPDEST POP PUSH1 0x0 DUP4 DUP2 MSTORE PUSH1 0x17 PUSH1 0x20 MSTORE PUSH1 0x40 DUP2 KECCAK256 SSTORE PUSH1 0x6 DUP1 SLOAD PUSH1 0x2 SWAP2 SWAP1 DUP6 SWAP1 DUP2 LT PUSH2 0x2144 JUMPI PUSH2 0x2144 PUSH2 0x3670 JUMP JUMPDEST PUSH1 0x0 SWAP2 DUP3 MSTORE PUSH1 0x20 SWAP1 SWAP2 KECCAK256 PUSH1 0x6 PUSH1 0x8 SWAP1 SWAP3 MUL ADD ADD DUP1 SLOAD PUSH1 0xFF NOT AND PUSH1 0x1 DUP4 PUSH1 0x5 DUP2 GT ISZERO PUSH2 0x2171 JUMPI PUSH2 0x2171 PUSH2 0x3750 JUMP JUMPDEST MUL OR SWAP1 SSTORE POP PUSH1 0x6 DUP4 DUP2 SLOAD DUP2 LT PUSH2 0x2189 JUMPI PUSH2 0x2189 PUSH2 0x3670 JUMP JUMPDEST SWAP1 PUSH1 0x0 MSTORE PUSH1 0x20 PUSH1 0x0 KECCAK256 SWAP1 PUSH1 0x8 MUL ADD PUSH1 0x4 ADD SLOAD PUSH1 0x1 PUSH1 0x6 DUP6 DUP2 SLOAD DUP2 LT PUSH2 0x21B0 JUMPI PUSH2 0x21B0 PUSH2 0x3670 JUMP JUMPDEST SWAP1 PUSH1 0x0 MSTORE PUSH1 0x20 PUSH1 0x0 KECCAK256 SWAP1 PUSH1 0x8 MUL ADD PUSH1 0x3 ADD SLOAD DUP2 SLOAD DUP2 LT PUSH2 0x21D2 JUMPI PUSH2 0x21D2 PUSH2 0x3670 JUMP JUMPDEST SWAP1 PUSH1 0x0 MSTORE PUSH1 0x20 PUSH1 0x0 KECCAK256 SWAP1 PUSH1 0x4 MUL ADD PUSH1 0x3 ADD PUSH1 0x0 DUP3 DUP3 SLOAD PUSH2 0x21F2 SWAP2 SWAP1 PUSH2 0x39DB JUMP JUMPDEST SWAP1 SWAP2 SSTORE POP POP POP POP POP JUMP JUMPDEST PUSH1 0x0 JUMPDEST PUSH1 0x3 SLOAD DUP2 LT ISZERO PUSH2 0x2272 JUMPI CALLER PUSH1 0x1 PUSH1 0x1 PUSH1 0xA0 SHL SUB AND PUSH1 0x3 DUP3 DUP2 SLOAD DUP2 LT PUSH2 0x2226 JUMPI PUSH2 0x2226 PUSH2 0x3670 JUMP JUMPDEST PUSH1 0x0 SWAP2 DUP3 MSTORE PUSH1 0x20 SWAP1 SWAP2 KECCAK256 PUSH1 0x1 PUSH1 0x3 SWAP1 SWAP3 MUL ADD ADD SLOAD PUSH1 0x1 PUSH1 0x1 PUSH1 0xA0 SHL SUB AND SUB PUSH2 0x2260 JUMPI PUSH1 0x40 MLOAD PUSH3 0x461BCD PUSH1 0xE5 SHL DUP2 MSTORE PUSH1 0x4 ADD PUSH2 0x23E SWAP1 PUSH2 0x37A0 JUMP JUMPDEST DUP1 PUSH2 0x226A DUP2 PUSH2 0x369C JUMP JUMPDEST SWAP2 POP POP PUSH2 0x21FF JUMP JUMPDEST POP PUSH1 0x0 JUMPDEST PUSH1 0x0 SLOAD DUP2 LT ISZERO PUSH2 0x22E9 JUMPI CALLER PUSH1 0x1 PUSH1 0x1 PUSH1 0xA0 SHL SUB AND PUSH1 0x0 DUP3 DUP2 SLOAD DUP2 LT PUSH2 0x229D JUMPI PUSH2 0x229D PUSH2 0x3670 JUMP JUMPDEST PUSH1 0x0 SWAP2 DUP3 MSTORE PUSH1 0x20 SWAP1 SWAP2 KECCAK256 PUSH1 0x1 PUSH1 0x3 SWAP1 SWAP3 MUL ADD ADD SLOAD PUSH1 0x1 PUSH1 0x1 PUSH1 0xA0 SHL SUB AND SUB PUSH2 0x22D7 JUMPI PUSH1 0x40 MLOAD PUSH3 0x461BCD PUSH1 0xE5 SHL DUP2 MSTORE PUSH1 0x4 ADD PUSH2 0x23E SWAP1 PUSH2 0x37A0 JUMP JUMPDEST DUP1 PUSH2 0x22E1 DUP2 PUSH2 0x369C JUMP JUMPDEST SWAP2 POP POP PUSH2 0x2276 JUMP JUMPDEST POP PUSH1 0x6 SLOAD DUP2 SWAP1 DUP2 LT PUSH2 0x230D JUMPI PUSH1 0x40 MLOAD PUSH3 0x461BCD PUSH1 0xE5 SHL DUP2 MSTORE PUSH1 0x4 ADD PUSH2 0x23E SWAP1 PUSH2 0x36E3 JUMP JUMPDEST PUSH1 0x0 DUP1 JUMPDEST PUSH1 0x7 SLOAD DUP2 LT ISZERO PUSH2 0x2371 JUMPI CALLER PUSH1 0x1 PUSH1 0x1 PUSH1 0xA0 SHL SUB AND PUSH1 0x7 DUP3 DUP2 SLOAD DUP2 LT PUSH2 0x2338 JUMPI PUSH2 0x2338 PUSH2 0x3670 JUMP JUMPDEST PUSH1 0x0 SWAP2 DUP3 MSTORE PUSH1 0x20 SWAP1 SWAP2 KECCAK256 PUSH1 0x3 SWAP1 SWAP2 MUL ADD SLOAD PUSH1 0x1 PUSH1 0x1 PUSH1 0xA0 SHL SUB AND SUB PUSH2 0x235F JUMPI DUP1 SWAP2 POP PUSH2 0x2371 JUMP JUMPDEST DUP1 PUSH2 0x2369 DUP2 PUSH2 0x369C JUMP JUMPDEST SWAP2 POP POP PUSH2 0x2311 JUMP JUMPDEST POP PUSH1 0x0 JUMPDEST PUSH1 0x6 SLOAD DUP2 LT ISZERO PUSH2 0x93C JUMPI DUP4 DUP2 SUB PUSH2 0x2800 JUMPI PUSH1 0x6 DUP2 DUP2 SLOAD DUP2 LT PUSH2 0x2399 JUMPI PUSH2 0x2399 PUSH2 0x3670 JUMP JUMPDEST SWAP1 PUSH1 0x0 MSTORE PUSH1 0x20 PUSH1 0x0 KECCAK256 SWAP1 PUSH1 0x8 MUL ADD PUSH1 0x1 ADD SLOAD DUP3 EQ PUSH2 0x23F9 JUMPI PUSH1 0x40 MLOAD PUSH3 0x461BCD PUSH1 0xE5 SHL DUP2 MSTORE PUSH1 0x20 PUSH1 0x4 DUP3 ADD MSTORE PUSH1 0x1F PUSH1 0x24 DUP3 ADD MSTORE PUSH32 0x596F752077726F746520612077726F6E67206F72646572206E756D6265722100 PUSH1 0x44 DUP3 ADD MSTORE PUSH1 0x64 ADD PUSH2 0x23E JUMP JUMPDEST PUSH1 0x2 PUSH1 0x6 DUP3 DUP2 SLOAD DUP2 LT PUSH2 0x240E JUMPI PUSH2 0x240E PUSH2 0x3670 JUMP JUMPDEST SWAP1 PUSH1 0x0 MSTORE PUSH1 0x20 PUSH1 0x0 KECCAK256 SWAP1 PUSH1 0x8 MUL ADD PUSH1 0x3 ADD SLOAD DUP2 SLOAD DUP2 LT PUSH2 0x2430 JUMPI PUSH2 0x2430 PUSH2 0x3670 JUMP JUMPDEST SWAP1 PUSH1 0x0 MSTORE PUSH1 0x20 PUSH1 0x0 KECCAK256 SWAP1 PUSH1 0x4 MUL ADD PUSH1 0x3 ADD SLOAD PUSH1 0x6 DUP3 DUP2 SLOAD DUP2 LT PUSH2 0x2455 JUMPI PUSH2 0x2455 PUSH2 0x3670 JUMP JUMPDEST SWAP1 PUSH1 0x0 MSTORE PUSH1 0x20 PUSH1 0x0 KECCAK256 SWAP1 PUSH1 0x8 MUL ADD PUSH1 0x5 ADD SLOAD GT PUSH2 0x24C9 JUMPI PUSH1 0x40 MLOAD PUSH3 0x461BCD PUSH1 0xE5 SHL DUP2 MSTORE PUSH1 0x20 PUSH1 0x4 DUP3 ADD MSTORE PUSH1 0x2C PUSH1 0x24 DUP3 ADD MSTORE PUSH32 0x54686973206F7264657220646F6E6074206861766520616E7920657870657269 PUSH1 0x44 DUP3 ADD MSTORE PUSH12 0x65642070726F647563747321 PUSH1 0xA0 SHL PUSH1 0x64 DUP3 ADD MSTORE PUSH1 0x84 ADD PUSH2 0x23E JUMP JUMPDEST PUSH1 0x3 PUSH1 0x6 DUP3 DUP2 SLOAD DUP2 LT PUSH2 0x24DE JUMPI PUSH2 0x24DE PUSH2 0x3670 JUMP JUMPDEST PUSH1 0x0 SWAP2 DUP3 MSTORE PUSH1 0x20 SWAP1 SWAP2 KECCAK256 PUSH1 0x6 PUSH1 0x8 SWAP1 SWAP3 MUL ADD ADD SLOAD PUSH1 0xFF AND PUSH1 0x5 DUP2 GT ISZERO PUSH2 0x2506 JUMPI PUSH2 0x2506 PUSH2 0x3750 JUMP JUMPDEST EQ PUSH2 0x2553 JUMPI PUSH1 0x40 MLOAD PUSH3 0x461BCD PUSH1 0xE5 SHL DUP2 MSTORE PUSH1 0x20 PUSH1 0x4 DUP3 ADD MSTORE PUSH1 0x1D PUSH1 0x24 DUP3 ADD MSTORE PUSH32 0x596F752063616E60742072657475726E206F7264657220747769636521000000 PUSH1 0x44 DUP3 ADD MSTORE PUSH1 0x64 ADD PUSH2 0x23E JUMP JUMPDEST PUSH1 0x0 PUSH1 0x6 DUP6 DUP2 SLOAD DUP2 LT PUSH2 0x2568 JUMPI PUSH2 0x2568 PUSH2 0x3670 JUMP JUMPDEST SWAP1 PUSH1 0x0 MSTORE PUSH1 0x20 PUSH1 0x0 KECCAK256 SWAP1 PUSH1 0x8 MUL ADD PUSH1 0x3 ADD SLOAD SWAP1 POP PUSH1 0x0 PUSH1 0x6 DUP7 DUP2 SLOAD DUP2 LT PUSH2 0x2591 JUMPI PUSH2 0x2591 PUSH2 0x3670 JUMP JUMPDEST SWAP1 PUSH1 0x0 MSTORE PUSH1 0x20 PUSH1 0x0 KECCAK256 SWAP1 PUSH1 0x8 MUL ADD PUSH1 0x4 ADD SLOAD SWAP1 POP PUSH1 0x0 PUSH1 0x1 PUSH1 0x6 DUP9 DUP2 SLOAD DUP2 LT PUSH2 0x25BC JUMPI PUSH2 0x25BC PUSH2 0x3670 JUMP JUMPDEST SWAP1 PUSH1 0x0 MSTORE PUSH1 0x20 PUSH1 0x0 KECCAK256 SWAP1 PUSH1 0x8 MUL ADD PUSH1 0x3 ADD SLOAD DUP2 SLOAD DUP2 LT PUSH2 0x25DE JUMPI PUSH2 0x25DE PUSH2 0x3670 JUMP JUMPDEST SWAP1 PUSH1 0x0 MSTORE PUSH1 0x20 PUSH1 0x0 KECCAK256 SWAP1 PUSH1 0x4 MUL ADD PUSH1 0x2 ADD SLOAD SWAP1 POP DUP1 DUP3 PUSH2 0x25FE SWAP2 SWAP1 PUSH2 0x3739 JUMP JUMPDEST PUSH1 0xE DUP2 SWAP1 SSTORE POP PUSH1 0x4 PUSH1 0x6 DUP6 DUP2 SLOAD DUP2 LT PUSH2 0x2619 JUMPI PUSH2 0x2619 PUSH2 0x3670 JUMP JUMPDEST PUSH1 0x0 SWAP2 DUP3 MSTORE PUSH1 0x20 SWAP1 SWAP2 KECCAK256 PUSH1 0x6 PUSH1 0x8 SWAP1 SWAP3 MUL ADD ADD DUP1 SLOAD PUSH1 0xFF NOT AND PUSH1 0x1 DUP4 PUSH1 0x5 DUP2 GT ISZERO PUSH2 0x2646 JUMPI PUSH2 0x2646 PUSH2 0x3750 JUMP JUMPDEST MUL OR SWAP1 SSTORE POP PUSH1 0x6 DUP5 DUP2 SLOAD DUP2 LT PUSH2 0x265E JUMPI PUSH2 0x265E PUSH2 0x3670 JUMP JUMPDEST SWAP1 PUSH1 0x0 MSTORE PUSH1 0x20 PUSH1 0x0 KECCAK256 SWAP1 PUSH1 0x8 MUL ADD PUSH1 0x4 ADD SLOAD PUSH1 0x1 DUP5 DUP2 SLOAD DUP2 LT PUSH2 0x2683 JUMPI PUSH2 0x2683 PUSH2 0x3670 JUMP JUMPDEST SWAP1 PUSH1 0x0 MSTORE PUSH1 0x20 PUSH1 0x0 KECCAK256 SWAP1 PUSH1 0x4 MUL ADD PUSH1 0x3 ADD PUSH1 0x0 DUP3 DUP3 SLOAD PUSH2 0x26A3 SWAP2 SWAP1 PUSH2 0x39DB JUMP JUMPDEST SWAP1 SWAP2 SSTORE POP POP PUSH1 0x1 DUP1 SLOAD DUP5 SWAP1 DUP2 LT PUSH2 0x26BC JUMPI PUSH2 0x26BC PUSH2 0x3670 JUMP JUMPDEST SWAP1 PUSH1 0x0 MSTORE PUSH1 0x20 PUSH1 0x0 KECCAK256 SWAP1 PUSH1 0x4 MUL ADD PUSH1 0x3 ADD SLOAD PUSH1 0x1 DUP5 DUP2 SLOAD DUP2 LT PUSH2 0x26E1 JUMPI PUSH2 0x26E1 PUSH2 0x3670 JUMP JUMPDEST SWAP1 PUSH1 0x0 MSTORE PUSH1 0x20 PUSH1 0x0 KECCAK256 SWAP1 PUSH1 0x4 MUL ADD PUSH1 0x2 ADD SLOAD PUSH2 0x26FD SWAP2 SWAP1 PUSH2 0x3739 JUMP JUMPDEST PUSH1 0x0 PUSH1 0x1 DUP1 DUP7 DUP2 SLOAD DUP2 LT PUSH2 0x2713 JUMPI PUSH2 0x2713 PUSH2 0x3670 JUMP JUMPDEST SWAP1 PUSH1 0x0 MSTORE PUSH1 0x20 PUSH1 0x0 KECCAK256 SWAP1 PUSH1 0x4 MUL ADD PUSH1 0x1 ADD SLOAD PUSH2 0x272F SWAP2 SWAP1 PUSH2 0x3726 JUMP JUMPDEST DUP2 SLOAD DUP2 LT PUSH2 0x273F JUMPI PUSH2 0x273F PUSH2 0x3670 JUMP JUMPDEST SWAP1 PUSH1 0x0 MSTORE PUSH1 0x20 PUSH1 0x0 KECCAK256 SWAP1 PUSH1 0x3 MUL ADD PUSH1 0x2 ADD PUSH1 0x0 DUP3 DUP3 SLOAD PUSH2 0x275F SWAP2 SWAP1 PUSH2 0x39DB JUMP JUMPDEST SWAP3 POP POP DUP2 SWAP1 SSTORE POP PUSH1 0x16 PUSH1 0x0 DUP1 PUSH1 0x1 DUP1 DUP8 DUP2 SLOAD DUP2 LT PUSH2 0x277F JUMPI PUSH2 0x277F PUSH2 0x3670 JUMP JUMPDEST SWAP1 PUSH1 0x0 MSTORE PUSH1 0x20 PUSH1 0x0 KECCAK256 SWAP1 PUSH1 0x4 MUL ADD PUSH1 0x1 ADD SLOAD PUSH2 0x279B SWAP2 SWAP1 PUSH2 0x3726 JUMP JUMPDEST DUP2 SLOAD DUP2 LT PUSH2 0x27AB JUMPI PUSH2 0x27AB PUSH2 0x3670 JUMP JUMPDEST PUSH1 0x0 SWAP2 DUP3 MSTORE PUSH1 0x20 DUP1 DUP4 KECCAK256 PUSH1 0x1 PUSH1 0x3 SWAP1 SWAP4 MUL ADD DUP3 ADD SLOAD PUSH1 0x1 PUSH1 0x1 PUSH1 0xA0 SHL SUB AND DUP5 MSTORE DUP4 DUP2 ADD SWAP5 SWAP1 SWAP5 MSTORE PUSH1 0x40 SWAP1 SWAP3 ADD DUP2 KECCAK256 DUP1 SLOAD SWAP3 DUP4 ADD DUP2 SSTORE DUP2 MSTORE SWAP2 SWAP1 SWAP2 KECCAK256 ADD DUP1 SLOAD PUSH1 0x1 PUSH1 0x1 PUSH1 0xA0 SHL SUB NOT AND CALLER OR SWAP1 SSTORE POP PUSH2 0x93C SWAP2 POP POP JUMP JUMPDEST DUP1 PUSH2 0x280A DUP2 PUSH2 0x369C JUMP JUMPDEST SWAP2 POP POP PUSH2 0x2375 JUMP JUMPDEST PUSH1 0x0 TIMESTAMP PUSH2 0x2820 DUP2 PUSH1 0x2 PUSH2 0x39DB JUMP JUMPDEST SWAP2 POP POP SWAP1 JUMP JUMPDEST PUSH2 0xEF9 DUP2 PUSH1 0x40 MLOAD PUSH1 0x24 ADD PUSH2 0x283A SWAP2 SWAP1 PUSH2 0x3A12 JUMP JUMPDEST PUSH1 0x40 DUP1 MLOAD PUSH1 0x1F NOT DUP2 DUP5 SUB ADD DUP2 MSTORE SWAP2 SWAP1 MSTORE PUSH1 0x20 DUP2 ADD DUP1 MLOAD PUSH1 0x1 PUSH1 0x1 PUSH1 0xE0 SHL SUB AND PUSH4 0x104C13EB PUSH1 0xE2 SHL OR SWAP1 MSTORE PUSH2 0x3129 JUMP JUMPDEST PUSH1 0x5 DUP3 DUP2 SLOAD DUP2 LT PUSH2 0x287C JUMPI PUSH2 0x287C PUSH2 0x3670 JUMP JUMPDEST PUSH1 0x0 SWAP2 DUP3 MSTORE PUSH1 0x20 DUP3 KECCAK256 PUSH1 0x1 PUSH1 0x4 SWAP1 SWAP3 MUL ADD ADD SLOAD PUSH1 0xA DUP1 SLOAD PUSH1 0x1 PUSH1 0x1 PUSH1 0xA0 SHL SUB NOT AND PUSH1 0x1 PUSH1 0x1 PUSH1 0xA0 SHL SUB SWAP1 SWAP3 AND SWAP2 SWAP1 SWAP2 OR SWAP1 SSTORE PUSH1 0x5 DUP1 SLOAD DUP5 SWAP1 DUP2 LT PUSH2 0x28C2 JUMPI PUSH2 0x28C2 PUSH2 0x3670 JUMP JUMPDEST SWAP1 PUSH1 0x0 MSTORE PUSH1 0x20 PUSH1 0x0 KECCAK256 SWAP1 PUSH1 0x4 MUL ADD PUSH1 0x3 ADD PUSH1 0x0 SWAP1 SLOAD SWAP1 PUSH2 0x100 EXP SWAP1 DIV PUSH1 0xFF AND SWAP1 POP PUSH2 0x291B PUSH1 0x5 DUP5 DUP2 SLOAD DUP2 LT PUSH2 0x28F9 JUMPI PUSH2 0x28F9 PUSH2 0x3670 JUMP JUMPDEST PUSH1 0x0 SWAP2 DUP3 MSTORE PUSH1 0x20 SWAP1 SWAP2 KECCAK256 PUSH1 0x1 PUSH1 0x4 SWAP1 SWAP3 MUL ADD ADD SLOAD PUSH1 0x1 PUSH1 0x1 PUSH1 0xA0 SHL SUB AND PUSH2 0x3132 JUMP JUMPDEST PUSH1 0x11 DUP1 SLOAD PUSH1 0xFF NOT AND PUSH1 0x1 DUP4 PUSH1 0x3 DUP2 GT ISZERO PUSH2 0x2937 JUMPI PUSH2 0x2937 PUSH2 0x3750 JUMP JUMPDEST MUL OR SWAP1 SSTORE POP PUSH1 0x11 SLOAD PUSH1 0xFF AND PUSH1 0x3 DUP2 GT ISZERO PUSH2 0x2953 JUMPI PUSH2 0x2953 PUSH2 0x3750 JUMP JUMPDEST DUP2 PUSH1 0x3 DUP2 GT ISZERO PUSH2 0x2965 JUMPI PUSH2 0x2965 PUSH2 0x3750 JUMP JUMPDEST SUB PUSH2 0x29C8 JUMPI PUSH1 0x40 MLOAD PUSH3 0x461BCD PUSH1 0xE5 SHL DUP2 MSTORE PUSH1 0x20 PUSH1 0x4 DUP3 ADD MSTORE PUSH1 0x2D PUSH1 0x24 DUP3 ADD MSTORE PUSH32 0x596F752063616E6074206368616E67652066726F6D20796F757220726F6C6520 PUSH1 0x44 DUP3 ADD MSTORE PUSH13 0x6F6E20796F757220726F6C6521 PUSH1 0x98 SHL PUSH1 0x64 DUP3 ADD MSTORE PUSH1 0x84 ADD PUSH2 0x23E JUMP JUMPDEST PUSH1 0x2 DUP2 PUSH1 0x3 DUP2 GT ISZERO PUSH2 0x29DC JUMPI PUSH2 0x29DC PUSH2 0x3750 JUMP JUMPDEST SUB PUSH2 0x2A80 JUMPI PUSH1 0x40 DUP1 MLOAD PUSH1 0x60 DUP2 ADD DUP3 MSTORE DUP4 DUP2 MSTORE PUSH1 0xA SLOAD PUSH1 0x1 PUSH1 0x1 PUSH1 0xA0 SHL SUB AND PUSH1 0x20 DUP3 ADD MSTORE PUSH1 0x0 SWAP2 DUP2 ADD DUP3 SWAP1 MSTORE DUP2 SLOAD PUSH1 0x1 DUP2 ADD DUP4 SSTORE SWAP2 DUP1 MSTORE DUP1 MLOAD SWAP1 SWAP2 PUSH1 0x3 MUL PUSH32 0x290DECD9548B62A8D60345A988386FC84BA6BC95484008F6362F93160EF3E563 ADD SWAP1 DUP2 SWAP1 PUSH2 0x2A48 SWAP1 DUP3 PUSH2 0x3848 JUMP JUMPDEST POP PUSH1 0x20 DUP3 ADD MLOAD PUSH1 0x1 DUP3 ADD DUP1 SLOAD PUSH1 0x1 PUSH1 0x1 PUSH1 0xA0 SHL SUB NOT AND PUSH1 0x1 PUSH1 0x1 PUSH1 0xA0 SHL SUB SWAP1 SWAP3 AND SWAP2 SWAP1 SWAP2 OR SWAP1 SSTORE PUSH1 0x40 SWAP1 SWAP2 ADD MLOAD PUSH1 0x2 SWAP1 SWAP2 ADD SSTORE PUSH2 0x2C0D JUMP JUMPDEST PUSH1 0x1 DUP2 PUSH1 0x3 DUP2 GT ISZERO PUSH2 0x2A94 JUMPI PUSH2 0x2A94 PUSH2 0x3750 JUMP JUMPDEST SUB PUSH2 0x2B30 JUMPI PUSH1 0x3 PUSH1 0x40 MLOAD DUP1 PUSH1 0x60 ADD PUSH1 0x40 MSTORE DUP1 PUSH1 0x1 PUSH1 0x3 DUP1 SLOAD SWAP1 POP PUSH2 0x2AB8 SWAP2 SWAP1 PUSH2 0x3726 JUMP JUMPDEST DUP2 MSTORE PUSH1 0xA SLOAD PUSH1 0x1 PUSH1 0x1 PUSH1 0xA0 SHL SUB SWAP1 DUP2 AND PUSH1 0x20 DUP1 DUP5 ADD SWAP2 SWAP1 SWAP2 MSTORE PUSH1 0x40 SWAP3 DUP4 ADD DUP8 SWAP1 MSTORE DUP5 SLOAD PUSH1 0x1 DUP1 DUP3 ADD DUP8 SSTORE PUSH1 0x0 SWAP7 DUP8 MSTORE SWAP6 DUP3 SWAP1 KECCAK256 DUP6 MLOAD PUSH1 0x3 SWAP1 SWAP3 MUL ADD SWAP1 DUP2 SSTORE SWAP1 DUP5 ADD MLOAD SWAP5 DUP2 ADD DUP1 SLOAD PUSH1 0x1 PUSH1 0x1 PUSH1 0xA0 SHL SUB NOT AND SWAP6 SWAP1 SWAP3 AND SWAP5 SWAP1 SWAP5 OR SWAP1 SSTORE DUP2 ADD MLOAD SWAP1 SWAP2 SWAP1 PUSH1 0x2 DUP3 ADD SWAP1 PUSH2 0x2B28 SWAP1 DUP3 PUSH2 0x3848 JUMP JUMPDEST POP POP POP PUSH2 0x2C0D JUMP JUMPDEST PUSH1 0x0 DUP2 PUSH1 0x3 DUP2 GT ISZERO PUSH2 0x2B44 JUMPI PUSH2 0x2B44 PUSH2 0x3750 JUMP JUMPDEST SUB PUSH2 0x2C0D JUMPI PUSH1 0x40 DUP1 MLOAD PUSH1 0x60 DUP2 ADD DUP3 MSTORE PUSH1 0xA SLOAD PUSH1 0x1 PUSH1 0x1 PUSH1 0xA0 SHL SUB SWAP1 DUP2 AND DUP3 MSTORE PUSH1 0x20 DUP3 ADD DUP6 DUP2 MSTORE PUSH1 0x0 SWAP4 DUP4 ADD DUP5 SWAP1 MSTORE PUSH1 0x7 DUP1 SLOAD PUSH1 0x1 DUP2 ADD DUP3 SSTORE SWAP5 MSTORE DUP3 MLOAD PUSH32 0xA66CC928B5EDB82AF9BD49922954155AB7B0942694BEA4CE44661D9A8736C688 PUSH1 0x3 SWAP1 SWAP6 MUL SWAP5 DUP6 ADD DUP1 SLOAD PUSH1 0x1 PUSH1 0x1 PUSH1 0xA0 SHL SUB NOT AND SWAP2 SWAP1 SWAP4 AND OR DUP3 SSTORE MLOAD SWAP2 SWAP3 SWAP1 SWAP2 PUSH32 0xA66CC928B5EDB82AF9BD49922954155AB7B0942694BEA4CE44661D9A8736C689 SWAP1 SWAP2 ADD SWAP1 PUSH2 0x2BF0 SWAP1 DUP3 PUSH2 0x3848 JUMP JUMPDEST POP PUSH1 0x40 SWAP2 SWAP1 SWAP2 ADD MLOAD PUSH1 0x2 SWAP1 SWAP2 ADD DUP1 SLOAD PUSH1 0xFF NOT AND SWAP2 ISZERO ISZERO SWAP2 SWAP1 SWAP2 OR SWAP1 SSTORE JUMPDEST PUSH2 0x93E JUMPDEST PUSH1 0x2 PUSH1 0x11 SLOAD PUSH1 0xFF AND PUSH1 0x3 DUP2 GT ISZERO PUSH2 0x2C2A JUMPI PUSH2 0x2C2A PUSH2 0x3750 JUMP JUMPDEST SUB PUSH2 0x2C91 JUMPI PUSH1 0xA SLOAD PUSH1 0x0 SWAP1 PUSH2 0x2C4A SWAP1 PUSH1 0x1 SWAP1 PUSH1 0x1 PUSH1 0x1 PUSH1 0xA0 SHL SUB AND PUSH2 0x3267 JUMP JUMPDEST DUP2 SLOAD DUP2 LT PUSH2 0x2C5A JUMPI PUSH2 0x2C5A PUSH2 0x3670 JUMP JUMPDEST PUSH1 0x0 SWAP2 DUP3 MSTORE PUSH1 0x20 DUP3 KECCAK256 PUSH1 0x3 SWAP1 SWAP2 MUL ADD SWAP1 PUSH2 0x2C74 DUP3 DUP3 PUSH2 0x33CD JUMP JUMPDEST POP PUSH1 0x1 DUP2 ADD DUP1 SLOAD PUSH1 0x1 PUSH1 0x1 PUSH1 0xA0 SHL SUB NOT AND SWAP1 SSTORE PUSH1 0x0 PUSH1 0x2 SWAP1 SWAP2 ADD SSTORE JUMP JUMPDEST PUSH1 0x1 PUSH1 0x11 SLOAD PUSH1 0xFF AND PUSH1 0x3 DUP2 GT ISZERO PUSH2 0x2CAA JUMPI PUSH2 0x2CAA PUSH2 0x3750 JUMP JUMPDEST SUB PUSH2 0x2D0C JUMPI PUSH1 0xA SLOAD PUSH1 0x3 SWAP1 PUSH2 0x2CCA SWAP1 PUSH1 0x2 SWAP1 PUSH1 0x1 PUSH1 0x1 PUSH1 0xA0 SHL SUB AND PUSH2 0x3267 JUMP JUMPDEST DUP2 SLOAD DUP2 LT PUSH2 0x2CDA JUMPI PUSH2 0x2CDA PUSH2 0x3670 JUMP JUMPDEST PUSH1 0x0 SWAP2 DUP3 MSTORE PUSH1 0x20 DUP3 KECCAK256 PUSH1 0x3 SWAP1 SWAP2 MUL ADD DUP2 DUP2 SSTORE PUSH1 0x1 DUP2 ADD DUP1 SLOAD PUSH1 0x1 PUSH1 0x1 PUSH1 0xA0 SHL SUB NOT AND SWAP1 SSTORE SWAP1 PUSH2 0xA3C PUSH1 0x2 DUP4 ADD DUP3 PUSH2 0x33CD JUMP JUMPDEST PUSH1 0x0 PUSH1 0x11 SLOAD PUSH1 0xFF AND PUSH1 0x3 DUP2 GT ISZERO PUSH2 0x2D25 JUMPI PUSH2 0x2D25 PUSH2 0x3750 JUMP JUMPDEST SUB PUSH2 0x2D8D JUMPI PUSH1 0xA SLOAD PUSH1 0x7 SWAP1 PUSH2 0x2D45 SWAP1 PUSH1 0x0 SWAP1 PUSH1 0x1 PUSH1 0x1 PUSH1 0xA0 SHL SUB AND PUSH2 0x3267 JUMP JUMPDEST DUP2 SLOAD DUP2 LT PUSH2 0x2D55 JUMPI PUSH2 0x2D55 PUSH2 0x3670 JUMP JUMPDEST PUSH1 0x0 SWAP2 DUP3 MSTORE PUSH1 0x20 DUP3 KECCAK256 PUSH1 0x3 SWAP1 SWAP2 MUL ADD DUP1 SLOAD PUSH1 0x1 PUSH1 0x1 PUSH1 0xA0 SHL SUB NOT AND DUP2 SSTORE SWAP1 PUSH2 0x2D80 PUSH1 0x1 DUP4 ADD DUP3 PUSH2 0x33CD JUMP JUMPDEST POP PUSH1 0x2 ADD DUP1 SLOAD PUSH1 0xFF NOT AND SWAP1 SSTORE JUMPDEST JUMP JUMPDEST PUSH1 0x0 DUP1 JUMPDEST PUSH1 0x10 SLOAD DUP2 LT ISZERO PUSH2 0x2DD9 JUMPI PUSH1 0x0 DUP2 DUP2 MSTORE PUSH1 0x14 PUSH1 0x20 MSTORE PUSH1 0x40 SWAP1 KECCAK256 SLOAD PUSH1 0x1 PUSH1 0x1 PUSH1 0xA0 SHL SUB DUP1 DUP6 AND SWAP2 AND SUB PUSH2 0x2DC7 JUMPI POP PUSH1 0x1 SWAP3 SWAP2 POP POP JUMP JUMPDEST DUP1 PUSH2 0x2DD1 DUP2 PUSH2 0x369C JUMP JUMPDEST SWAP2 POP POP PUSH2 0x2D93 JUMP JUMPDEST POP PUSH1 0x0 SWAP3 SWAP2 POP POP JUMP JUMPDEST PUSH1 0x0 DUP2 TIMESTAMP CALLER PUSH1 0x40 MLOAD PUSH1 0x20 ADD PUSH2 0x2E13 SWAP3 SWAP2 SWAP1 SWAP2 DUP3 MSTORE PUSH1 0x60 SHL PUSH12 0xFFFFFFFFFFFFFFFFFFFFFFFF NOT AND PUSH1 0x20 DUP3 ADD MSTORE PUSH1 0x34 ADD SWAP1 JUMP JUMPDEST PUSH1 0x40 MLOAD PUSH1 0x20 DUP2 DUP4 SUB SUB DUP2 MSTORE SWAP1 PUSH1 0x40 MSTORE DUP1 MLOAD SWAP1 PUSH1 0x20 ADD KECCAK256 PUSH1 0x0 SHR PUSH2 0x2E36 SWAP2 SWAP1 PUSH2 0x3A45 JUMP JUMPDEST SWAP3 SWAP2 POP POP JUMP JUMPDEST PUSH1 0x0 PUSH2 0x2E47 DUP3 PUSH2 0x2D8F JUMP JUMPDEST SWAP1 POP DUP1 ISZERO ISZERO PUSH1 0x0 SUB PUSH2 0x2E91 JUMPI PUSH1 0x10 DUP1 SLOAD PUSH1 0x0 SWAP1 DUP2 MSTORE PUSH1 0x14 PUSH1 0x20 MSTORE PUSH1 0x40 DUP2 KECCAK256 DUP1 SLOAD PUSH1 0x1 PUSH1 0x1 PUSH1 0xA0 SHL SUB NOT AND PUSH1 0x1 PUSH1 0x1 PUSH1 0xA0 SHL SUB DUP7 AND OR SWAP1 SSTORE DUP2 SLOAD SWAP2 SWAP1 PUSH2 0x2E8B DUP4 PUSH2 0x369C JUMP JUMPDEST SWAP2 SWAP1 POP SSTORE POP JUMPDEST PUSH1 0xF DUP1 SLOAD SWAP1 PUSH1 0x0 PUSH2 0x115D DUP4 PUSH2 0x369C JUMP JUMPDEST PUSH2 0xEF9 DUP2 PUSH1 0x40 MLOAD PUSH1 0x24 ADD PUSH2 0x2EB7 SWAP2 DUP2 MSTORE PUSH1 0x20 ADD SWAP1 JUMP JUMPDEST PUSH1 0x40 DUP1 MLOAD PUSH1 0x1F NOT DUP2 DUP5 SUB ADD DUP2 MSTORE SWAP2 SWAP1 MSTORE PUSH1 0x20 DUP2 ADD DUP1 MLOAD PUSH1 0x1 PUSH1 0x1 PUSH1 0xE0 SHL SUB AND PUSH4 0xF82C50F1 PUSH1 0xE0 SHL OR SWAP1 MSTORE PUSH2 0x3129 JUMP JUMPDEST PUSH1 0x40 MLOAD PUSH1 0x1 PUSH1 0x1 PUSH1 0xA0 SHL SUB DUP3 AND PUSH1 0x24 DUP3 ADD MSTORE PUSH2 0xEF9 SWAP1 PUSH1 0x44 ADD PUSH1 0x40 DUP1 MLOAD PUSH1 0x1F NOT DUP2 DUP5 SUB ADD DUP2 MSTORE SWAP2 SWAP1 MSTORE PUSH1 0x20 DUP2 ADD DUP1 MLOAD PUSH1 0x1 PUSH1 0x1 PUSH1 0xE0 SHL SUB AND PUSH4 0x161765E1 PUSH1 0xE1 SHL OR SWAP1 MSTORE PUSH2 0x3129 JUMP JUMPDEST PUSH1 0x60 PUSH1 0x0 PUSH1 0x2 DUP4 DUP2 SLOAD DUP2 LT PUSH2 0x2F45 JUMPI PUSH2 0x2F45 PUSH2 0x3670 JUMP JUMPDEST SWAP1 PUSH1 0x0 MSTORE PUSH1 0x20 PUSH1 0x0 KECCAK256 SWAP1 PUSH1 0x4 MUL ADD PUSH1 0x1 ADD DUP1 SLOAD PUSH2 0x2F61 SWAP1 PUSH2 0x3766 JUMP JUMPDEST DUP1 PUSH1 0x1F ADD PUSH1 0x20 DUP1 SWAP2 DIV MUL PUSH1 0x20 ADD PUSH1 0x40 MLOAD SWAP1 DUP2 ADD PUSH1 0x40 MSTORE DUP1 SWAP3 SWAP2 SWAP1 DUP2 DUP2 MSTORE PUSH1 0x20 ADD DUP3 DUP1 SLOAD PUSH2 0x2F8D SWAP1 PUSH2 0x3766 JUMP JUMPDEST DUP1 ISZERO PUSH2 0x2FDA JUMPI DUP1 PUSH1 0x1F LT PUSH2 0x2FAF JUMPI PUSH2 0x100 DUP1 DUP4 SLOAD DIV MUL DUP4 MSTORE SWAP2 PUSH1 0x20 ADD SWAP2 PUSH2 0x2FDA JUMP JUMPDEST DUP3 ADD SWAP2 SWAP1 PUSH1 0x0 MSTORE PUSH1 0x20 PUSH1 0x0 KECCAK256 SWAP1 JUMPDEST DUP2 SLOAD DUP2 MSTORE SWAP1 PUSH1 0x1 ADD SWAP1 PUSH1 0x20 ADD DUP1 DUP4 GT PUSH2 0x2FBD JUMPI DUP3 SWAP1 SUB PUSH1 0x1F AND DUP3 ADD SWAP2 JUMPDEST POP POP POP POP POP SWAP1 POP PUSH1 0x0 PUSH1 0x2 DUP5 DUP2 SLOAD DUP2 LT PUSH2 0x2FF6 JUMPI PUSH2 0x2FF6 PUSH2 0x3670 JUMP JUMPDEST SWAP1 PUSH1 0x0 MSTORE PUSH1 0x20 PUSH1 0x0 KECCAK256 SWAP1 PUSH1 0x4 MUL ADD PUSH1 0x2 ADD DUP1 SLOAD PUSH2 0x3012 SWAP1 PUSH2 0x3766 JUMP JUMPDEST DUP1 PUSH1 0x1F ADD PUSH1 0x20 DUP1 SWAP2 DIV MUL PUSH1 0x20 ADD PUSH1 0x40 MLOAD SWAP1 DUP2 ADD PUSH1 0x40 MSTORE DUP1 SWAP3 SWAP2 SWAP1 DUP2 DUP2 MSTORE PUSH1 0x20 ADD DUP3 DUP1 SLOAD PUSH2 0x303E SWAP1 PUSH2 0x3766 JUMP JUMPDEST DUP1 ISZERO PUSH2 0x308B JUMPI DUP1 PUSH1 0x1F LT PUSH2 0x3060 JUMPI PUSH2 0x100 DUP1 DUP4 SLOAD DIV MUL DUP4 MSTORE SWAP2 PUSH1 0x20 ADD SWAP2 PUSH2 0x308B JUMP JUMPDEST DUP3 ADD SWAP2 SWAP1 PUSH1 0x0 MSTORE PUSH1 0x20 PUSH1 0x0 KECCAK256 SWAP1 JUMPDEST DUP2 SLOAD DUP2 MSTORE SWAP1 PUSH1 0x1 ADD SWAP1 PUSH1 0x20 ADD DUP1 DUP4 GT PUSH2 0x306E JUMPI DUP3 SWAP1 SUB PUSH1 0x1F AND DUP3 ADD SWAP2 JUMPDEST POP POP POP POP POP SWAP1 POP DUP2 DUP2 PUSH1 0x40 MLOAD PUSH1 0x20 ADD PUSH2 0x30A5 SWAP3 SWAP2 SWAP1 PUSH2 0x3A59 JUMP JUMPDEST PUSH1 0x40 MLOAD PUSH1 0x20 DUP2 DUP4 SUB SUB DUP2 MSTORE SWAP1 PUSH1 0x40 MSTORE SWAP3 POP POP POP SWAP2 SWAP1 POP JUMP JUMPDEST PUSH1 0x0 DUP1 JUMPDEST PUSH1 0x8 SLOAD DUP2 LT ISZERO PUSH2 0x2DD9 JUMPI PUSH1 0x8 DUP2 DUP2 SLOAD DUP2 LT PUSH2 0x30DE JUMPI PUSH2 0x30DE PUSH2 0x3670 JUMP JUMPDEST SWAP1 PUSH1 0x0 MSTORE PUSH1 0x20 PUSH1 0x0 KECCAK256 ADD SLOAD DUP4 SUB PUSH2 0x30F8 JUMPI POP PUSH1 0x1 SWAP3 SWAP2 POP POP JUMP JUMPDEST DUP1 PUSH2 0x3102 DUP2 PUSH2 0x369C JUMP JUMPDEST SWAP2 POP POP PUSH2 0x30C1 JUMP JUMPDEST PUSH1 0x0 DUP1 PUSH2 0x3118 PUSH1 0xA DUP5 PUSH2 0x37E6 JUMP JUMPDEST PUSH2 0x3122 SWAP1 DUP5 PUSH2 0x3726 JUMP JUMPDEST SWAP4 SWAP3 POP POP POP JUMP JUMPDEST PUSH2 0xEF9 DUP2 PUSH2 0x33AC JUMP JUMPDEST PUSH1 0x0 DUP1 JUMPDEST PUSH1 0x7 SLOAD DUP2 LT ISZERO PUSH2 0x3197 JUMPI DUP3 PUSH1 0x1 PUSH1 0x1 PUSH1 0xA0 SHL SUB AND PUSH1 0x7 DUP3 DUP2 SLOAD DUP2 LT PUSH2 0x315D JUMPI PUSH2 0x315D PUSH2 0x3670 JUMP JUMPDEST PUSH1 0x0 SWAP2 DUP3 MSTORE PUSH1 0x20 SWAP1 SWAP2 KECCAK256 PUSH1 0x3 SWAP1 SWAP2 MUL ADD SLOAD PUSH1 0x1 PUSH1 0x1 PUSH1 0xA0 SHL SUB AND SUB PUSH2 0x3185 JUMPI POP PUSH1 0x0 SWAP3 SWAP2 POP POP JUMP JUMPDEST DUP1 PUSH2 0x318F DUP2 PUSH2 0x369C JUMP JUMPDEST SWAP2 POP POP PUSH2 0x3136 JUMP JUMPDEST POP PUSH1 0x0 JUMPDEST PUSH1 0x0 SLOAD DUP2 LT ISZERO PUSH2 0x31FF JUMPI DUP3 PUSH1 0x1 PUSH1 0x1 PUSH1 0xA0 SHL SUB AND PUSH1 0x0 DUP3 DUP2 SLOAD DUP2 LT PUSH2 0x31C2 JUMPI PUSH2 0x31C2 PUSH2 0x3670 JUMP JUMPDEST PUSH1 0x0 SWAP2 DUP3 MSTORE PUSH1 0x20 SWAP1 SWAP2 KECCAK256 PUSH1 0x1 PUSH1 0x3 SWAP1 SWAP3 MUL ADD ADD SLOAD PUSH1 0x1 PUSH1 0x1 PUSH1 0xA0 SHL SUB AND SUB PUSH2 0x31ED JUMPI POP PUSH1 0x2 SWAP3 SWAP2 POP POP JUMP JUMPDEST DUP1 PUSH2 0x31F7 DUP2 PUSH2 0x369C JUMP JUMPDEST SWAP2 POP POP PUSH2 0x319B JUMP JUMPDEST POP PUSH1 0x0 JUMPDEST PUSH1 0x3 SLOAD DUP2 LT ISZERO PUSH2 0x2DD9 JUMPI DUP3 PUSH1 0x1 PUSH1 0x1 PUSH1 0xA0 SHL SUB AND PUSH1 0x3 DUP3 DUP2 SLOAD DUP2 LT PUSH2 0x322A JUMPI PUSH2 0x322A PUSH2 0x3670 JUMP JUMPDEST PUSH1 0x0 SWAP2 DUP3 MSTORE PUSH1 0x20 SWAP1 SWAP2 KECCAK256 PUSH1 0x1 PUSH1 0x3 SWAP1 SWAP3 MUL ADD ADD SLOAD PUSH1 0x1 PUSH1 0x1 PUSH1 0xA0 SHL SUB AND SUB PUSH2 0x3255 JUMPI POP PUSH1 0x1 SWAP3 SWAP2 POP POP JUMP JUMPDEST DUP1 PUSH2 0x325F DUP2 PUSH2 0x369C JUMP JUMPDEST SWAP2 POP POP PUSH2 0x3203 JUMP JUMPDEST PUSH1 0x0 DUP3 PUSH1 0x1 SUB PUSH2 0x32D3 JUMPI PUSH1 0x0 JUMPDEST PUSH1 0x0 SLOAD DUP2 LT ISZERO PUSH2 0x32D1 JUMPI PUSH1 0x0 DUP2 DUP2 SLOAD DUP2 LT PUSH2 0x3291 JUMPI PUSH2 0x3291 PUSH2 0x3670 JUMP JUMPDEST PUSH1 0x0 SWAP2 DUP3 MSTORE PUSH1 0x20 SWAP1 SWAP2 KECCAK256 PUSH1 0x1 PUSH1 0x3 SWAP1 SWAP3 MUL ADD ADD SLOAD PUSH1 0x1 PUSH1 0x1 PUSH1 0xA0 SHL SUB SWAP1 DUP2 AND SWAP1 DUP5 AND SUB PUSH2 0x32BF JUMPI SWAP1 POP PUSH2 0x2E36 JUMP JUMPDEST DUP1 PUSH2 0x32C9 DUP2 PUSH2 0x369C JUMP JUMPDEST SWAP2 POP POP PUSH2 0x3274 JUMP JUMPDEST POP JUMPDEST DUP3 PUSH1 0x2 SUB PUSH2 0x333D JUMPI PUSH1 0x0 JUMPDEST PUSH1 0x3 SLOAD DUP2 LT ISZERO PUSH2 0x333B JUMPI PUSH1 0x3 DUP2 DUP2 SLOAD DUP2 LT PUSH2 0x32FB JUMPI PUSH2 0x32FB PUSH2 0x3670 JUMP JUMPDEST PUSH1 0x0 SWAP2 DUP3 MSTORE PUSH1 0x20 SWAP1 SWAP2 KECCAK256 PUSH1 0x1 PUSH1 0x3 SWAP1 SWAP3 MUL ADD ADD SLOAD PUSH1 0x1 PUSH1 0x1 PUSH1 0xA0 SHL SUB SWAP1 DUP2 AND SWAP1 DUP5 AND SUB PUSH2 0x3329 JUMPI SWAP1 POP PUSH2 0x2E36 JUMP JUMPDEST DUP1 PUSH2 0x3333 DUP2 PUSH2 0x369C JUMP JUMPDEST SWAP2 POP POP PUSH2 0x32DE JUMP JUMPDEST POP JUMPDEST DUP3 PUSH1 0x0 SUB PUSH2 0x2DD9 JUMPI PUSH1 0x0 JUMPDEST PUSH1 0x7 SLOAD DUP2 LT ISZERO PUSH2 0x33A2 JUMPI PUSH1 0x7 DUP2 DUP2 SLOAD DUP2 LT PUSH2 0x3365 JUMPI PUSH2 0x3365 PUSH2 0x3670 JUMP JUMPDEST PUSH1 0x0 SWAP2 DUP3 MSTORE PUSH1 0x20 SWAP1 SWAP2 KECCAK256 PUSH1 0x3 SWAP1 SWAP2 MUL ADD SLOAD PUSH1 0x1 PUSH1 0x1 PUSH1 0xA0 SHL SUB SWAP1 DUP2 AND SWAP1 DUP5 AND SUB PUSH2 0x3390 JUMPI SWAP1 POP PUSH2 0x2E36 JUMP JUMPDEST DUP1 PUSH2 0x339A DUP2 PUSH2 0x369C JUMP JUMPDEST SWAP2 POP POP PUSH2 0x3348 JUMP JUMPDEST POP POP PUSH1 0x0 SWAP3 SWAP2 POP POP JUMP JUMPDEST PUSH1 0x0 PUSH11 0x636F6E736F6C652E6C6F67 SWAP1 POP PUSH1 0x0 DUP1 DUP4 MLOAD PUSH1 0x20 DUP6 ADD DUP5 GAS STATICCALL POP POP POP JUMP JUMPDEST POP DUP1 SLOAD PUSH2 0x33D9 SWAP1 PUSH2 0x3766 JUMP JUMPDEST PUSH1 0x0 DUP3 SSTORE DUP1 PUSH1 0x1F LT PUSH2 0x33E9 JUMPI POP POP JUMP JUMPDEST PUSH1 0x1F ADD PUSH1 0x20 SWAP1 DIV SWAP1 PUSH1 0x0 MSTORE PUSH1 0x20 PUSH1 0x0 KECCAK256 SWAP1 DUP2 ADD SWAP1 PUSH2 0xEF9 SWAP2 SWAP1 JUMPDEST DUP1 DUP3 GT ISZERO PUSH2 0x3417 JUMPI PUSH1 0x0 DUP2 SSTORE PUSH1 0x1 ADD PUSH2 0x3403 JUMP JUMPDEST POP SWAP1 JUMP JUMPDEST PUSH1 0x0 DUP1 PUSH1 0x40 DUP4 DUP6 SUB SLT ISZERO PUSH2 0x342E JUMPI PUSH1 0x0 DUP1 REVERT JUMPDEST POP POP DUP1 CALLDATALOAD SWAP3 PUSH1 0x20 SWAP1 SWAP2 ADD CALLDATALOAD SWAP2 POP JUMP JUMPDEST DUP1 CALLDATALOAD DUP1 ISZERO ISZERO DUP2 EQ PUSH2 0x344D JUMPI PUSH1 0x0 DUP1 REVERT JUMPDEST SWAP2 SWAP1 POP JUMP JUMPDEST PUSH1 0x0 DUP1 PUSH1 0x40 DUP4 DUP6 SUB SLT ISZERO PUSH2 0x3465 JUMPI PUSH1 0x0 DUP1 REVERT JUMPDEST PUSH2 0x346E DUP4 PUSH2 0x343D JUMP JUMPDEST SWAP5 PUSH1 0x20 SWAP4 SWAP1 SWAP4 ADD CALLDATALOAD SWAP4 POP POP POP JUMP JUMPDEST PUSH1 0x0 PUSH1 0x20 DUP3 DUP5 SUB SLT ISZERO PUSH2 0x348E JUMPI PUSH1 0x0 DUP1 REVERT JUMPDEST DUP2 CALLDATALOAD PUSH1 0x1 PUSH1 0x1 PUSH1 0xA0 SHL SUB DUP2 AND DUP2 EQ PUSH2 0x3122 JUMPI PUSH1 0x0 DUP1 REVERT JUMPDEST PUSH1 0x0 PUSH1 0x20 DUP3 DUP5 SUB SLT ISZERO PUSH2 0x34B7 JUMPI PUSH1 0x0 DUP1 REVERT JUMPDEST POP CALLDATALOAD SWAP2 SWAP1 POP JUMP JUMPDEST PUSH4 0x4E487B71 PUSH1 0xE0 SHL PUSH1 0x0 MSTORE PUSH1 0x41 PUSH1 0x4 MSTORE PUSH1 0x24 PUSH1 0x0 REVERT JUMPDEST PUSH1 0x0 DUP3 PUSH1 0x1F DUP4 ADD SLT PUSH2 0x34E5 JUMPI PUSH1 0x0 DUP1 REVERT JUMPDEST DUP2 CALLDATALOAD PUSH8 0xFFFFFFFFFFFFFFFF DUP1 DUP3 GT ISZERO PUSH2 0x3500 JUMPI PUSH2 0x3500 PUSH2 0x34BE JUMP JUMPDEST PUSH1 0x40 MLOAD PUSH1 0x1F DUP4 ADD PUSH1 0x1F NOT SWAP1 DUP2 AND PUSH1 0x3F ADD AND DUP2 ADD SWAP1 DUP3 DUP3 GT DUP2 DUP4 LT OR ISZERO PUSH2 0x3528 JUMPI PUSH2 0x3528 PUSH2 0x34BE JUMP JUMPDEST DUP2 PUSH1 0x40 MSTORE DUP4 DUP2 MSTORE DUP7 PUSH1 0x20 DUP6 DUP9 ADD ADD GT ISZERO PUSH2 0x3541 JUMPI PUSH1 0x0 DUP1 REVERT JUMPDEST DUP4 PUSH1 0x20 DUP8 ADD PUSH1 0x20 DUP4 ADD CALLDATACOPY PUSH1 0x0 PUSH1 0x20 DUP6 DUP4 ADD ADD MSTORE DUP1 SWAP5 POP POP POP POP POP SWAP3 SWAP2 POP POP JUMP JUMPDEST PUSH1 0x0 DUP1 PUSH1 0x40 DUP4 DUP6 SUB SLT ISZERO PUSH2 0x3574 JUMPI PUSH1 0x0 DUP1 REVERT JUMPDEST DUP3 CALLDATALOAD PUSH1 0x4 DUP2 LT PUSH2 0x3583 JUMPI PUSH1 0x0 DUP1 REVERT JUMPDEST SWAP2 POP PUSH1 0x20 DUP4 ADD CALLDATALOAD PUSH8 0xFFFFFFFFFFFFFFFF DUP2 GT ISZERO PUSH2 0x359F JUMPI PUSH1 0x0 DUP1 REVERT JUMPDEST PUSH2 0x35AB DUP6 DUP3 DUP7 ADD PUSH2 0x34D4 JUMP JUMPDEST SWAP2 POP POP SWAP3 POP SWAP3 SWAP1 POP JUMP JUMPDEST PUSH1 0x0 DUP1 PUSH1 0x0 DUP1 PUSH1 0x80 DUP6 DUP8 SUB SLT ISZERO PUSH2 0x35CB JUMPI PUSH1 0x0 DUP1 REVERT JUMPDEST DUP5 CALLDATALOAD SWAP4 POP PUSH1 0x20 DUP6 ADD CALLDATALOAD SWAP3 POP PUSH1 0x40 DUP6 ADD CALLDATALOAD SWAP2 POP PUSH1 0x60 DUP6 ADD CALLDATALOAD PUSH8 0xFFFFFFFFFFFFFFFF DUP2 GT ISZERO PUSH2 0x35F7 JUMPI PUSH1 0x0 DUP1 REVERT JUMPDEST PUSH2 0x3603 DUP8 DUP3 DUP9 ADD PUSH2 0x34D4 JUMP JUMPDEST SWAP2 POP POP SWAP3 SWAP6 SWAP2 SWAP5 POP SWAP3 POP JUMP JUMPDEST PUSH1 0x0 DUP1 PUSH1 0x0 PUSH1 0x60 DUP5 DUP7 SUB SLT ISZERO PUSH2 0x3624 JUMPI PUSH1 0x0 DUP1 REVERT JUMPDEST POP POP DUP2 CALLDATALOAD SWAP4 PUSH1 0x20 DUP4 ADD CALLDATALOAD SWAP4 POP PUSH1 0x40 SWAP1 SWAP3 ADD CALLDATALOAD SWAP2 SWAP1 POP JUMP JUMPDEST PUSH1 0x0 DUP1 PUSH1 0x0 PUSH1 0x60 DUP5 DUP7 SUB SLT ISZERO PUSH2 0x3650 JUMPI PUSH1 0x0 DUP1 REVERT JUMPDEST DUP4 CALLDATALOAD SWAP3 POP PUSH2 0x3660 PUSH1 0x20 DUP6 ADD PUSH2 0x343D JUMP JUMPDEST SWAP2 POP PUSH1 0x40 DUP5 ADD CALLDATALOAD SWAP1 POP SWAP3 POP SWAP3 POP SWAP3 JUMP JUMPDEST PUSH4 0x4E487B71 PUSH1 0xE0 SHL PUSH1 0x0 MSTORE PUSH1 0x32 PUSH1 0x4 MSTORE PUSH1 0x24 PUSH1 0x0 REVERT JUMPDEST PUSH4 0x4E487B71 PUSH1 0xE0 SHL PUSH1 0x0 MSTORE PUSH1 0x11 PUSH1 0x4 MSTORE PUSH1 0x24 PUSH1 0x0 REVERT JUMPDEST PUSH1 0x0 PUSH1 0x1 DUP3 ADD PUSH2 0x36AE JUMPI PUSH2 0x36AE PUSH2 0x3686 JUMP JUMPDEST POP PUSH1 0x1 ADD SWAP1 JUMP JUMPDEST PUSH1 0x20 DUP1 DUP3 MSTORE PUSH1 0x14 SWAP1 DUP3 ADD MSTORE PUSH20 0x4F6E6C792073686F702063616E20646F20697421 PUSH1 0x60 SHL PUSH1 0x40 DUP3 ADD MSTORE PUSH1 0x60 ADD SWAP1 JUMP JUMPDEST PUSH1 0x20 DUP1 DUP3 MSTORE PUSH1 0x23 SWAP1 DUP3 ADD MSTORE PUSH32 0x5468697320707572736861726520697320646F6E607420637265617465642079 PUSH1 0x40 DUP3 ADD MSTORE PUSH3 0x657421 PUSH1 0xE8 SHL PUSH1 0x60 DUP3 ADD MSTORE PUSH1 0x80 ADD SWAP1 JUMP JUMPDEST DUP2 DUP2 SUB DUP2 DUP2 GT ISZERO PUSH2 0x2E36 JUMPI PUSH2 0x2E36 PUSH2 0x3686 JUMP JUMPDEST DUP1 DUP3 MUL DUP2 ISZERO DUP3 DUP3 DIV DUP5 EQ OR PUSH2 0x2E36 JUMPI PUSH2 0x2E36 PUSH2 0x3686 JUMP JUMPDEST PUSH4 0x4E487B71 PUSH1 0xE0 SHL PUSH1 0x0 MSTORE PUSH1 0x21 PUSH1 0x4 MSTORE PUSH1 0x24 PUSH1 0x0 REVERT JUMPDEST PUSH1 0x1 DUP2 DUP2 SHR SWAP1 DUP3 AND DUP1 PUSH2 0x377A JUMPI PUSH1 0x7F DUP3 AND SWAP2 POP JUMPDEST PUSH1 0x20 DUP3 LT DUP2 SUB PUSH2 0x379A JUMPI PUSH4 0x4E487B71 PUSH1 0xE0 SHL PUSH1 0x0 MSTORE PUSH1 0x22 PUSH1 0x4 MSTORE PUSH1 0x24 PUSH1 0x0 REVERT JUMPDEST POP SWAP2 SWAP1 POP JUMP JUMPDEST PUSH1 0x20 DUP1 DUP3 MSTORE PUSH1 0x16 SWAP1 DUP3 ADD MSTORE PUSH22 0x4F6E6C7920636C69656E742063616E20646F20697421 PUSH1 0x50 SHL PUSH1 0x40 DUP3 ADD MSTORE PUSH1 0x60 ADD SWAP1 JUMP JUMPDEST PUSH4 0x4E487B71 PUSH1 0xE0 SHL PUSH1 0x0 MSTORE PUSH1 0x12 PUSH1 0x4 MSTORE PUSH1 0x24 PUSH1 0x0 REVERT JUMPDEST PUSH1 0x0 DUP3 PUSH2 0x37F5 JUMPI PUSH2 0x37F5 PUSH2 0x37D0 JUMP JUMPDEST POP DIV SWAP1 JUMP JUMPDEST PUSH1 0x1F DUP3 GT ISZERO PUSH2 0x93E JUMPI PUSH1 0x0 DUP2 DUP2 MSTORE PUSH1 0x20 DUP2 KECCAK256 PUSH1 0x1F DUP6 ADD PUSH1 0x5 SHR DUP2 ADD PUSH1 0x20 DUP7 LT ISZERO PUSH2 0x3821 JUMPI POP DUP1 JUMPDEST PUSH1 0x1F DUP6 ADD PUSH1 0x5 SHR DUP3 ADD SWAP2 POP JUMPDEST DUP2 DUP2 LT ISZERO PUSH2 0x3840 JUMPI DUP3 DUP2 SSTORE PUSH1 0x1 ADD PUSH2 0x382D JUMP JUMPDEST POP POP POP POP POP POP JUMP JUMPDEST DUP2 MLOAD PUSH8 0xFFFFFFFFFFFFFFFF DUP2 GT ISZERO PUSH2 0x3862 JUMPI PUSH2 0x3862 PUSH2 0x34BE JUMP JUMPDEST PUSH2 0x3876 DUP2 PUSH2 0x3870 DUP5 SLOAD PUSH2 0x3766 JUMP JUMPDEST DUP5 PUSH2 0x37FA JUMP JUMPDEST PUSH1 0x20 DUP1 PUSH1 0x1F DUP4 GT PUSH1 0x1 DUP2 EQ PUSH2 0x38AB JUMPI PUSH1 0x0 DUP5 ISZERO PUSH2 0x3893 JUMPI POP DUP6 DUP4 ADD MLOAD JUMPDEST PUSH1 0x0 NOT PUSH1 0x3 DUP7 SWAP1 SHL SHR NOT AND PUSH1 0x1 DUP6 SWAP1 SHL OR DUP6 SSTORE PUSH2 0x3840 JUMP JUMPDEST PUSH1 0x0 DUP6 DUP2 MSTORE PUSH1 0x20 DUP2 KECCAK256 PUSH1 0x1F NOT DUP7 AND SWAP2 JUMPDEST DUP3 DUP2 LT ISZERO PUSH2 0x38DA JUMPI DUP9 DUP7 ADD MLOAD DUP3 SSTORE SWAP5 DUP5 ADD SWAP5 PUSH1 0x1 SWAP1 SWAP2 ADD SWAP1 DUP5 ADD PUSH2 0x38BB JUMP JUMPDEST POP DUP6 DUP3 LT ISZERO PUSH2 0x38F8 JUMPI DUP8 DUP6 ADD MLOAD PUSH1 0x0 NOT PUSH1 0x3 DUP9 SWAP1 SHL PUSH1 0xF8 AND SHR NOT AND DUP2 SSTORE JUMPDEST POP POP POP POP POP PUSH1 0x1 SWAP1 DUP2 SHL ADD SWAP1 SSTORE POP JUMP JUMPDEST DUP2 DUP2 SUB PUSH2 0x3913 JUMPI POP POP JUMP JUMPDEST PUSH2 0x391D DUP3 SLOAD PUSH2 0x3766 JUMP JUMPDEST PUSH8 0xFFFFFFFFFFFFFFFF DUP2 GT ISZERO PUSH2 0x3935 JUMPI PUSH2 0x3935 PUSH2 0x34BE JUMP JUMPDEST PUSH2 0x3943 DUP2 PUSH2 0x3870 DUP5 SLOAD PUSH2 0x3766 JUMP JUMPDEST PUSH1 0x0 PUSH1 0x1F DUP3 GT PUSH1 0x1 DUP2 EQ PUSH2 0x3977 JUMPI PUSH1 0x0 DUP4 ISZERO PUSH2 0x395F JUMPI POP DUP5 DUP3 ADD SLOAD JUMPDEST PUSH1 0x0 NOT PUSH1 0x3 DUP6 SWAP1 SHL SHR NOT AND PUSH1 0x1 DUP5 SWAP1 SHL OR DUP5 SSTORE PUSH2 0x1827 JUMP JUMPDEST PUSH1 0x0 DUP6 DUP2 MSTORE PUSH1 0x20 SWAP1 KECCAK256 PUSH1 0x1F NOT DUP5 AND SWAP1 PUSH1 0x0 DUP7 DUP2 MSTORE PUSH1 0x20 SWAP1 KECCAK256 DUP5 JUMPDEST DUP4 DUP2 LT ISZERO PUSH2 0x39B1 JUMPI DUP3 DUP7 ADD SLOAD DUP3 SSTORE PUSH1 0x1 SWAP6 DUP7 ADD SWAP6 SWAP1 SWAP2 ADD SWAP1 PUSH1 0x20 ADD PUSH2 0x3991 JUMP JUMPDEST POP DUP6 DUP4 LT ISZERO PUSH2 0x38F8 JUMPI SWAP4 ADD SLOAD PUSH1 0x0 NOT PUSH1 0xF8 PUSH1 0x3 DUP8 SWAP1 SHL AND SHR NOT AND SWAP1 SWAP3 SSTORE POP POP PUSH1 0x1 SWAP1 DUP2 SHL ADD SWAP1 SSTORE POP JUMP JUMPDEST DUP1 DUP3 ADD DUP1 DUP3 GT ISZERO PUSH2 0x2E36 JUMPI PUSH2 0x2E36 PUSH2 0x3686 JUMP JUMPDEST PUSH1 0x0 JUMPDEST DUP4 DUP2 LT ISZERO PUSH2 0x3A09 JUMPI DUP2 DUP2 ADD MLOAD DUP4 DUP3 ADD MSTORE PUSH1 0x20 ADD PUSH2 0x39F1 JUMP JUMPDEST POP POP PUSH1 0x0 SWAP2 ADD MSTORE JUMP JUMPDEST PUSH1 0x20 DUP2 MSTORE PUSH1 0x0 DUP3 MLOAD DUP1 PUSH1 0x20 DUP5 ADD MSTORE PUSH2 0x3A31 DUP2 PUSH1 0x40 DUP6 ADD PUSH1 0x20 DUP8 ADD PUSH2 0x39EE JUMP JUMPDEST PUSH1 0x1F ADD PUSH1 0x1F NOT AND SWAP2 SWAP1 SWAP2 ADD PUSH1 0x40 ADD SWAP3 SWAP2 POP POP JUMP JUMPDEST PUSH1 0x0 DUP3 PUSH2 0x3A54 JUMPI PUSH2 0x3A54 PUSH2 0x37D0 JUMP JUMPDEST POP MOD SWAP1 JUMP JUMPDEST PUSH2 0x4141 PUSH1 0xF0 SHL DUP2 MSTORE PUSH1 0x0 DUP4 MLOAD PUSH2 0x3A76 DUP2 PUSH1 0x2 DUP6 ADD PUSH1 0x20 DUP9 ADD PUSH2 0x39EE JUMP JUMPDEST DUP4 MLOAD SWAP1 DUP4 ADD SWAP1 PUSH2 0x3A8D DUP2 PUSH1 0x2 DUP5 ADD PUSH1 0x20 DUP9 ADD PUSH2 0x39EE JUMP JUMPDEST ADD PUSH1 0x2 ADD SWAP5 SWAP4 POP POP POP POP JUMP INVALID CHAINID PUSH10 0x6E652C20696620796F75 KECCAK256 PUSH19 0x656A6563742074686973206F72646572202869 PUSH15 0x20302C2845746820636F756E742929 GASPRICE 0x5F 0x5F 0x5F 0x5F 0x5F 0x5F 0x5F 0x5F 0x5F 0x5F 0x5F 0x5F 0x5F 0x5F 0x5F 0x5F 0x5F 0x5F 0x5F 0x5F 0x5F 0x5F 0x5F 0x5F 0x5F 0x5F 0x5F 0x5F 0x5F 0x5F 0x5F 0x5F 0x5F 0x5F 0x5F 0x5F 0x5F 0x5F 0x5F 0x5F 0x5F 0x5F 0x5F PREVRANDAO PUSH2 0x7973 KECCAK256 PUSH7 0x726F6D20737570 PUSH17 0x6C79206F6620746869732070726F647563 PUSH21 0x2069733A20596F75206E65656420746F2077616974 KECCAK256 PUSH26 0x6F7572206F7264657220666F723A202874656D706F7261726C79 KECCAK256 PUSH10 0x6E207365636F6E647329 PREVRANDAO PUSH16 0x6E652120596F7520686176652072656A PUSH6 0x637465642074 PUSH9 0x697320717565727279 0x21 LOG2 PUSH5 0x6970667358 0x22 SLT KECCAK256 DUP1 BYTE INVALID SIGNEXTEND MUL 0x2B CALLVALUE 0x5F 0x1E 0xEB SWAP4 0xD2 PREVRANDAO 0xBA 0xC4 0xB4 0x5C 0xEC BASEFEE SDIV SLOAD ADDRESS MUL 0x5C 0xCE PUSH18 0x852E1686CECF64736F6C6343000812003300 "
		},
		"gasEstimates": {
			"creation": {
				"codeDepositCost": "3055400",
				"executionCost": "infinite",
				"totalCost": "infinite"
			},
			"external": {
				"CheckQuerries()": "infinite",
				"buyProd(uint256,uint256,uint256,string)": "infinite",
				"confirmOrder(bool,uint256)": "infinite",
				"confirmPurshare(uint256,bool,uint256)": "infinite",
				"confirmRejectQuerry(int256,uint256)": "infinite",
				"inviteYourFriend(address)": "infinite",
				"makeChangeRoleQuerry(uint8,string)": "infinite",
				"payDebt(uint256,uint256)": "infinite",
				"returnDebt(uint256)": "infinite",
				"returnProducts(uint256)": "infinite",
				"supply(uint256,uint256,uint256)": "infinite"
			},
			"internal": {
				"AddReferal(address)": "28731",
				"changeRole(uint256,string memory)": "infinite",
				"defineUserRole(address)": "infinite",
				"findByAdd(uint256,address)": "infinite",
				"generateRandNum(uint256)": "infinite",
				"generateTrackNum(uint256)": "infinite",
				"isCodeUsed(uint256)": "infinite",
				"isInvitedFound(address)": "infinite",
				"makeDeliveryDate()": "112",
				"makeDiscount(uint256)": "173",
				"removeRole()": "infinite"
			}
		},
		"methodIdentifiers": {
			"CheckQuerries()": "d0ccd213",
			"buyProd(uint256,uint256,uint256,string)": "db9c5571",
			"confirmOrder(bool,uint256)": "ab166be6",
			"confirmPurshare(uint256,bool,uint256)": "df8903d8",
			"confirmRejectQuerry(int256,uint256)": "b107cbce",
			"inviteYourFriend(address)": "bf6c0b48",
			"makeChangeRoleQuerry(uint8,string)": "d9bd29d4",
			"payDebt(uint256,uint256)": "62cc01e7",
			"returnDebt(uint256)": "d2cedf04",
			"returnProducts(uint256)": "eb277cf9",
			"supply(uint256,uint256,uint256)": "dd26d4d9"
		}
	},
	"abi": [
		{
			"inputs": [],
			"stateMutability": "nonpayable",
			"type": "constructor"
		},
		{
			"inputs": [],
			"name": "CheckQuerries",
			"outputs": [],
			"stateMutability": "view",
			"type": "function"
		},
		{
			"inputs": [
				{
					"internalType": "uint256",
					"name": "_prodId",
					"type": "uint256"
				},
				{
					"internalType": "uint256",
					"name": "prodCount",
					"type": "uint256"
				},
				{
					"internalType": "uint256",
					"name": "shopId",
					"type": "uint256"
				},
				{
					"internalType": "string",
					"name": "clientName",
					"type": "string"
				}
			],
			"name": "buyProd",
			"outputs": [],
			"stateMutability": "nonpayable",
			"type": "function"
		},
		{
			"inputs": [
				{
					"internalType": "bool",
					"name": "isApproved",
					"type": "bool"
				},
				{
					"internalType": "uint256",
					"name": "purshareId",
					"type": "uint256"
				}
			],
			"name": "confirmOrder",
			"outputs": [],
			"stateMutability": "payable",
			"type": "function"
		},
		{
			"inputs": [
				{
					"internalType": "uint256",
					"name": "purshareId",
					"type": "uint256"
				},
				{
					"internalType": "bool",
					"name": "isConfirmed",
					"type": "bool"
				},
				{
					"internalType": "uint256",
					"name": "inviteCode",
					"type": "uint256"
				}
			],
			"name": "confirmPurshare",
			"outputs": [],
			"stateMutability": "payable",
			"type": "function"
		},
		{
			"inputs": [
				{
					"internalType": "int256",
					"name": "querryId",
					"type": "int256"
				},
				{
					"internalType": "uint256",
					"name": "confirmCode",
					"type": "uint256"
				}
			],
			"name": "confirmRejectQuerry",
			"outputs": [],
			"stateMutability": "nonpayable",
			"type": "function"
		},
		{
			"inputs": [
				{
					"internalType": "address",
					"name": "friendAddress",
					"type": "address"
				}
			],
			"name": "inviteYourFriend",
			"outputs": [],
			"stateMutability": "nonpayable",
			"type": "function"
		},
		{
			"inputs": [
				{
					"internalType": "enum BuyingInShop.Role",
					"name": "_role",
					"type": "uint8"
				},
				{
					"internalType": "string",
					"name": "name",
					"type": "string"
				}
			],
			"name": "makeChangeRoleQuerry",
			"outputs": [],
			"stateMutability": "nonpayable",
			"type": "function"
		},
		{
			"inputs": [
				{
					"internalType": "uint256",
					"name": "purshareId",
					"type": "uint256"
				},
				{
					"internalType": "uint256",
					"name": "shopId",
					"type": "uint256"
				}
			],
			"name": "payDebt",
			"outputs": [],
			"stateMutability": "payable",
			"type": "function"
		},
		{
			"inputs": [
				{
					"internalType": "uint256",
					"name": "purshareId",
					"type": "uint256"
				}
			],
			"name": "returnDebt",
			"outputs": [],
			"stateMutability": "payable",
			"type": "function"
		},
		{
			"inputs": [
				{
					"internalType": "uint256",
					"name": "purshareId",
					"type": "uint256"
				}
			],
			"name": "returnProducts",
			"outputs": [],
			"stateMutability": "nonpayable",
			"type": "function"
		},
		{
			"inputs": [
				{
					"internalType": "uint256",
					"name": "__prodId",
					"type": "uint256"
				},
				{
					"internalType": "uint256",
					"name": "_prodCount",
					"type": "uint256"
				},
				{
					"internalType": "uint256",
					"name": "supId",
					"type": "uint256"
				}
			],
			"name": "supply",
			"outputs": [],
			"stateMutability": "payable",
			"type": "function"
		}
	]
}